:100000000C9475030C94BC030C94BC030C94BC03BB
:100010000C94BC030C94BC030C94BC030C94BC0364
:100020000C94BC030C94BC030C94BC030C94C2153C
:100030000C947E150C94A5210C94BC030C94BC0369
:100040000C94BC030C94BC030C94BC030C948F164E
:100050000C94BC030C94BC030C94BC030C94BC0324
:100060000C94BC030C94BC030C94BC030C94BC0314
:100070000C94BC0344084408770877080909270949
:100080006D0A6D0A3209A509B809B809520F680F3F
:100090006F0FAE10AE10A70FB30FC20FAE10CA0F86
:1000A000F10F1A10541057108813AF136015AF13C7
:1000B0006015FB131E1460151B152B15BA17BA1704
:1000C000CC17CC17C317CC17CC17CC17BA17BA1745
:1000D000C817CC17CC17C817FD377A585A00000438
:1000E000E6D6B4460200210116000000742FE5A3F5
:1000F000E002B9012B5D003D8889C65436C3174F15
:10010000E4E2A421471C2C8F435CC6C154B508C14E
:100110007D26616E27CE0FED5B8834F011823A8721
:10012000E3ED996D3F44C1E23086C5FE6B6C4EEA4B
:10013000A2D23400DB7F09F3892DB0479E5354F4DB
:10014000CDD6B096DF5F8225F93810AEB2A03CCC98
:1001500072FAD60B794A02015F8FF89653EADDA94D
:10016000BDD45C67596345242EA0DCA09125F248DC
:1001700088F327AA6164C4EB1771C6A4D5B8032E0F
:10018000902DF4AAA41D1DD630A3648190B8F79BCE
:100190005027010A0F52450CB3BB0DA1ED670C5D52
:1001A000491814C9250943EFB40A03CDB0FEAEF2D5
:1001B000936B1140A2DB85BE9E3923518ECF90C533
:1001C000ED0DF4FE863B2A9DC40383FB3534F4E633
:1001D0009EF80106E9AC1E9E695002EF48CF955883
:1001E0000D97E78B1199A7E6C02E936013424669DD
:1001F00040BC7A8C6652D81E238E039CFFEDDCF83F
:10020000D46C4FD242C962E4DFE8E7F6208B0BA53D
:1002100059F33712B5936E538397BC4F2180A9923F
:10022000BA0000006F6DC8BC32AC81890001C70202
:10023000BA050000A4C57CC1B1C467FB0200000080
:100240000004595A05010902A10185020901A10012
:10025000050919012905150025019505750181027A
:100260009501750381010501093009311581257F4B
:1002700095027508810609381581257F9501750855
:100280008106050C0A38021581257F9501750881C4
:1002900006C0C005010980A101850319012AB70024
:1002A000150126B700950175108100C0050C0901E4
:1002B000A101850419012AA002150126A0029501B9
:1002C00075108100C005010906A101850605071901
:1002D000E029E71500250195087501810205071938
:1002E0000029EF1500250195F07501810205081917
:1002F000012905950575019102950175039101C0CC
:100300000660FF0961A1010962150026FF00952022
:10031000750881020963150026FF00952075089174
:1003200002C005010906A101050719E029E715002A
:100330002501950875018102950175088101050760
:10034000190029FF150026FF009506750881000594
:10035000081901290595057501910295017503910B
:1003600001C009025B00030100A0FA0904000001BA
:10037000030101000921110100012240000705814C
:100380000308000A0904010002030000000921110A
:100390000100012222000705820320000107050356
:1003A00003200001090402000103000000092111DB
:1003B00001000122BC000705840320000A1201008D
:1003C00002000000086B66494D0100010203011C98
:1003D000037600690061006C003A00660036003464
:1003E0000063003200620033006300000014034D1C
:1003F0000065006E0068006900720020007600321F
:10040000000000180366007200750069007400792E
:10041000006B0065006500620073000000040309C2
:1004200004290014001A000800150017001C001809
:10043000000C00120013002A002B00040016000715
:100440000009000A000B000D000E000F0033002809
:1004500000E1001D001B000600190005001100103E
:100460000036003700E50000000000E000E2000078
:100470000028412C412C41E700E70000000000006B
:100480000035001E001F0020002100220023002450
:10049000002500260027004C0001005000510052AA
:1004A000004F004A004D002F0030002D002E00317B
:1004B00000E100010001000100010001004E004BBD
:1004C0000034003800010000000000E200E20000FB
:1004D000000100010001000100005C0000000000BC
:1004E0000001000100010001000100010001000104
:1004F00000010001000100010001000100010001F4
:1005000000010001000100010001000100010001E3
:1005100000010001000100010001000100010001D3
:1005200000010001000100000000000100010000C6
:1005300000010001000100010001000000000000B6
:1005400000010001000100010001000100010001A3
:100550000001000100010001000100010001000193
:100560000001000100010001000100010001000183
:100570000001000100010001000100010001000173
:100580000001000100010000000000010001000066
:100590000001000100010001000100000000000056
:1005A00000010001004803000002000200440300B3
:1005B000000300010049030000040002002E039C18
:1005C00021050001004A030000060002003003007C
:1005D000000700020046030000080001004B030072
:1005E0000009000200320377210A00020034037779
:1005F000210B000200360377210C0002003803773C
:10060000210D0002003A0377210E0002003C03771F
:10061000210F0002003E0377211000020040037703
:10062000211100020042037721120002004C030056
:1006300000130002004E0300000000000000000054
:1006400000000000000000000000000000000000AA
:10065000000000000000000000000000007E0F000D
:10066000D4FFFFFFC700000078000000000000007A
:10067000002A2B28000000000000000000000000FD
:100680000000000029000000002C1E34202122243C
:10069000342627252E362D3738271E1F20212223CA
:1006A0002425263333362E37381F0405060708095C
:1006B0000A0B0C0D0E0F1011121314151617181922
:1006C0001A1B1C1D2F3130232D3504050607080980
:1006D0000A0B0C0D0E0F1011121314151617181902
:1006E0001A1B1C1D2F3130354C0011241FBECFEFBB
:1006F000D4E0DEBFCDBF04B603FE27C08091B703B0
:100700009091B803A091B903B091BA038730904B90
:10071000A740B04BD1F41092B7031092B8031092D7
:10072000B9031092BA0314BE84B7877F84BF0FB693
:10073000F894A89580916000886180936000109281
:1007400060000FBEE0E0F8E3099511E0A0E0B1E041
:10075000E8E4FBE502C005900D92A437B107D9F794
:1007600023E0A4E7B1E001C01D92A73BB207E1F787
:100770000E94C70A0C94A22D0C9400009F92AF9285
:10078000BF92CF92DF92EF92FF920F931F93CF937E
:10079000DF9300D000D0CDB7DEB77C01FC014381F0
:1007A0005481618180810E94DA228111E0C661E07A
:1007B000C7010E9446278C01F7018281882309F432
:1007C0007DC0C80182519F45409708F093C08FEFCC
:1007D00093E00E94EC2C81117BC05EEED52ED00EF2
:1007E00009E112E0DD2071F00115F4E01F0709F4C2
:1007F0006FC0C8010E94EC2C811101C0DA940F5F18
:100800001F4FF0CF19821A821B821C8268012FEFC2
:10081000C21AD20AC8010E94EC2C89831A8288234A
:1008200009F456C0813009F044C0580182E0A80E96
:10083000B11CC6010E94EC2C8A83882309F448C0AD
:100840009FEF980F933060F4680193E0C90ED11CBC
:10085000C5010E94EC2C8B8381112BC08601D6CF61
:10086000843011F06501FACFC5010E94EC2CB82E3E
:100870006801E4E0CE0ED11CC80103960E94EC2C66
:10088000BB2031F1882321F190E001976FEF70E0F8
:100890000E943F2D2B2D30E021503109820F931FF4
:1008A0000197E0F2EFE9FFE03197F1F700C00000B7
:1008B000F7CFCE0101960E947026D0CF00318FE590
:1008C000180709F054C381E00E9491170E94731128
:1008D00080914D02877009F44AC6F701828188230E
:1008E00009F445C680919B0182FD41C682E00E94C9
:1008F00016203DC60031FFE51F0711F481E005C059
:1009000001312FE5120721F482E00E949D17DECF0E
:100910008091490380FF6AC10E94C4166C01F701EF
:1009200082818823D9F18091190182FF08C026E5D0
:1009300032E040E0B60180E090E00E9489240B3173
:10094000FCE51F0779F00C312CE5120789F00A311C
:100950008CE51807A1F480911901982F909590FBD0
:1009600080F909C08091190181608093190107C045
:10097000809119018E7F809319010E943424C8014F
:1009800090568115E0E29E0720F0905E811590411F
:1009900080F5109285021092840228C1013E110553
:1009A00021F4809119018F7E06C0053E110531F4B6
:1009B000809119018F7D809319011BC0C801905649
:1009C000811520E2920720F0905E8115904188F415
:1009D0008091190182FF0AC180914B0381FD06C1FC
:1009E00026E532E040E0B60180E090E00E948924F4
:1009F000FDC08091190180FFF9C0F70182810832A2
:100A0000110538F40E311105B8F40430110578F4ED
:100A1000C9C00933110538F40D32110590F40B32B9
:100A2000110579F0BFC00436110559F0BBC0909193
:100A3000490394FDB7C009C09091490393FDB2C02A
:100A400004C09091490392FDADC0882309F4A3C06E
:100A50002091610280915102982F922B392F3D7F76
:100A600079F110928502109284023091490331FD90
:100A700027C0F80143E0F695E7954A95E1F7EE7156
:100A8000FF27EE59FD4F98012F70332781E090E04A
:100A900002C0880F991F2A95E2F7809590952081D2
:100AA00031818223932391838083A70160E0C80171
:100AB0000E945224809151028D7F0E94EE1F67C0D8
:100AC00038E0F701A6E5B2E001900D923A95E1F722
:100AD0001092580210925A021092590240918402C8
:100AE0005091850204171507D1F53091490335FF60
:100AF00036C04091190141FF02C036FF30C040911D
:100B0000820250918302B601641B750B409146032B
:100B1000509147036417750710F521FF08C08091B5
:100B2000190180618093190182E00E940220809166
:100B3000610285FF08C080911901806280931901CC
:100B400080E20E9402206091190166956170A70100
:100B500080918402909185020E945224B9CE96958C
:100B600091702091190190FB21F9209319018D7F3B
:100B70000E94EE1F1093850200938402D09283029C
:100B8000C09282028091190184608093190182E0F1
:100B90000E9416209DCE970140E0B601C8010E9438
:100BA000892496CE882311F1109285021092840236
:100BB000033FFCE51F07B9F178F4083D8CE5180701
:100BC00061F1093D9CE5190709F44EC0073DECE5CC
:100BD0001E0709F057C01BC0053FFCE51F07A1F128
:100BE00068F1063F8CE51807C9F14CC0033FFCE5EE
:100BF0001F07C9F0F0F4083D8CE5180771F0093DB6
:100C00009CE5190789F1073DECE51E07B1F506E201
:100C100021EE41EE67ED7CE52CC007E225EE45EEC6
:100C200068ED7CE526C006E221EE40EE63EF7CE550
:100C300020C0053FFCE51F0739F060F407E225EE10
:100C400044EE64EF7CE515C006E221EE42EE65EF6E
:100C50007CE50FC0063F8CE5180779F407E225EE26
:100C600046EE66EF7CE505C008E221E045EE69ED61
:100C70007CE5C7010E9463222BCEF701228122234B
:100C800009F430C1109252030330FDE51F0758F4F8
:100C90000A3F2CE5120760F4C80182509C45449736
:100CA00008F01FC105C001368DE5180709F019C10C
:100CB0000E94681F90939B0180939A0100319CE5EC
:100CC000190709F4CAC008F041C00830FCE51F0745
:100CD00009F4A4C0F0F404308CE5180709F48CC0C2
:100CE00068F40230ECE51E0709F482C003301C45AD
:100CF00009F0E7C080919A018260E1C006302CE5DE
:100D0000120709F483C008F085C080919A018860B9
:100D1000D6C00C309CE5190709F490C068F40A307D
:100D2000FCE51F0709F47EC008F084C00E94DF17AD
:100D300080919A018068C3C00E308CE5180709F4D1
:100D400081C008F086C080919A0194C00C3FECE508
:100D50001E0709F47BC038F504312CE5120709F4AD
:100D60009AC058F402319CE5190709F47AC008F0DA
:100D70007EC080919A018F7BA2C00A3FFCE51F07CD
:100D8000F1F108F03FC005311C4509F09AC080918F
:100D90009A0182FB222720F991E0922790FB82F9A9
:100DA00090FB83F98CC001159DE5190709F467C014
:100DB00050F480919B010E3FFCE51F07C1F108F044
:100DC0005BC08D7F65C002308DE5180709F471C0E6
:100DD00008F46DC001361D4509F073C080919A0179
:100DE00084FB222720F991E0922790FB84F967C0C9
:100DF00080919A01816063C080919A0116C08091B0
:100E00009B0116C080919B01826042C080919A0133
:100E1000806155C080919A01806251C080919A0191
:100E200080644DC080919A018860846048C082606F
:100E300081602EC080919A018E7F41C080919A017D
:100E40008D7F3DC080919A01877F39C080919B0141
:100E500014C080919A018F7E32C080919A018F7D5B
:100E60002EC00E94DF1780919A018F7728C0809151
:100E70009A01877F8B7F23C08D7F8E7F09C08091F1
:100E80009B01982F909591708E7F892B90FB81F913
:100E900080939B0116C00E94DF1780919A0187FB07
:100EA000222720F991E0922790FB87F908C061E0A2
:100EB00001C060E08EE090E00E94FA2C02C08093B6
:100EC0009A0160919A0110919B0184E090E00E9448
:100ED000FA2C612F82E290E00E94FA2C0E94DF1728
:100EE000F7CC21E006319CE5190709F047C0809155
:100EF0006102982F9A7A3091480330FF04C0482F3E
:100F0000447409F090E031FF04C0482F417109F0AA
:100F100090E032FF04C0482F487809F090E033FF9A
:100F200002C0827261F42223A1F081E0911101C01C
:100F300080E080937601992331F065E305C0222398
:100F400041F01092760169E280EE91E00E94F62174
:100F50000BC080917601882311F065E301C069E23E
:100F600080EE91E00E94CE210E948020B1CC013120
:100F70009FE5190709F0CCCC82E0A6CCF70182816D
:100F8000882389F10A35FDE51F0741F150F4011569
:100F90008CE51807A9F00E3D1C4529F50E94791F24
:100FA00097CC0B35EDE51E07D9F00C351D45D9F46E
:100FB00080919B0182FB882780F991E0892711C0ED
:100FC0000E94DF172FEF84E39CE021508040904087
:100FD000E1F700C000000E946B167ACC81E001C0EE
:100FE00080E00E943320F701868197810097B9F451
:100FF000F701828100811181882349F0C8010E9494
:10100000ED16D82E682FC8010E945A1704C0C801D7
:101010000E942917D82EB8018D2D0E94E6250E9426
:10102000C61D182F092FF701B280C580C2943FE07A
:10103000C32280914D028770B9F0BB20A9F0892F9F
:10104000807F803421F080E2810F883068F08091C9
:101050009B0182FD09C082E00E94162080914D0212
:101060008770AA24A3948111A12C902E92942FE032
:101070009222892D90E08C30910508F02EC2FC015F
:10108000E65CFF4F0C94782D902F9F70802F807F0F
:10109000D92E19F0D29490EFD922BB20A9F0DD20EF
:1010A00009F4FBC180E2810F883010F0111104C0F7
:1010B0008D2D0E94092005C080916002D82AD0920F
:1010C00060020E948020E9C1812F0E941718DD2054
:1010D00009F403C280E2810F883080F1112371F19D
:1010E000D09480916002D822D09260022AC0902FC2
:1010F0009F70802F807FD92E803219F0D29480EF9C
:10110000D822112321F0113009F45CC067C080910E
:101110009B0182FF19C0BB2059F0DD2029F08D2DE5
:101120000E9409200E94802080E00E947718D5C18B
:1011300080E00E941718DD2009F4CFC18D2D0E9498
:1011400002200E948020C9C1BB2001F1CC20D1F037
:10115000F1E0CF1206C0809151028D290E94EE1F4E
:10116000BCC180914A03823068F0C8120BC00E9453
:10117000E31F80914A02D812D0924A028D2D0E941C
:101180001018ABC1809151028D29F9CFCC2079F094
:1011900080914A0321E0C21210C0823008F49DC140
:1011A000809161028D2109F498C10E94D4200E948F
:1011B000E31F8D2D0E94091890C18230C0F3C81220
:1011C000F6CF8BC1BB2029F085E08C1508F485C1D2
:1011D000D5CF94E09C1508F480C1EBCFBB20B1F0D3
:1011E000CC2061F220E0F70140815181628173815E
:1011F00084810E941D2780914B0381FD4EC1F70120
:10120000858180FF4AC18F708583B8CFC1104EC1E0
:10121000D0CF802F86958695837019F0813061F04C
:101220005CC1BB2021F0812F902F937002C080E021
:1012300090E00E94412257C1BB2021F0812F902FC6
:10124000937002C080E090E00E942B224CC1812F5D
:10125000BB2019F00E946B2C02C00E945D2B0E94E3
:10126000332B41C1802F8370A1F5B1103AC1412FBA
:10127000429546954770440F440F212F2F7030E060
:10128000C901042E01C0880F0A94EAF714FF08C0B0
:101290002FE030E001C0220F4A95EAF7209501C007
:1012A00020E0302F369536953370323069F040F4B7
:1012B00040915202313019F0822B842302C0842BDA
:1012C000822B0E94A8170DC1282B809152028227E1
:1012D000F8CFBB2019F0802F817001C0869588233C
:1012E00009F4FFC0412F429546954770440F440FC3
:1012F000212F2F7030E0C901042E01C0880F0A94FD
:10130000EAF714FF08C02FE030E001C0220F4A9531
:10131000EAF7209501C020E0302F369536953370DE
:10132000323051F070F44091CD01313019F0822B00
:10133000842308C0842B05C0282B8091CD018227EF
:1013400001C0822B0E948D17CCC0F02FFF70DF2EC2
:10135000BB2039F08F2F0E949D17812F0E941018FB
:10136000C0C0812F0E9409188D2D0E949117B9C00D
:10137000123F11F128F4103F41F0113FA9F189C04B
:10138000133F01F1143F61F184C0BB2029F024E038
:101390002C1508F4A2C004C085E08C1508F49DC08B
:1013A000202F2F7181E090E001C0880F2A95EAF785
:1013B0009091CD0189270FC0802F8F71BB2009F438
:1013C00070C087C0BB2051F081E0902F9F7101C099
:1013D000880F9A95EAF70E948D177FC080E0FBCFB7
:1013E00080919B0182FF06C0802F8F71BB2009F482
:1013F00070C057C080914A038230A0F180914A02A8
:10140000BB20E1F00E94022080914D028770843061
:1014100039F40E940F20802F8F710E9491175CC0B9
:1014200080914A03C81608F057C0902F9F71D92E9B
:10143000892F0E949D1763E08D2D0DC00E94092009
:1014400080914A03C81650F00E940F200E94D420B9
:1014500064E0802F8F710E9450203EC081E00E9486
:1014600016203AC0BB2059F0E02FEF71DE2E8E2FF0
:101470000E949D1763E08D2D0E9450202EC081E0B8
:101480000E941620F1E0FC1540F582E00E94162033
:1014900024C0BB2049F0CC2011F0812F46CE802FF4
:1014A0008F710E949D1719C0CC2089F0193329F43F
:1014B00080914E0390914F0304C080914C03909112
:1014C0004D030E947E24812F0E94171806C0802F92
:1014D0008F710E94911701C0A12C88EF890D843073
:1014E00010F40E945722812F902F0E94AC17811177
:1014F00005C010927801109277011EC0BB2019F030
:10150000C110F7CF19C0C110F4CF20E0F70140811E
:1015100051816281738184810E941D2780914B03D8
:1015200083FFE7CF8091770190917801029709F7C7
:10153000812F0E943719DDCFAA20A9F080914D029A
:1015400080FD11C0F70112828595859585950E94D1
:101550009D17C7010E94BE0380914D028595859518
:1015600085950E94911760E0C7010E9446270F9061
:101570000F900F900F90DF91CF911F910F91FF90DF
:10158000EF90DF90CF90BF90AF909F900895CF9352
:10159000DF93CDB7DEB7E4970FB6F894DEBF0FBE8A
:1015A000CDBF84B7877F84BF0FB6F894A89580918C
:1015B0006000886180936000109260000FBE90E030
:1015C00080E80FB6F89480936100909361000FBE9D
:1015D00083E49CE190937501809374010E94942AA6
:1015E0000E9451251092E2001092E1008091E000EB
:1015F00081608093E0008091D8008F778093D8003D
:1016000019BC80916300816080936300109279011E
:10161000809163008E7F8093630081E080937901E5
:101620001092E2001092E1008091D8008F778093B1
:10163000D8008091D80080688093D8008091D8002D
:101640008F7D8093D80084E089BD86E089BD09B490
:1016500000FEFDCF1092C3011092C4011092C2018E
:101660001092C10142E060E080E00E946F12809120
:10167000E1008E7F8093E1008091E20081608093A1
:10168000E2008091E20088608093E2008091E000B7
:101690008E7F8093E0008091E20084608093E2007E
:1016A00078948091C3018823A1F01091E9001F7004
:1016B0009091EC00892F817090FD80E8182B10929A
:1016C000E9008091E80083FD0E94A4121F7010932E
:1016D000E90082E084BD93E095BD9AEF97BD8093C9
:1016E0006E000E941A2B811102C00E940B2B03E294
:1016F00011E0B7E2EB2EB1E0FB2ED8018D918D0108
:101700008F3F11F00E94881CE016F106B1F707E246
:1017100011E0A3E3EA2EA1E0FA2EF80181918F01F6
:101720008F3F11F00E94881CE016F106B1F788E0A7
:10173000EEE8F1E0DF01282F1D922A95E9F7EAE7AC
:10174000F1E0DF011D928A95E9F780E090E00E94C8
:10175000F42C8A3E9E4F21F40E941A2B811102C064
:101760000E94791F82E090E00E94EC2C809383011C
:101770000E94681F90939B0180939A010E949F1C76
:10178000EFE3FCE93197F1F700C000000E949F1CD5
:1017900080918E0180FF08C06FEF7FEF80E090E0C6
:1017A0000E94182D0E946B1683E090E00E94EC2CA2
:1017B0000E94A81780E091E0909356038093550310
:1017C00078E1672E712CE0E45E2EF6E9CF2EF1E091
:1017D000DF2E8E010F5F1F4F8091C301853009F00E
:1017E00043C054E0E52E66E0F62E8091C3018530BB
:1017F00009F036C08091C301843009F11092590379
:101800000FB6F894A895609260000FBE50926000E9
:1018100083B7817F846083BF83B7816083BF7894FF
:10182000889583B78E7F83BF0FB6F894A895809173
:101830006000886180936000109260000FBE80910C
:10184000C201882391F20E949F1CEEE8F1E0819191
:101850009191892B09F0AAC4CE16DF06C1F7C5CF36
:101860000E94DF170E9457220E949F1C882359F074
:101870008FB7F8944091960150919701609198012B
:10188000709199018FBFEEE8F1E0A4E8B1E0E12C9E
:10189000F12C7E2D219131918D919D91822793275D
:1018A000009779F160E0AA24A394B12CAC014A21FD
:1018B0005B21452B09F16BA77CA72A213B2181E005
:1018C000232B09F480E08DA70E94C4168160782F35
:1018D0009FA78EA74BA55CA56DA58FA50E94542739
:1018E000F701EE0FFF1FEC57FE4F80819181A82674
:1018F000B926B182A0821CC06F5FAA0CBB1C6C30E1
:10190000A9F62FEFE21AF20A44E0E416F10409F610
:101910008FEF88AB89AB1AAA0E94C4168160782F1A
:101920009CAB8BAB48A959A96AA98CA90E945427E2
:1019300086E0E1E6F3E0D80101900D928A95E1F7A7
:10194000A0906303B0906403E0906503F090660399
:101950001092630310926403109265031092660361
:10196000A11003C0BB2009F462C080915F03909175
:1019700060030E94B516FC0120915B03222339F01D
:101980008091150190E08E179F0760F050C0809104
:10199000160190E06AE070E00E943F2D8E179F07CD
:1019A00018F045C02F3F19F02F5F20935B03AA204A
:1019B00059F00E941D2C1A1414F461E001C06FEF5D
:1019C0000E94362D80936303BB2059F00E941D2C8A
:1019D0001B1414F461E001C06FEF0E94362D809358
:1019E000640380916303882311F12091640322230F
:1019F000F1F0082E000C990B65EB70E00E943F2D72
:101A0000992319F09093630303C081E080936303EB
:101A1000822F220F990B65EB70E00E943F2D9923D6
:101A200019F09093640303C081E080936403E11094
:101A300003C0FF2009F462C080915D0390915E03B2
:101A40000E94B516FC0120915A03222339F080919F
:101A5000110190E08E179F0760F050C08091120135
:101A600090E06AE070E00E943F2D8E179F0718F00B
:101A700045C02F3F19F02F5F20935A03EE2059F0F5
:101A80000E94E22B1E1414F461E001C06FEF0E946B
:101A9000362D80936503FF2059F00E94E22B1F141E
:101AA00014F461E001C06FEF0E94362D809366034D
:101AB00080916503882311F1209166032223F1F0C0
:101AC000082E000C990B65EB70E00E943F2D9923C6
:101AD00019F09093650303C081E080936503822F22
:101AE000220F990B65EB70E00E943F2D992319F0AE
:101AF0009093660303C081E0809366038091630343
:101B000081110BC080916403811107C0809165032E
:101B1000811103C08091660381110E94332BAB8237
:101B2000BC82ED82FE8286E0F801A1E6B3E001907E
:101B30000D928A95E1F70E945722909182018917B0
:101B400021F00E945722809382018091C30184304A
:101B500009F042CE83E08093E9008091E80082FFA3
:101B60003BCE8091E80085FF21C00E947E1181114B
:101B70001BC050E2A52EB12C780109C08091F10064
:101B8000D7018D937D01B1E0AB1AB10869F0809166
:101B9000E80085FDF3CF8091E8008B778093E80023
:101BA0000E947E11882399F391E001C090E080911A
:101BB000E8008B778093E800992309F40DCEE0903C
:101BC0005E02F0905F028981E114F10461F08E3FC2
:101BD00009F0C4C28A81833008F458C1855083302B
:101BE00008F0BCC253C1893009F4B6C2F0F48430A5
:101BF00009F481C050F48230C1F108F06DC0813029
:101C000009F0AAC21A8289E0C3C1863009F47AC0F9
:101C100008F0A2C22D813E813227232732274C8132
:101C20006B818A810E94222A99C2803109F4CAC03C
:101C300080F48D3009F469C028F48C3009F08CC22E
:101C400080E142C28E3009F464C08F3009F48CC048
:101C500083C2823109F4BBC008F4B7C0833109F4F0
:101C6000E0C08E3F09F412C177C28A81823009F444
:101C7000B3C2833089F0813009F06EC22FB7F89477
:101C80008091960190919701A0919801B09199014E
:101C90002FBFBB83AC8334C080910D0190910E01A6
:101CA000892B09F45BC280918E0190918F019B83F7
:101CB0008C8380919001909191019D838E8380917E
:101CC0009201909193019F838887809194019091D4
:101CD000950199878A8742C28A81823009F03CC285
:101CE0006B817C818D819E810E947E2D86E290E0B9
:101CF0000E94FA2C33C24C816B818A810E945F2A38
:101D00009D8371C20E94F92529C281E08A8387EEF2
:101D10003FC1EA80FB80FE24EF24FE248C80912CBE
:101D2000EDE18E16910408F019C25801C701875ED3
:101D30009D4F9501201B310B2815390508F00EC267
:101D4000F7EEEF16F1E0FF0630F40E94EC2CD5011F
:101D500014968C9302C0F5011482FFEFEF1AFF0A6C
:101D60002FEFA21AB20AE2CF80910D0190910E01DD
:101D7000892B09F4F3C1EA80FB80FE24EF24FE24C2
:101D8000AC80B12C4DE1A416B10408F0E7C14801C4
:101D9000C701875E9D4F9401201B310B2A153B051F
:101DA00008F0DCC1A7EEEA16A1E0FA0620F4F4017F
:101DB00064810E94FA2CFFEFEF1AFF0A2FEF821ABC
:101DC000920AE6CF0E94D625C9C184E07DC1EA808F
:101DD000FB80FE24EF24FE248C80912C4DE18416A0
:101DE000910408F0BBC15801C70187969501201BDB
:101DF000310B2815390508F0B1C1A0E8EA16A1E0B9
:101E0000FA0628F40E94EC2CF501848303C0D50166
:101E100014961C92BFEFEB1AFB0AEFEFAE1ABE0A44
:101E2000E3CFEA80FB80FE24EF24FE24AC80B12CBB
:101E3000FDE1AF16B10408F091C120E8E21621E0FF
:101E4000F20608F08BC180E891E08E199F098A158F
:101E50009B0508F483C14801C70187969401201BA4
:101E6000310B2A153B0508F079C140E8E41641E042
:101E7000F40628F4D40114966C910E94FA2CBFEF5A
:101E8000EB1AFB0AEFEF8E1A9E0AE6CFEA818E2F3D
:101E900090E08E30910508F061C1FC01EA5BFF4FD4
:101EA0000C94782D88E0EBE1F1E0DE019196019051
:101EB0000D928A95E1F780E2D8011D928A95E9F7A3
:101EC00084E0898388E0FE01B196DE0115961EC18B
:101ED0008CE6898381E08A831B821C823FC18C81CE
:101EE00090E0982F88272B81820F911D092E000CDE
:101EF000AA0BBB0B45E0880F991FAA1FBB1F4A9571
:101F0000D1F7AC01BD01405E5F4F6F4F7F4F481767
:101F100059076A077B0708F421C18C36E1E09E0768
:101F2000A105B10508F01AC14D36F1E05F07610562
:101F3000710520F04CE651E060E070E0481B590B61
:101F4000BC0168527F4FC8010E94D32C07C140E2F8
:101F500050E06FEF70E0C8010E949B2D80910D0151
:101F60008983EA82FBC081E090E090935F028093D6
:101F70005E0282E390E090938D0180938C010E9439
:101F8000C416ECC080910D018983EA8280918C0196
:101F90008B83E4C0EB80FC8040E250E06FEF70E0A8
:101FA000C8010E949B2D21EA35E080E090E0AC0161
:101FB0004E5F5F4F4132510508F0D0C0F901659185
:101FC0007491E616F70630F4F801E80FF91F7183F3
:101FD0006083CA01285F3F4F46E02933340739F751
:101FE000BDC02B813C8181EA95E0FC014591549173
:101FF0002417350731F00896A6E089339A07A9F728
:10200000ABC0009709F4A8C09C012E5F3F4FF901B7
:10201000459154914032510508F09EC0F901459117
:102020005491FC01349665917491CE0102960E9400
:10203000922D38C08B819C8121EAE22E25E0F22E80
:10204000F701259134918217930749F0B8E0EB0E20
:10205000F11CE9E3EE16E6E0FE0691F77DC0E1141F
:10206000F10409F479C0C7010296FC01259134916D
:102070002D31310508F070C0FC0145915491F701F4
:10208000349685919491BE016B5F7F4F0E94922D93
:102090000E947825F701369685919491009711F06A
:1020A000FC01099580E059C00E94952557C08B819D
:1020B000833061F0843079F1811150C080E2D80121
:1020C0001D928A95E9F788E08A8348C08C81FE01D9
:1020D000B1969AE0DF011D929A95E9F7883078F47D
:1020E00090E06AE070E00E943F2DBC0167537E4F94
:1020F0004AE050E0CF010E94DC2C80E001C08FEF6D
:1021000089838AE0FE01B196DE01129601900D925C
:102110008A95E1F723C08C819AE0FE013596DE01B5
:10212000919601900D929A95E1F7883080F490E0B5
:102130006AE070E00E943F2DBC0167537E4F4AE089
:1021400050E0CE0181960E941E2D80E001C08FEFED
:1021500089830E94942A02C08FEF89838091C301F2
:10216000843009F039CB8091E9008F702091EC0028
:10217000922F917020FD90E8F92EF82A82E080934A
:10218000E9008091E80080FF0CC040E050E060E290
:1021900070E0C8010E94B1118091E8008E778093B1
:1021A000E8008F2D8F708093E90016CBE9BCF9BC55
:1021B00009B400FEFDCF8091D8008F7D8093D800B8
:1021C0008091E00082608093E0008091E00081FDDA
:1021D000FCCF0E94DF1709CB86E290E00E94EC2C36
:1021E0001B821C821D828E83B9CF8091C50187FF1F
:1021F00011C08091E80082FD05C08091C30181116A
:10220000F8CF11C08091E8008B770BC08091C3019B
:10221000882349F08091E80080FFF8CF8091E800A2
:102220008E778093E80008952091CB013091CC0106
:102230002617370748F06115710539F42091E80039
:102240002E772093E80001C0B901FC0120E0611560
:10225000710561F18091C3018823D9F18530D9F1ED
:102260008091E80083FD39C08091E80082FD2BC099
:102270008091E80080FFEBCF8091F20090E0611543
:10228000710551F08830910538F421912093F100C7
:10229000615071090196F3CF21E0089709F020E021
:1022A0008091E8008E778093E800D1CF2111D2CFC2
:1022B0000AC08091C301882361F0853061F080916C
:1022C000E80083FD0AC08091E80082FFF2CF80E041
:1022D000089582E0089583E0089581E008950895C7
:1022E0008091A00108958091CD01982F967096302D
:1022F00011F4886001C0877F0C948D172091E40051
:102300003091E50095E64091EC00842F817040FF0C
:1023100023C08091E80080FD1DC08091C301882307
:1023200099F0853099F08091EB0085FD11C04091C6
:10233000E4005091E5002417350729F3915011F07E
:102340009A01E1CF84E0089582E0089583E0089542
:1023500081E0089580E008954091E80042FFDDCFDC
:102360000895EF92FF920F931F93CF93DF937C0119
:102370008B010E947E11811119C0E7010115110521
:10238000A1F08091E80085FD0AC08091E8008E7779
:102390008093E8000E947E11882381F307C0899111
:1023A0008093F10001501109E9CF80E0DF91CF91D6
:1023B0001F910F91FF90EF90089580939C0170936F
:1023C0009E0160939D018091C3018430F9F4809354
:1023D000E9008FEF9091E800815095FD06C095EDE2
:1023E0009A95F1F700008111F5CF8091E80085FF03
:1023F0000DC040E050E063E070E08CE991E00E94A5
:10240000B1118091E8008E778093E8000895BC01B7
:1024100084E00C94DD11BC0183E00C94DD1124E018
:102420002093E9002FEF3091E800215035FD06C0E0
:1024300035ED3A95F1F700002111F5CF2091E80034
:1024400025FF0BC040E050E066E070E00E94B11153
:102450008091E8008E778093E8000895CF93DF9312
:1024600020910C01222339F020919A0127FF03C00B
:1024700060E224E002C068E021E02093E9002FEF51
:102480003091E800215035FD06C035ED3A95F1F761
:1024900000002111F5CF2091E80025FF1DC0EC01BF
:1024A00080910C01811105C040E050E068E070E0CF
:1024B00003C070E040E050E0CE010E94B111809175
:1024C000E8008E778093E80080E2FE01A1EAB1E0A7
:1024D00001900D928A95E1F7DF91CF910895982FA1
:1024E000953068F59093E900981739F07091EC00F9
:1024F0002091ED005091F00003C0242F762F50E082
:1025000021FD02C09F5FECCF3091EB003E7F309306
:10251000EB003091ED003D7F3093ED003091EB000A
:1025200031603093EB007093EC002093ED005093FA
:10253000F0002091EE0027FDE5CF80E008958F7038
:102540008093E90081E008951F93CF93DF93CDB787
:10255000DEB7AA970FB6F894DEBF0FBECDBFE5EC8D
:10256000F1E08DEC91E02091F10021938E179F070F
:10257000D1F78091C601833009F45FC030F4813017
:1025800071F0823009F499C0B0C08A3009F485C076
:102590008B3009F46AC0893009F0A7C020C080914F
:1025A000C501813A09F0A1C08091E800877F80933E
:1025B000E8008091C9019091CA01892B21F460E261
:1025C00081EA91E003C060E080E090E070E00E946A
:1025D00014118091E8008B778093E80086C0809189
:1025E000C501813209F081C08091C9019091CA0171
:1025F000009719F0029709F078C08091E800877F72
:102600008093E8008091E80082FD05C08091C301BD
:102610008111F8CF6AC08091F200823031F480914C
:10262000F100813011F0863021F48091F100809327
:10263000A0018091E8008B7754C08091C501813A58
:1026400009F053C08091C9019091CA01892B09F00A
:102650004CC08091E800877F8093E8008091E8007B
:1026600080FFFCCF80910C0137C08091C501813281
:10267000E1F58091C9019091CA01892BB1F5809152
:10268000E800877F8093E8000E94F5108091C701E1
:1026900080930C010E94DF1728C08091C501813210
:1026A00021F58091E800877F8093E8000E94F51073
:1026B0008091C80180939F0118C08091C501813A23
:1026C000A1F48091E800877F8093E8008091E80082
:1026D00080FFFCCF80919F018093F1008091E80002
:1026E0008E778093E8000E94F5108091E80083FFC8
:1026F000E7C18091C5019091C601492F50E04A3051
:10270000510508F0DDC1FA01EC5AFF4F0C94782D09
:10271000803821F0823809F0D3C108C08091C1010E
:102720009091C201992389F082600FC08091C90104
:102730008F70853008F0C4C18093E9008091EB0070
:1027400085FB882780F91092E9009091E800977F37
:102750009093E8008093F1001092F10078C1282F47
:102760002D7F09F0ADC1882319F0823061F0A8C136
:102770008091C701813009F0A3C1933009F080E056
:102780008093C2012EC08091C70181112AC080911F
:10279000C9018F702FEF280F243008F091C180936A
:1027A000E9002091EB0020FF1CC0933021F48091C0
:1027B000EB00806214C09091EB0090619093EB006D
:1027C00021E030E0A90102C0440F551F8A95E2F7CD
:1027D0004093EA001092EA008091EB0088608093B9
:1027E000EB001092E9008091E800877F8093E80079
:1027F0000E94F51065C1811163C11091C7011F7757
:102800008091E3008078812B8093E3008091E80041
:10281000877F8093E8000E94F5108091E80080FF98
:10282000FCCF8091E30080688093E300111102C027
:1028300082E001C083E08093C30142C180588230AE
:1028400008F03EC12091C7013091C8012C3D53E0F2
:10285000350779F583E08A838AE289834FB7F89454
:10286000DE01139620E03EE051E2E32FF0E05093CA
:102870005700E49120FF03C0E295EF703F5FEF70D7
:102880008E2F90E0EA3010F0C79601C0C0968D936D
:102890009D932F5F243149F74FBF8091E800877FD8
:1028A0008093E8006AE270E0CE0101960E94141164
:1028B000BCC08091C9019091CA01432F5527433074
:1028C0005105B1F068F44130510509F408C14230B6
:1028D000510509F0F5C08BE590E0E2E6F3E057C062
:1028E0004132510589F14232510509F43CC0E8C03A
:1028F000C901992781309105B9F070F082309105B6
:10290000D9F0039709F0DCC0EFECF3E0E4918E2FEF
:1029100090E0EFECF3E038C0EDE1F4E0E4918E2FCD
:1029200090E0EDE1F4E030C0E3E0F4E0E4918E2FDC
:1029300090E0E3E0F4E028C0EDEEF3E0E4918E2FC8
:1029400090E0EDEEF3E020C08330910508F0B8C0D0
:10295000880F991FFC01E45CFE4F0190F081E02D8F
:1029600089E090E014C08330910508F0A9C0FC0113
:10297000EE0FFF1FEA5CFE4F0190F081E02DDC01BD
:10298000AD5CBE4F8C9190E0009709F499C0209106
:10299000E800277F2093E8002091CB013091CC0103
:1029A0002817390708F4C90140E0009769F1209120
:1029B000C3012223D1F12530C1F12091E80023FD8C
:1029C00034C02091E80022FD2CC02091E80020FFB7
:1029D000ECCF2091F20030E0009759F0283031051B
:1029E00040F444914093F100319601972F5F3F4F9F
:1029F000F3CF41E02830310509F040E02091E800B4
:102A00002E772093E800D1CF4111D1CF0AC0809119
:102A1000C301882351F0853041F08091E80083FDA7
:102A200004C08091E80082FFF2CF8091E8008B77AC
:102A30008093E80045C0803809F042C08091E800EA
:102A4000877F8093E8008091C4018093F10080919A
:102A5000E8008E77CBCE811133C08091C701909171
:102A6000C8019927029764F58091E800877F8093D9
:102A7000E8001091C7011093C4010E94F5101111D4
:102A800006C08091E30087FD02C081E001C084E0C0
:102A90008093C30142E061EC81E00E946F1242E248
:102AA00061EC84E00E946F1242E261EC82E00E94DD
:102AB0006F1242E260EC83E00E946F128091C301CA
:102AC0008091E80083FF10C08091E800877F8093A9
:102AD000E8008091EB0080628093EB0005C082E10A
:102AE00090E0EDEBF3E053CFAA960FB6F894DEBF7B
:102AF0000FBECDBFDF91CF911F9108951F920F920E
:102B00000FB60F9211242F933F934F935F936F93C0
:102B10007F938F939F93AF93BF93CF93DF93EF9365
:102B2000FF93C091E900CF708091EC00D82FD17055
:102B300080FDD0E81092E9008091F000877F8093BB
:102B4000F00078940E94A4121092E9008091F000A5
:102B500088608093F000CD2BCF70C093E900FF9187
:102B6000EF91DF91CF91BF91AF919F918F917F9125
:102B70006F915F914F913F912F910F900FBE0F90EA
:102B80001F9018951F920F920FB60F9211242F933A
:102B90003F934F935F936F937F938F939F93AF93E5
:102BA000BF93EF93FF938091E10082FF09C0809172
:102BB000E20082FF05C08091E1008B7F8093E100FD
:102BC0008091E10080FF17C08091E20080FF13C078
:102BD0008091E2008E7F8093E2008091E20080612C
:102BE0008093E2008091D80080628093D80019BC65
:102BF00085E08093C3018091E10084FF30C0809123
:102C0000E20084FF2CC084E089BD86E089BD09B460
:102C100000FEFDCF8091D8008F7D8093D8008091F9
:102C2000E1008F7E8093E1008091E2008F7E8093AF
:102C3000E2008091E20081608093E2008091C40113
:102C4000882311F084E007C08091E30087FD02C073
:102C500081E001C083E08093C3018091C301809132
:102C6000E10083FF27C08091E20083FF23C08091B1
:102C7000E100877F8093E10082E08093C30110929E
:102C8000C4018091E1008E7F8093E1008091E20099
:102C90008E7F8093E2008091E20080618093E20069
:102CA00042E060E080E00E946F128091F000886056
:102CB0008093F000FF91EF91BF91AF919F918F9121
:102CC0007F916F915F914F913F912F910F900FBE28
:102CD0000F901F90189581E08093E00080E2809330
:102CE000D8001092C9008FE19EE40197F1F700C06F
:102CF000000087E090EBDC018093B7039093B8036A
:102D0000A093B903B093BA039CE088E10FB6F8949E
:102D1000A895809360000FBE90936000FFCF7894D9
:102D20001F920F920FB60F9211248F939F93AF9320
:102D3000BF938091960190919701A0919801B091D5
:102D400099010196A11DB11D809396019093970161
:102D5000A0939801B0939901BF91AF919F918F91EA
:102D60000F900FBE0F901F9018959C014FB7F894CD
:102D70008091960190919701A0919801B09199014D
:102D80004FBF821B930B08952FB7F8948091960143
:102D900090919701A0919801B09199012FBF08954A
:102DA00080E090E00E94412280E090E00E942B228F
:102DB0001092600210924E020E948020E1E6F3E041
:102DC00086E0DF011D928A95E9F710925B0310926D
:102DD0005A0310925C030C94332BCF92DF92FF9234
:102DE0000F931F93CF93DF936C010091CD018091DE
:102DF0005202082BC7E0D0E010E0C8010C2E02C040
:102E0000959587950A94E2F780FD04C02197A8F76D
:102E1000F12C09C0FC2EB6018C2F0E94E6250E94E1
:102E2000C61D019799F38F2DDF91CF911F910F91BF
:102E3000FF90DF90CF900895CF93DF93EC010E9435
:102E4000ED16BE010E94E6250E94C61DDF91CF91BE
:102E50000895282F892F9E3F59F16CE00E94362D4E
:102E6000820FA82FA77086958695869590E063E0DF
:102E700070E00E943F2DFC01E253FE4F40E050E025
:102E800090E0219130E00A2E02C0369527950A94F1
:102E9000E2F721703327042E01C0220F0A94EAF7CB
:102EA000922B4F5F5F4F4330510559F7892F08959B
:102EB00080E00895282F892F362F9E3F69F16CE01E
:102EC0000E94362D820F982F9770A1E001C0AA0FA3
:102ED0009A95EAF786958695869590E063E070E08E
:102EE0000E943F2DFC01E253FE4F40E050E0632F73
:102EF00070E090819B01042E02C0369527950A94BC
:102F0000E2F72170219529272A23292721934F5F52
:102F10005F4F4330510569F708958093CD010C94BC
:102F2000D01621E030E001C0220F8A95EAF7209503
:102F30008091CD0182230C948D1721E030E001C0F7
:102F4000220F8A95EAF78091CD01822B0C948D1780
:102F5000809352020C94D016E92FE295EF704E2F19
:102F600050E0FA013297EE30F105B0F4E25AFF4F2B
:102F70000C94782D803F91F018F4883E68F40EC0D0
:102F8000843F51F40BC0883E48F0813F29F406C0CD
:102F900093FB882780F9089580E0089581E00895E3
:102FA000FC0186819781009719F00E94C61D04C01C
:102FB000808191810E941C170E94AC170895109285
:102FC000610280910C01882331F080919A0187FF82
:102FD00002C08EE101C086E0E2EEF1E0DF011D9269
:102FE0008A95E9F70C94D016882341F0809590914A
:102FF00060028923809360020C94802008958823C6
:1030000039F090916002892B809360020C948020AB
:103010000895882321F00E9402200C9480200895B6
:10302000882321F00E9409200C9480200895882391
:1030300009F45CC0823869F40E94572281FF56C0AF
:1030400069E380EE91E00E94F6210E94802069E30E
:103050000EC0833891F40E94572280FF47C063E579
:1030600080EE91E00E94F6210E94802063E580EED0
:1030700091E00E94CE210C948020843869F40E9453
:10308000572282FF33C067E480EE91E00E94F62170
:103090000E94802067E4EBCF9CEF980F913A10F4E8
:1030A000682FE5CF90E2980F983050F4877091E048
:1030B00001C0990F8A95EAF7892F0E940220DBCF81
:1030C0009BE5980F933020F480E090E00C9441222F
:1030D00098E5980F973120F480E090E00C942B2233
:1030E000803F20F00E945D2B0C94332B0895CF93EA
:1030F000882309F4BAC0C82F8238B1F40E9457223D
:1031000081FDB3C069E380EE91E00E94F6210E9448
:1031100080202FEF81EE94E0215080409040E1F735
:1031200000C0000069E317C08338E1F40E94572211
:1031300080FD9BC063E580EE91E00E94F6210E9435
:1031400080202FEF81EE94E0215080409040E1F705
:1031500000C0000063E580EE91E00E94CE21CF9197
:103160000C9480208438B1F40E94572282FD7DC0E7
:1031700067E480EE91E00E94F6210E9480202FEF0C
:1031800081EE94E0215080409040E1F700C00000C3
:1031900067E4E1CF8CEF8C0F813AC0F580910C0190
:1031A0008823E1F080919A0187FF18C0EC2FE69503
:1031B000E695E695F0E0E052FE4F8281282F30E060
:1031C0004C2F477081E090E002C0880F991F4A950C
:1031D000E2F782239323892B61F412C0E2EEF1E03F
:1031E00088EE91E02191C21721F08E179F07D1F749
:1031F00007C06C2F80EE91E00E94CE210E948020BB
:103200006C2F80EE91E00E94F621A9CF80E28C0F16
:10321000883048F4C77081E001C0880FCA95EAF78A
:103220000E9409209CCFEBE5EC0FE33040F4F0E086
:10323000EE5BFE4F808190E0CF910C944122E8E557
:10324000EC0FE73150F4F0E0EE0FFF1FEB5BFE4FA9
:1032500080819181CF910C942B22C03F30F08C2F34
:103260000E946B2CCF910C94332BCF9108951F9318
:10327000CF93DF93182F893329F4C0914E03D09157
:103280004F0304C0C0914C03D0914D03812F0E9485
:103290007718209741F08FE99FE00197F1F700C080
:1032A00000002197F6CF812FDF91CF911F910C94D1
:1032B00017182F923F924F925F926F927F928F9248
:1032C0009F92AF92BF92CF92DF92EF92FF920F93B5
:1032D0001F93CF93DF93CDB7DEB765970FB6F89402
:1032E000DEBF0FBECDBF8C0185E0F801DE01519637
:1032F00001900D928A95E1F7D8014C9011965C905F
:1033000011971296EC9012971396CD90DC9014972B
:1033100060E080E092E00E94462780E0A82E82E0F4
:10332000B82E8090030290900402A40160910102E3
:10333000809100020E94DA22F82E8111E5C13090BE
:103340000202F601E819F9094F0160E0332009F49F
:1033500069C1C5010E9446276090460370904703EB
:10336000209005028614970408F014C140910302CE
:1033700050910402B0900002A0900102822D807F43
:103380006A2D09F097C08B2D0E94DA22811124C08A
:10339000D80111968C9111978A111EC08C918B11B6
:1033A0001BC0209106023091070216968D919C91C8
:1033B00017972817390781F4E1100EC0822D8F70FE
:1033C00080618093050280E092E00E94BE038091BC
:1033D0000502F8018583B4C1F4EF6F16F1E07F06B2
:1033E00020F480914B0380FF21C0A601652D842D20
:1033F0000E94DA22811103C081E08E2502C080E0A4
:1034000090E080FF13C04E2D652D842D0E94DA20A0
:10341000882361F080E092E00E94BE03E0E0F2E0E9
:1034200088E0DF011D928A95E9F78AC1A601652D22
:10343000842D0E94DA22811103C081E08E2502C012
:1034400080E090E0B82FB170CB2E80FF2AC04E2DC7
:10345000652D842D0E94DA20D82E811122C0498A40
:103460005A8A89899A890E941C17292F22952F70C0
:10347000223018F0243078F405C09F7049F0811193
:1034800007C00DC09F7021F0F8019581907F39F041
:10349000805E883020F0C8010E94BE03DC2CFD2C29
:1034A0004FC1EE2009F44BC18091050281608093E9
:1034B000050246C18B2D0E94DA22811124C0D80159
:1034C00011968C9111978A111EC08C918B111BC083
:1034D000209106023091070216968D919C911797C4
:1034E0002817390781F4E1100EC015962C92C801F7
:1034F0000E94BE0388E0F801A0E0B2E001900D92C6
:103500008A95E1F76FC0C8010E94D0178823E1F1C6
:10351000EE20D1F120910502822F82958F7090E0EC
:103520000297A4F080910002909101029A87898706
:103530001B86DD86CC862E8780910602909107023D
:10354000988B8F87CE0109960E94BE0388E0F80110
:10355000A0E0B2E001900D928A95E1F70E9404216B
:1035600016C0F09000029090010240910302509129
:103570000402692D8F2D0E94DA22882399F0C80158
:103580000E94D017811130C0C8010E94BE03FF24E1
:10359000F394D6C0822D807F21F780E092E00E94D4
:1035A000BE03ACC0D80111968C9111978911E7CF59
:1035B0008C918F11E4CF209106023091070216966C
:1035C0008D919C91179728173907C9F6E110D7CF2D
:1035D00015962C92C8010E94BE0388E0F501119255
:1035E0008A95E9F7F32CACC0EE2071F22091050228
:1035F000822F82958F7090E002970CF4A7CF809174
:103600000002909101029A8389831B82DD82CC8221
:103610002E83809106029091070298878F83CE01B6
:10362000019692CF80E092E00E9446278091460367
:10363000909147038816990608F060C0FE2CEE2092
:1036400009F4A2CFE0900002D09001024091030261
:10365000509104026D2D8E2D0E94DA22811140C0FE
:10366000D80111968C9111978D113AC08C918E11C1
:1036700037C0209106023091070216968D919C91D9
:1036800017972817390761F580914B0382FD1FC0FA
:103690008091050280FD1BC082958F70482F50E0FD
:1036A00041155105A1F02091050215962C9315970F
:1036B0004F30510549F08F5F982F9295907F822F60
:1036C0008F70892B15968C93C8010E94BE0388E0E9
:1036D000F801A0E0B2E001900D928A95E1F730C0C8
:1036E000C8010E94D017811131CF809105028160FD
:1036F00080930502C8010E94BE0322C088E0F50144
:1037000011928A95E9F71CC0EE2009F43DCFC8015B
:103710000E94D017F82E882309F436CF88E0F801EC
:10372000A0E0B2E001900D928A95E1F7809100024D
:10373000909101020E941C170E94042101C0F12CEB
:103740008F2D65960FB6F894DEBF0FBECDBFDF910B
:10375000CF911F910F91FF90EF90DF90CF90BF908E
:10376000AF909F908F907F906F905F904F903F9021
:103770002F900895EF92FF920F931F93CF93DF93B3
:10378000CDB7DEB760970FB6F894DEBF0FBECDBFE2
:1037900029873A874B875C876D877E878F87988BD1
:1037A000CE0109960E94591981114CC088E0FE0192
:1037B0003996DE01119601900D928A95E1F7E98420
:1037C000FA840C851D85A8016F2D8E2D0E94DA22AA
:1037D000811138C0A0910802B0E0CD010196877038
:1037E00099272091490230E08217930791F1E982ED
:1037F000FA821D830C8333E0AA0FBB1F3A95E1F7D1
:10380000A75FBD4F98E0FE01319601900D929A9509
:10381000E1F7809308020E94FA2014C090E023E0B0
:10382000880F991F2A95E1F7875F9D4F0E945919CC
:103830008823E1F08091490290E0019687709927F2
:103840008093490280914902909108028913E6CF42
:103850000DC00E94DF171092080210924902E0E0AA
:10386000F2E088E0DF011D928A95E9F760960FB6D5
:10387000F894DEBF0FBECDBFDF91CF911F910F91A6
:10388000FF90EF90089580E0089590919A0192FF43
:103890000DC0282F2871283019F4877F846006C056
:1038A000282F2471243011F48B7F886093FF0DC082
:1038B000282F2871283119F4877E846106C0282FAB
:1038C0002471243111F48B7E886120919B0120FFAB
:1038D0000DC0382F3871383019F4877F816006C0E9
:1038E000382F3171313011F48E7F886021FF0DC087
:1038F000282F2871283119F4877E816106C0282F6E
:103900002171213111F48E7E886194FD877E0895A6
:10391000F894E82FE295EF70F0E031A1282F2F7096
:1039200081E090E001C0880F2A95EAF7982F9095E2
:10393000932391A392A1892B82A3789408958F92C7
:103940009F92AF92BF92CF92DF92EF92FF920F932E
:103950001F93CF93DF93CDB7DEB728970FB6F894B8
:10396000DEBF0FBECDBFAE014F5F5F4F7A0188E073
:10397000FA0111928A95E9F703E211E06A01AA249B
:10398000A394B12CF80180818F3F09F447C0F894CB
:10399000E82FE295EF70F0E021A18F70A50102C041
:1039A000440F551F8A95E2F7CA01922F982B91A3D5
:1039B00092A18095892382A3789400C0E7E2F1E088
:1039C00021E030E0812C912C41914F3F89F0A42FD0
:1039D000A295AF70B0E090968C9190E04F7002C0CD
:1039E000959587954A95E2F780FD02C0C90102C00E
:1039F00080E090E0882A992A220F331F51E0E333B8
:103A0000F50711F7F80180818F3F11F00E94881CA3
:103A1000F0EAFA95F1F7F601918280820F5F1F4F6D
:103A2000F2E0CF0ED11C41E00732140709F0AACF13
:103A300048E050E0B7018AE791E00E94852D11E04F
:103A4000009709F410E0892B89F088E0F701AAE7D4
:103A5000B1E001900D928A95E1F781E080935502E3
:103A60000E94C41690935402809353028091550291
:103A7000882351F180915302909154020E94B5160F
:103A8000059710F180917A0190917B0190938F01BD
:103A900080938E0180917C0190917D0190939101A2
:103AA0008093900180917E0190917F01909393018A
:103AB0008093920180918001909181019093950172
:103AC000809394011092550280911A01882341F14C
:103AD00080912C0390912D03009711F10E94B5164F
:103AE000209186023091870228173907C8F49091F7
:103AF0002A0380912B03981759F00E94802310927B
:103B000087021092860210922D0310922C0308C097
:103B10000E94142310922D0310922C030E94612303
:103B20008091490380FF1EC08091190182FF1AC055
:103B30000E94C4162091820230918302AC01421B84
:103B4000530B20911701309118014217530750F081
:103B500026E532E041E0BC0180918402909185022B
:103B60000E948924812F28960FB6F894DEBF0FBEDD
:103B7000CDBFDF91CF911F910F91FF90EF90DF901C
:103B8000CF90BF90AF909F908F900895CF93DF9389
:103B90008238910569F1B0F48133910509F46FC061
:103BA00048F48932910509F465C08A32910509F417
:103BB0006BC08AC08533910509F457C089339105DC
:103BC000B9F082C0833E910571F138F4803E9105D1
:103BD000B1F0823E910511F177C0863E9105B9F1B1
:103BE000873E9105C9F1843E910509F06DC024C05E
:103BF00020919A0120FD53C021FD51C065C08091E4
:103C00009A0180FD46C080919B0180FF48C0809151
:103C10009A0184FD58C183EE90E057C180919A01CA
:103C200082FF3AC0F4CF80919A0182FD35C0809125
:103C30009B0180FD34C0EBCF80919B0181FF35C09B
:103C400080919A0184FD3FC187EE90E03EC1809152
:103C50009A0183FF27C0F4CF80919A0183FD22C08F
:103C600080919B0181FD21C0EBCF80919A0185FD60
:103C70001FC021C080919A0185FD1DC019C080918F
:103C80009A0186FD1BC01DC080919A0186FD19C056
:103C900015C089E390E019C182EE90E016C180EE74
:103CA00090E013C186EE90E010C184EE90E00DC16B
:103CB00089E290E00AC185E390E007C18AE290E0E2
:103CC00004C181E390E001C1811531E5930708F05B
:103CD0006BC0811520E5920700F19C01F4E0369558
:103CE0002795FA95E1F72370982F937041E050E003
:103CF00002C0440F551F9A95E2F75C68522B282F9B
:103D00002F702695269530E0C901A5E0880F991FF0
:103D1000AA95E1F7842B952BD8C0883E910568F5CC
:103D2000803E910508F0D1C0883A9105B8F4853AF3
:103D3000910548F0855AE82FF0E0EE5BFE4F808158
:103D400090E09064C2C08130910509F4B9C008F4D4
:103D5000BAC08430910508F4B6C0B7C08F3B910556
:103D600008F0B1C0885AE82FF0E0EE0FFF1FEB5BC0
:103D7000FE4F808191819464A8C0811530E2930741
:103D800058F4811521E0920708F09FC0803F91050B
:103D900008F499C0906599C0811530E4930708F440
:103DA00092C09F70906A91C0811525E5920708F036
:103DB00046C0811534E5930728F0982F8827846F33
:103DC000906A83C0811523E59207C0F0AC0143706F
:103DD000552721E030E002C0220F331F4A95E2F759
:103DE000982F96959695892F90E065E0880F991FFA
:103DF0006A95E1F7822B932B9A6867C0811532E5AB
:103E0000930728F4982F8827816F906A5EC0AC01D1
:103E10004370552721E030E002C0220F331F4A953E
:103E2000E2F7982F96959695892F90E075E0880F88
:103E3000991F7A95E1F7822B932B9C6846C0EC0181
:103E4000C11589E5D807B0F4C11528E5D20728F0D7
:103E50009C2F8827806F906A38C0C11536E5D3073C
:103E600090F58C2F0E94451C8F7190E0982F882729
:103E700090622BC0C1158AE5D80790F48C2F8F7003
:103E80000E94451C94E0D695C7959A95E1F7CF70AE
:103E9000D0E0DC2FCC27D0699E01282BC90115C0AA
:103EA000CE0190568115904270F48D2F8F710E9433
:103EB000451C282F2F71CE0199279062922B05C0A7
:103EC00081E090E002C080E090E0DF91CF91089522
:103ED000CF9384E090E00E94EC2CC82F82E290E027
:103EE0000E94EC2C2C2F30E0A901582BCA01CF9155
:103EF00008956AEE7EEF80E090E00E94182D60E069
:103F000082E090E00E94FA2C60E083E090E00E9462
:103F1000FA2C1092520260E084E090E00E94FA2CA9
:103F200060E082E290E00E94FA2C60E085E090E0A0
:103F30000E94FA2C60E086E090E00E94FA2C6FEF7D
:103F400087E090E00E94FA2C40E050E0BA0188E05F
:103F500090E00E940C2D60E08DE090E00E94FA2C31
:103F600040E050E0BA0188E190E00E940C2D60E052
:103F700087E190E00E94FA2C40E050E0BA018CE129
:103F800090E00E940C2D60E070E080E290E00E94E2
:103F9000182D40E050E0BA0188E190E00E940C2D1D
:103FA00080E00E94ED2A0E940B2B40E050E0BA0115
:103FB0008FE090E00E940C2D40E050E0BA0183E1D8
:103FC00090E00C940C2D80915102882331F01092D6
:103FD00051021092500210924F020895CF93909187
:103FE0009B0192FD0DC090915102981749F0C82F86
:103FF0000E94C4169093500280934F02C0935102C6
:10400000CF910895809590916102892380936102F8
:10401000089590916102892B809361020895109216
:104020004D0210924C0210924B02089520914D02C5
:104030008095822380934D02982F977099F430E0F9
:10404000482F082E000C550B2417350759F0909176
:104050009B0192FD07C08595859585950E949117D6
:104060000C940F200895CF93C0919B01C2FB992718
:1040700090F9981799F080FBC2F9C0939B01609169
:104080009A0184E090E00E94FA2C6C2F82E290E08A
:104090000E94FA2C82E0CF910C941620CF910895C3
:1040A00090919B0192FD10C0982F990F990F990F35
:1040B000692B60934D020E949D170E94C416909335
:1040C0004C0280934B0208950C949D17809130030D
:1040D00090913103892B89F00E94C41620914F02E0
:1040E00030915002AC01421B530B81E02091300310
:1040F000309131034217530708F480E0817008952E
:104100009091610280916002892B90914E02892BDF
:104110008093E00180915102882351F18091300316
:1041200090913103892B29F00E94662081110E9411
:10413000E31F9091E00180915102892B8093E0016F
:1041400080910C01882331F080919A0187FF02C091
:104150008EE101C086E0E2EEF1E090E0815028F0CF
:1041600021912223D9F39F5FF9CF91110E94E31F80
:10417000E0915503F09156033097A9F080910C011E
:10418000882359F080919A0187FF07C08091E00150
:104190008093E10186E08093E0010280F381E02DCD
:1041A00080EE91E00994089580914A028111109265
:1041B0004A02089520914902909108022917B1F00E
:1041C00030E0F90153E0EE0FFF1F5A95E1F7E75F8A
:1041D000FD4F5181561306C05081581303C05281C0
:1041E000541306C02F5F3F4F2770E8CF80E008953B
:1041F00081E008958091490290910802891719F091
:104200008F5F8770FBCF0895CF92DF92EF92FF927E
:104210000F931F93CF93DF938091050282958F7048
:1042200009F05CC080910202882309F457C0C09154
:10423000490280910802C81709F450C0F0900002AA
:10424000E0900102C0900302D0900402A6016E2DFE
:104250008F2D0E94DA22D0E081113DC08E0183E0D3
:10426000000F111F8A95E1F7F801E75FFD4F81818B
:104270008E1131C080818F112EC0828181112BC09F
:10428000E380F480EC18FD0860E080E092E00E949A
:1042900046278091460390914703E816F906D8F423
:1042A000809105028F70806180930502F801E25FC2
:1042B000FD4F80818F708061808380E092E00E945A
:1042C000BE03DF91CF911F910F91FF90EF90DF9090
:1042D000CF900C94FA202196C770ABCFDF91CF918D
:1042E0001F910F91FF90EF90DF90CF900895EEE235
:1042F000F3E0848195812AE030E0B9010E94502DDD
:104300006093160186818093150182858093140144
:1043100084858093130186859785B9010E94502D6D
:10432000609312018089809311018289809310012A
:10433000848980930F01089580912E0390912F031B
:10434000909318018093170108951F920F920FB652
:104350000F9211248F939F93AF93BF938091590332
:10436000811113C08091960190919701A0919801BD
:10437000B09199014196A11DB11D80939601909332
:104380009701A0939801B0939901BF91AF919F912C
:104390008F910F900FBE0F901F90189520910C01D8
:1043A0002223C9F020919A0127FF15C0262F2695B8
:1043B000269526952E31C8F4FC01E20FF11D677099
:1043C00081E090E001C0880F6A95EAF780959281BC
:1043D000892382830895FC0106962281621301C01D
:1043E00012823196E817F907C1F7089520910C0160
:1043F0002223C1F020919A0127FF14C0262F269571
:10440000269526952E3130F5FC01E20FF11D6770DF
:1044100081E090E001C0880F6A95EAF79281892BCC
:1044200082830895FC0132962FEF30E041916417AA
:1044300089F02F3F19F4411101C0232F3F5F36301F
:10444000A9F72F3F39F0FC01E20FF11D27FDFA9586
:1044500062830895089520915703309158032817D7
:10446000390771F09093580380935703E0915503F7
:10447000F0915603309721F00084F185E02D0994E6
:10448000089520915303309154032817390771F090
:104490009093540380935303E0915503F091560396
:1044A000309721F00680F781E02D09940895E0917E
:1044B0005503F0915603309721F00190F081E02DE3
:1044C000099480E008950F931F93CF93DF93C42F37
:1044D000D22FFC0182818823C9F0409352030E94AD
:1044E000C416909351038093500380E28C0F883060
:1044F00008F05BC0C77081E001C0880FCA95EAF779
:10450000DF91CF911F910F910C941018809152035D
:10451000481334C080915003909151030E94B51606
:1045200020914603309147038217930738F510E234
:104530001D0FCD17B9F080E28C0F883040F4C770A2
:1045400081E001C0880FCA95EAF70E940918183067
:1045500028F581E09D2F977001C0880F9A95EAF7A2
:104560000E941018802F0E9437191830F0F4D7706D
:1045700081E001C0880FDA95EAF70AC080E28C0F6B
:10458000883098F4C77081E001C0880FCA95EAF7B7
:10459000DF91CF911F910F910C940918802FDF911B
:1045A000CF911F910F910C943719DF91CF911F91EB
:1045B0000F910895452B41F06F3F41F491E08F3FFB
:1045C00009F090E0892F03C081E001C080E0817094
:1045D0000895A0912A0350912B034A2F451719F1F2
:1045E000242F30E0F901EE0FFF1FEE5DFC4F6081DC
:1045F00071816817790791F467E070E00E943F2DA0
:1046000086519D4F51E0FC0154834A130CC02F5F2B
:104610003F4F2370332720932A0308952F5F3F4F86
:10462000422F4370DBCF0895FF920F931F93CF93D8
:10463000DF93809189028823F1F1009188028091B3
:1046400089020817A0F5FF24F394F00EF092880277
:1046500010E0C8016CE070E00E943F2DEC01C657ED
:10466000DD4F4B815C81698188810E94DA22811152
:104670001CC08E819F81892B21F4888599850196A4
:1046800051F4288139814A815B816C817D818E81E1
:104690009F810E94BA1BC8016CE070E00E943F2D10
:1046A00086579D4FFC01148213820F2DC8CF1092A4
:1046B000890210928802DF91CF911F910F91FF9094
:1046C00008951092870210928602EAEEF2E0858148
:1046D000811102C014821682379683E0E232F80715
:1046E000B1F7089510922D0310922C0310921A0125
:1046F00080912B0380932A030E9461230C9414233E
:104700004F925F927F928F929F92AF92BF92CF9281
:10471000DF92EF92FF920F931F93CF93DF93C0919D
:104720002A0301E010E08EEFA82E88248394809164
:104730002B03C81709F485C04C2E512CF201EE0F43
:10474000FF1FEE5DFC4F20813181C90167E070E001
:104750000E943F2D86519D4FEC018C8181116DC0CF
:1047600090908902AAE8B2E0E0E0F0E0B12CE9150F
:1047700008F060C01A96ED90FC901B97C90167E0A5
:1047800070E00E943F2D86519D4FEC01C880D9807A
:104790004FEF5FEF712C872D90E0BC01660F771F04
:1047A0006C0D7D1DEB01688179816115710531F01A
:1047B000E616F70609F4AC017394EDCF4F3FDFEF37
:1047C0005D07A9F1B80102C0660F771F4A95E2F7AD
:1047D000B62AE80102C0CC0FDD1F7A94E2F7CE01C1
:1047E00001974B2D50E084179507E9F4CF016CE059
:1047F00070E00E943F2DFC01E657FD4FC90167E0C4
:1048000070E00E943F2DDC01A651BD4F12968D91A4
:104810009C91139797838683A082A18231872087FA
:1048200015968C9207C014961C921E92139731967F
:104830001C969DCFC9010E94E922E2012196C37016
:1048400076CF0E941423DF91CF911F910F91FF909B
:10485000EF90DF90CF90BF90AF909F908F907F9020
:104860005F904F900C94612380911901877F809312
:104870001901909160029D7F9093600284FF06C0B1
:104880008F7E8093190182E00E9409208091190196
:1048900085FF06C08F7D8093190180E20E94092068
:1048A0000C948020CF93DF93662329F0209160023F
:1048B0002260209360029C013056EC01211540E2F9
:1048C000340720F0305E2115304108F4DD27CE0199
:1048D000805E9109089710F0209731F4CE010E9474
:1048E000DB290E94101805C0CE010E94DB290E941E
:1048F000FF178C2FDF91CF910C947718009741F020
:10490000EFE9FFE03197F1F700C000000197F6CF23
:104910000895AF92BF92CF92DF92EF92FF920F93E2
:104920001F93CF93DF935C017B01C42E890180919B
:10493000190182FF8DC0C0918402D0918502CA15F1
:10494000DB0521F0A114B10409F082C080911901A6
:104950008B7F8093190181FD11C08091820290911B
:104960008302A701481B590B81E020911701309168
:1049700018014217530718F480E001C081E08170EC
:10498000D82E80911901D0FA81F980931901FE0186
:10499000FF2784E0F695E7958A95E1F79E012F7051
:1049A0003327EE0FFF1FEE59FD4F81E090E002C06C
:1049B000880F991F2A95E2F7DD2029F020813181A7
:1049C000822B932B06C08095909520813181822384
:1049D0009323918380838091610281FF08C080913D
:1049E000190180618093190182E00E940220809168
:1049F000610285FF08C080911901806280931901CE
:104A000080E20E940220A8016D2DCE010E94522456
:104A1000CC2031F08091490385FF02C086FF36C06B
:104A200080914C0390914D030E947E2480918402DA
:104A3000909185029C013056211540E2340720F008
:104A4000305E2115304108F499270E94082A18C0C9
:104A500095013327C5019056811540E2940720F057
:104A6000905E8115904110F4C90101C0C5010E94FA
:104A7000082A8091840290918502A816B90611F443
:104A80000E943424F0928302E0928202DF91CF915F
:104A90001F910F91FF90EF90DF90CF90BF90AF905C
:104AA00008950F931F93CF93DF930EE213E0C7EAAD
:104AB000D1E0CE010E94EC2CF80181938F01219668
:104AC000C93CF1E0DF07A9F7C0E0D0E0FE01E955FD
:104AD000FA4F85919491009711F0FC010995289661
:104AE000C839D10599F7DF91CF911F910F910895A2
:104AF0000F931F93CF93DF930EE213E0C7EAD1E049
:104B0000CE010E94EC2CF80161918F01681719F019
:104B1000CE010E94FA2C2196C93CF1E0DF0781F713
:104B2000DF91CF911F910F910895EEE2F3E0128E85
:104B3000138E8FEA90E09183808385E0848F88E8EC
:104B400093E1938382834CE251E05583448322E3D3
:104B500030E03783268385E090E0918780878AE084
:104B600090E09387828764E170E075876487578758
:104B7000468744E650E0518B408B48E050E0538B31
:104B8000428B48E250E0558B448B378B268B28ECC8
:104B900030E0318F208F158E978F868F80E590E0E3
:104BA00091A380A30E9478250C945125CF93DF9385
:104BB000C9E1D2E060E0CE010E94FA2C2196C11535
:104BC00084E0D807B9F7DF91CF910895462F20915F
:104BD0005E0230915F02232B49F4843038F4743044
:104BE00028F46C3018F4672F0C945F2A80E090E072
:104BF00008959F92AF92BF92CF92DF92EF92FF9271
:104C00000F931F93CF93DF93CDB7DEB72A970FB6DD
:104C1000F894DEBF0FBECDBFA0900D01B0900E0185
:104C200081E090E090930E0180930D0100E010E090
:104C3000C80160E670E00E943F2D6C01912CE12CD0
:104C4000F12CF701EE0FFF1FEC0DFD1DEF5DFB4F8B
:104C5000259134914E2D692D802F0E94222A8FEFAD
:104C6000E81AF80A9CE0E916F10459F7E8E1CE0EDB
:104C7000D11C9394F4E09F12E2CF0F5F1F4F0430DA
:104C80001105B1F60E949525CE0101967C018AE0BE
:104C9000F70111928A95E9F709EC11E04AE050E03A
:104CA000B801C7010E941E2D065F1F4F0931F2E0B7
:104CB0001F07A1F7B0920E01A0920D012A960FB620
:104CC000F894DEBF0FBECDBFDF91CF911F910F9142
:104CD000FF90EF90DF90CF90BF90AF909F9008959E
:104CE000BF92CF92DF92EF92FF920F931F93CF93D9
:104CF000DF93EC012881222309F495C0213009F0CB
:104D00003FC08981813039F48E010E5F1F4F8A8147
:104D10000E94371908C0823041F48E010E5F1F4F88
:104D20008A810E947718E8017CC0833039F48E01B3
:104D30000E5F1F4F8A810E941718F5CF843011F043
:104D400021966FC02A81229680E090E030E02053C7
:104D500031092A30310548F46AE070E00E943F2DA5
:104D6000820F931F21962881F1CF009709F459C033
:104D7000EFE9FFE03197F1F700C000000197F5CFB0
:104D8000E22FF0E0E759F94FB490822F869586958F
:104D9000869590E0FC01E75AF94FE4902770F12CDA
:104DA000022E02C0F594E7940A94E2F7F1E0EF22B4
:104DB000FF24FC01E75BF94FC490D12C022E02C006
:104DC000D594C7940A94E2F731E0C322DD24FC01B4
:104DD000E75CF94F049110E002C0159507952A95FC
:104DE000E2F701701127E114F10419F081EE0E943D
:104DF0007718C114D10419F086EE0E9477188B2D14
:104E00000E943719CD2819F086EE0E941718EF2856
:104E100019F081EE0E941718012B19F08CE20E9404
:104E20003719219667CFDF91CF911F910F91FF9096
:104E3000EF90DF90CF90BF9008951F93CF93DF93B3
:104E400000D000D01F92CDB7DEB749835A83898145
:104E50009A81662359F0222349F00E94ED16182FFB
:104E6000682F89819A810E945A1703C00E942917CE
:104E7000182F69817A81812F0F900F900F900F90DA
:104E80000F90DF91CF911F910C94E625FC01262F06
:104E900086819781009739F44081518162817381C5
:104EA00084810C941D2708952F923F924F925F9218
:104EB0006F927F928F929F92AF92BF92CF92DF922A
:104EC000EF92FF920F931F93CF93DF93CDB7DEB78F
:104ED0006A970FB6F894DEBF0FBECDBF942F498BF3
:104EE000252F5A8B6B8B7C8B8D8B4C895D89622F28
:104EF000892F0E94DA22811109C080917701909157
:104F00007801019690937801809377018B898111C4
:104F1000109260028E01075F1F4F88E0D8011D923A
:104F20008A95E9F785E0FE017196D80101900D920E
:104F30008A95E1F780919B0182FD28C08091300322
:104F400090913103892B11F10E94C41620914B02DC
:104F500030914C02821B930B20913003309131032E
:104F60008217930740F080914D0282FB992790F9B8
:104F700081E0892701C080E080FF03C082E00E94B9
:104F800016200E94662081110E94E31F4C855D85DA
:104F90006A8589850E94DA228111EAC161E0C8012F
:104FA0000E9446276C01873FBCE59B0739F48B853F
:104FB0008823A1F081E080931A01DAC1883FECE5F3
:104FC0009E0731F48B85882349F00E947223D0C15B
:104FD000893F9C4519F48B85811112C00AEE12E0BD
:104FE000912CA12CB12C22242394312C55245394A0
:104FF000AE014F5F5F4F5F8B4E8BAEEF4A2E51C0BD
:1050000080911A018823B1F2E0CFC616D70609F0C5
:1050100097019F5F7901292F30E0F901EE0FFF1F03
:10502000E40FF51F608171816115710571F7BFEFA4
:10503000EB16FB0609F447C1F8016481611139C020
:1050400020911A01822F81708B84D80115963C9192
:10505000159716962C911697882009F4D3C08823AB
:1050600009F4D0C06090440370904503332321F1CC
:10507000910102C0220F331F9A95E2F721503109A6
:10508000F801868190E02817390751F19828BFEF81
:10509000AB1ABB0A095F1F4FE8E0AE16B10409F472
:1050A00014C1D8014D915C91EE24EA94FE2C90E05D
:1050B000B2CF20E030E0C6CFA10101C0440FEA9496
:1050C000EAF7242B16962C932091860230918702C2
:1050D0002615370568F67092870260928602C8CF5F
:1050E00080912C0390912D03009749F00E94B516F2
:1050F0006816790620F4D80114965C92C7CF2091E7
:105100002A03B0912B03B88FA0E0B0E0F88D2F17E1
:1051100009F465C0E22EF12CF701EE0FFF1FEE5DE2
:10512000FC4F0190F081E02DCF0167E070E00E941C
:105130003F2D86519D4FDC010D90BC91A02DBA8F63
:10514000A98F30E080E090E0A92FB0E0AA0FBB1F4C
:10515000498D5A8DA40FB51F6D917C916115710514
:10516000B9F0D8016D907C9080E0A82FB0E0AA0F34
:10517000BB1FA60DB71D4D915C914115510531F036
:105180006417750709F431E08F5FEFCF9F5FDCCFC5
:105190003323F1F0891708F4E4C0CF0167E070E031
:1051A0000E943F2DDC01A651BD4F109799F0FD01E3
:1051B0005482A017B10709F469CF80912A032813FC
:1051C00009C0C70101968370992780932A0302C002
:1051D000A0E0B0E097012F5F3F4F237097CFA0175B
:1051E000B10709F453CF30E0F901EE0FFF1FEE5D78
:1051F000FC4FB182A0822F5F3F4F23703327209353
:105200002B0344CF311114C0A10102C0440F551F1C
:105210009A95E2F74150510930E04217530709F0DF
:1052200042C0662309F440C0C5010E94E9223BC088
:10523000822F90E09C0121503109282339230E2C24
:1052400002C0959587950A94E2F7232B51F580FFCC
:1052500028C0D80112968D919C911397892BE9F063
:10526000EE89FF8948E011924A95E9F749824A821E
:105270000E94C4168160582F9D838C83D80112969A
:105280008C91129713969C918F83988729813A81EC
:105290004B816D817E810E94BA1BF801158281E0ED
:1052A00003C0817001C080E0910101C0220FEA9427
:1052B000EAF72095D80116969C9116972923169601
:1052C0002C93882EE3CE812CE1CE8B858823A9F107
:1052D000992099F10E94C41690932D0380932C037A
:1052E00080918902883008F04DC091E0980F90932A
:1052F000890298E0FE013996DE01119601900D9227
:105300009A95E1F790E06CE070E00E943F2D86579F
:105310009D4F28E0FE013196DC0101900D922A9507
:10532000E1F72FEF3FEFDC0119963C932E9318978E
:105330001B96DC92CE921A9725C090912A038091F9
:105340002B03981719F00E94802308C00E94142391
:1053500010922D0310922C030E946123992041F09A
:1053600011C00115110509F433CFF80154828ECE16
:1053700029853A854B855C856D857E858F859889E5
:105380000E94BA1B6A960FB6F894DEBF0FBECDBF5F
:10539000DF91CF911F910F91FF90EF90DF90CF9011
:1053A000BF90AF909F908F907F906F905F904F9045
:1053B0003F902F9008959C013A9521153F4130F57B
:1053C000BC0166277270AC01442754709C012227EF
:1053D000387094FF0FC090FF02C080E101C080E0F0
:1053E000672B09F08062452B09F08064232B79F04C
:1053F00080680895892F8170672B09F08260452BA2
:1054000009F08460232B19F08860089580E00895E6
:10541000CF93DF93EC010E941718CE01805E9109B3
:10542000089710F0209739F4CE010E94DB29DF9114
:10543000CF910C940918CE010E94DB29DF91CF9106
:105440000C94F4170F931F93CF93DF93843090F550
:10545000643080F54C3070F521159CE5390731F446
:10546000E0910D01F0910E01EF2B21F18901282F20
:10547000862F90E068E170E00E943F2DC42FD0E0BD
:10548000CC0FDD1FC80FD91F822F90E060E670E0BF
:105490000E943F2DC80FD91F612FCE0187960E9411
:1054A000FA2C602FCE018896DF91CF911F910F913A
:1054B0000C94FA2CDF91CF911F910F9108950F93C7
:1054C0001F93CF93DF93843040F5643030F54C3038
:1054D00020F5282F862F90E068E170E00E943F2D94
:1054E000C42FD0E0CC0FDD1FC80FD91F822F90E052
:1054F00060E670E00E943F2DC80FD91FCE0187964D
:105500000E94EC2C90E0182F0027CE0188960E9474
:10551000EC2C9801282BC90102C080E090E0DF91BB
:10552000CF911F910F910895CF92DF92EF92FF924A
:105530000F931F93CF93DF93CDB7DEB72A970FB6A4
:10554000F894DEBF0FBECDBF80E5E7E6F3E0DF01F4
:105550001D928A95E9F788E3EAEEF2E0DF011D92F9
:105560008A95E9F787E6C82E83E0D82E7F0109ECFB
:1055700011E0F701D182C0824AE050E0B801CE01CB
:1055800001960E94DC2C88E0FE013196D601019044
:105590000D928A95E1F789859A85D70113969C9398
:1055A0008E931297BAE0CB0ED11CE7E0EE0EF11C01
:1055B000065F1F4F0931F2E01F07D9F62A960FB692
:1055C000F894DEBF0FBECDBFDF91CF911F910F9139
:1055D000FF90EF90DF90CF900895CF93C82F811167
:1055E00002C06FEF01C060E683E290E00E94FA2CF7
:1055F000C11102C06FEF01C067EE84E290E00E942B
:10560000FA2CC11102C06FEF01C068E085E290E0A2
:10561000CF910C94FA2C80E00E94ED2A60E086E2A3
:1056200090E00E94FA2C0E94F9250E94D62581E084
:105630000C94ED2A83E290E00E94EC2C803681F4F9
:1056400084E290E00E94EC2C873E51F485E290E0E9
:105650000E94EC2C91E0883009F090E0892F01C085
:1056600080E0817008950E94C41620916303211187
:1056700004C020916403222321F09093600380935F
:105680005F0320916503211104C02091660322234A
:1056900021F090935E0380935D03E0915503F091B8
:1056A0005603309749F082E0809361030480F581CE
:1056B000E02D81E693E009940895803F39F48091CC
:1056C000640387FF6AC01092640367C0813F29F4B6
:1056D000809164031816BCF360C090916303823F0D
:1056E00029F497FF5AC01092630357C0833F19F4FF
:1056F0001916CCF352C090916503893F31F4191605
:105700000CF04BC01092650348C08A3F19F497FF14
:1057100044C0F8CF8B3F39F48091660387FF3DC0CA
:10572000109266033AC08C3F29F4809166031816E4
:10573000BCF333C0843F21F4809162038E7F17C095
:10574000853F21F4809162038D7F11C0863F21F453
:10575000809162038B7F0BC0873F21F480916203AD
:10576000877F05C0883F31F4809162038F7E8093EC
:10577000620313C08D3F21F480915C038E7F0BC0C8
:105780008E3F21F480915C038D7F05C08F3F29F40B
:1057900080915C038B7F80935C0380916303811114
:1057A00006C080916403811102C010925B03809156
:1057B0006503811106C080916603811102C01092B9
:1057C0005A03089580915C0380FF08C06091100126
:1057D00070E0759567957595679523C081FF06C044
:1057E0006091100170E0759567951BC082FF04C041
:1057F0006091100170E012C060915A036623A9F015
:1058000020910F016217A0F78091100170E090E0E5
:105810000E943F2D622F70E00E94642D6038710558
:1058200040F46115710519F406C061E070E0862F3F
:1058300008958FE7089581E0089580915C03309189
:1058400036032091370380FF0CC08091140190E053
:10585000632F722F0E943F2D969587959695879579
:1058600030C081FF0AC08091140190E0632F722F35
:105870000E943F2D9695879524C082FF08C0809195
:10588000140190E0632F722F0E943F2D1AC0609187
:105890005B03611103C0832F922F13C0409113014A
:1058A000641768F78091140170E090E00E943F2D2A
:1058B000632F722F0E943F2D642F70E00E94502DA5
:1058C000CB018038910518F4009719F008958FE7FF
:1058D000089581E00895803F21F40E941D2C819558
:1058E00004C0813F29F40E941D2C80936403089515
:1058F000823F21F40E941D2C819504C0833F29F42E
:105900000E941D2C809363030895893F19F40E941F
:10591000E22B05C08A3F31F40E94E22B81958093EF
:10592000650308958B3F21F40E94E22B819504C00A
:105930008C3F29F40E94E22B809366030895843FF4
:1059400021F480916203816017C0853F21F480912A
:105950006203826011C0863F21F4809162038460FB
:105960000BC0873F21F480916203886005C0883FA7
:1059700031F48091620380618093620308958D3FCA
:1059800021F480915C0381600BC08E3F21F48091F3
:105990005C03826005C08F3F29F480915C038460C2
:1059A00080935C030895FB01DC0102C005900D9219
:1059B00041505040D8F70895DC01CB01FC01F99922
:1059C000FECF06C0F2BDE1BDF89A319600B40D924B
:1059D00041505040B8F70895F999FECF92BD81BD6E
:1059E000F89A992780B50895A8E1B0E042E050E028
:1059F0000C94DE2C262FF999FECF92BD81BDF89A2A
:105A0000019700B4021639F01FBA20BD0FB6F89402
:105A1000FA9AF99A0FBE08950396272F0E94FB2C3D
:105A20000E94FA2C252F0E94FB2C242F0C94FB2C77
:105A30000196272F0E94FB2C0C94FA2CDC01CB0141
:105A400003C02D910E94292D41505040D0F7089558
:105A5000262FF999FECF1FBA92BD81BD20BD0FB68A
:105A6000F894FA9AF99A0FBE01960895002480FDE1
:105A7000060E660F11F08695D1F7802D089500244B
:105A8000552704C0080E591F880F991F009729F049
:105A900076956795B8F37105B9F7802D952F089520
:105AA000AA1BBB1B51E107C0AA1FBB1FA617B70744
:105AB00010F0A61BB70B881F991F5A95A9F7809560
:105AC0009095BC01CD01089597FB072E16F4009424
:105AD00007D077FD09D00E94502D07FC05D03EF479
