:100000000C9413020C944B020C944B020C944B0274
:100010000C944B020C944B020C944B020C944B022C
:100020000C944B020C944B020C944B020C947A20CF
:100030000C942B210C94341B0C944B020C944B020B
:100040000C944B020C944B020C944B020C94BB1B73
:100050000C944B020C944B020C944B020C944B02EC
:100060000C944B020C944B020C944B020C944B02DC
:100070000C944B02290014001A0008001500170008
:100080001C0018000C00120013002A002B000400B2
:100090001600070009000A000B000D000E000F00FB
:1000A00033002800E1001D001B00060019000500B8
:1000B0001100100036003700E50000000000E000ED
:1000C000E200000028412C412C41E700E70000003D
:1000D0000000000035001E001F002000210022004B
:1000E000230024002500260027004C0001005000BA
:1000F000510052004F004A004D002F0030002D00EB
:100100002E003100E10001000100010001000100AA
:100110004E004B0034003800010000000000E200F7
:10012000E20000000100010001000100017C00006C
:1001300000000000010001000100010001000100B9
:1001400001000100010001000100010001000100A7
:100150000100010001000100010001000100010097
:100160000100010001000100010001000100010087
:100170000100010001000100010000000000010079
:100180000100000001000100010001000100000069
:100190000000000001000100010001000100010059
:1001A0000100010001000100010001000100010047
:1001B0000100010001000100010001000100010037
:1001C0000100010001000100010001000100010027
:1001D0000100010001000100010000000000010019
:1001E0000100000001000100010001000100000009
:1001F0000000000000000000000000002A2B280082
:1002000000000000000000000000000000000029C5
:10021000000000002C1E3420212224342627252E05
:10022000362D3738271E1F2021222324252633333D
:10023000362E37381F0405060708090A0B0C0D0E69
:100240000F101112131415161718191A1B1C1D2F35
:100250003130232D350405060708090A0B0C0D0E55
:100260000F101112131415161718191A1B1C1D2F15
:100270003130354C0000000000000000000000009C
:10028000000000000000000000000000000000006E
:1002900000000000000000007E0F00D4FFFFFFC739
:1002A0000000007814034D0065006E0068006900CE
:1002B0007200200076003200000018036600720011
:1002C00075006900740079006B00650065006200CC
:1002D000730000000403090409025B00030100A08D
:1002E000FA090400000103010100092111010001C4
:1002F00022440007058103080001090401000203EC
:1003000000000009211101000122220007058203DB
:100310002000010705030320000109040200010376
:10032000000000092111010001227B000705840360
:1003300020000112010002000000086B66494D0018
:1003400001010200010660FF0961A10109621500B7
:1003500026FF009520750881020963150026FF001D
:10036000952075089102C005010902A101850209C5
:1003700001A1000509190129081500250195087535
:100380000181020501093009311581257F9502752A
:1003900008810609381581257F95017508810605B4
:1003A0000C0A38021581257F950175088106C0C0A9
:1003B00005010980A101850319012AB7001501264D
:1003C000B700950175108100C0050C0901A10185D8
:1003D0000419012AA002150126A0029501751081B9
:1003E00000C005010906A101050719E029E715006C
:1003F00025019508750181029501750881010507A0
:10040000190029FF150026FF0095067508810005D3
:100410000819012905150025019505750191029519
:100420000175039101C011241FBECFEFD4E0DEBFE0
:10043000CDBF04B603FE18C0809178029091790276
:10044000A0917A02B0917B028730904BA740B04BCD
:1004500059F4109278021092790210927A02109256
:100460007B02E0E0F8E3099511E0A0E0B1E0E8E20A
:10047000F8E402C005900D92AA3AB107D9F722E03C
:10048000AAEAB1E001C01D92A837B207E1F70E94C5
:100490008C110C94C0230C940000282F8430E0F4BD
:1004A0006430D0F44C30C0F4862F90E06CE070E003
:1004B0000E94DB22FC01E40FF11D822F90E060E33B
:1004C00070E00E94DB22E80FF91FEE0FFF1FEC58CF
:1004D000FF4F85919491089581E090E0089581E027
:1004E00008950E946F02089581E008950E946F02AE
:1004F00008950E947602089508950E947C0208954E
:10050000A6E0B0E0E6E8F2E00C941C2349835A83AD
:100510009E833091B10189819A8131111AC03E8147
:10052000332399F0222389F00E94FF07182F682FA8
:1005300089819A810E94D60769817A81812F0E94E0
:10054000F70E2696E3E00C9438230E94EB07182F51
:10055000F3CF0E94FF0769817A81F1CFFC01262F3A
:100560004081518162817381848195810E948002E2
:100570000895CF93DF93EC0161E00E94AE02BE01CB
:100580000E947102DF91CF910895CF93DF93EC0128
:1005900060E00E94AE02BE010E947D02DF91CF9119
:1005A000089581E008950E94D1020895CF93C82F45
:1005B0000E94CC068C2F0E94D3022FEF84E39CE094
:1005C000215080409040E1F700C00000CF91089595
:1005D00081E00E94D6020E94DF1B089580E00E9405
:1005E000D6020E94031C08950F931F93CF93DF93AD
:1005F0008C0161E00E94AE02EC01B8010E9400197A
:10060000811106C080E0DF91CF911F910F91089575
:10061000B801CE010E9479028823A1F3B801CE016E
:100620000E940D18882371F3B801CE010E946F1348
:10063000882341F3B801CE010E944513882311F3AA
:10064000B801CE010E9451188823E1F2F80185819A
:10065000882361F0C330FCE7DF07E9F058F4C115E7
:10066000ECE7DE07A9F0C130DC47B9F0C8010E9411
:100670007402C9CFCB358CE7D807A9F0CC35ECE7AD
:10068000DE0771F0CA35DC4789F70E94390CEECFDE
:100690000E94E802B7CF0E94410C0E94EE02B2CF46
:1006A0000E942F0CE3CF0E943D0CE0CF0E94161B4E
:1006B0000E947D0308950E9481030E941B1B0895E0
:1006C000089581E008950895CF93DF93D82F0E9475
:1006D0006103C82F882319F08D2F0E9463038C2F8C
:1006E000DF91CF9108950895CF93C82F0E946003A2
:1006F0008C2F0E946403CF91089580E00E947403C0
:1007000008950E94EC190E9474030895CF930E94EB
:10071000EC19C82F8091AC018C1779F0C093AC0113
:100720000E94A01B6093AD017093AE018093AF0156
:100730009093B0018C2F0E947403CF910895ADE087
:10074000B0E0E5EAF3E00C941D23488759876A87F7
:100750007B878C879D8791110E946F0B1F8286E09B
:10076000FE013896DE01119601900D928A95E1F70F
:100770008D8181110DC029813A814B815C816D8110
:100780007E818F810E94B40A2D96E2E00C94392379
:10079000CE0101960E94B9028111EDCFF5CFFC0187
:1007A0002481213021F4808191810E942C080895B8
:1007B000662329F00E94DB140E94C01508950E9450
:1007C0004715FACFCF93C82F882399F08CEF8C0F61
:1007D000813A88F48C2F0E94711A882329F08C2F7B
:1007E0000E94B41A0E94DE0B8C2F0E94AC1A0E9449
:1007F000DE0BCF91089580E28C0F883048F4C770EB
:1008000081E001C0880FCA95EAF70E94520BEFCF32
:10081000EBE5EC0FE33040F4F0E0E25BFE4F80816B
:1008200090E00E94121AE5CFE8E5EC0FEB3150F4AE
:10083000F0E0EE0FFF1FE85EFE4F808191810E9485
:10084000371AD7CF83E38C0F833198F661E08C2F72
:100850000E94D803CECF882381F19CEF980F913A64
:1008600028F40E94B41A0E94DE0B089590E2980FBB
:10087000983050F4877091E001C0990F8A95EAF79B
:10088000892F0E94580BEFCF9BE5980F933028F4E7
:1008900090E080E00E94121A089598E5980F9B312D
:1008A00028F490E080E00E94371A089593E3980FAF
:1008B000933118F460E00E94D80308951F93CF93FA
:1008C000DF93182FEB010E94E203209739F4812F68
:1008D0000E942B04DF91CF911F9108958FE99FE033
:1008E0000197F1F700C000002197EFCF70E060E0C2
:1008F000893311F460E570E00E945E040895882356
:1009000021F00E94520B0E94DE0B0895882321F0F3
:100910000E94580B0E94DE0B0895B0E0A0E0E3E9CE
:10092000F4E00C9416236C01D62FC72FFC0115811F
:10093000F680F2949FE0F9220E94480BE82E88236B
:10094000F9F0E12E1123E1F08C2F807F803461F0EB
:1009500080E28D0F883010F18C2F807E803221F460
:10096000D230E0F0FF20D1F08091560282FF16C015
:1009700082E00E94030C0E94480B91E0E82EE926D9
:10098000BC2EB2948FE0B822FBE0FB1508F468C0DF
:10099000EB2DF0E0EE53FC4D0C940023E12CF0CF56
:1009A0000C2F0F70C07F11F00295007F112399F07A
:1009B000002359F080E28D0F883010F0D11107C06C
:1009C000802F0E94520B0E94DE0B8D2F41C0802F82
:1009D0000E94620BF8CF8D2F0E942B04002309F494
:1009E0003FC080E28D0F883010F0D11104C0802FFD
:1009F0000E94580B03C0802F0E94680B0E94DE0BE0
:100A00002FC00C2F0F70C07FC03211F00295007FF5
:100A1000DD2381F0D13009F45FC0112309F46BC0EC
:100A2000FF2009F442C0F601868180FFCECF8F708F
:100A300086833BC08091560282FD33C0112359F05A
:100A4000002329F0802F0E94520B0E94DE0B80E0D1
:100A50000E94E20305C080E00E942B040111C7CF71
:100A6000EB2DE850FF0B349720F40E94EC190E9404
:100A70007403EE2089F00E94440B80FD0DC0F60146
:100A800015820E943E0B0E944407C6010E949306F5
:100A90000E943E0B0E945007CDB7DEB7E9E00C94F0
:100AA0003223112369F0F11004C0802F0E947F04CB
:100AB000D7CF21E0F212D4CF802F0E94860BD0CF67
:100AC000F110CECF802F0E948604802F0E94920BBF
:100AD000802F0E94760BC4CF112329F035E03F15FB
:100AE00008F4BECFE2CF84E08F1508F4B9CF802F91
:100AF0000E948604B5CFFF20D1F3D93349F4FFEF2C
:100B000027EE33E0F15020403040E1F700C0000014
:100B10008D2F0E942B04A4CF8C2F869586958370F1
:100B200069F0813009F09CCF8D2F9C2F93701111AB
:100B300002C080E090E00E94371A92CF8D2F9C2F48
:100B40009370111102C080E090E00E94121A88CFC9
:100B5000612F8D2F0E94D80383CF8C2F837079F55E
:100B600011117ECF4D2F429546954770440F440F8B
:100B70008D2F8F70042E01C0880F0A94EAF72D2F55
:100B80002071D4FF07C02FE030E001C0220F4A954A
:100B9000EAF72095C695C695C370822BC23049F0FE
:100BA00058F4C13019F00E9420075ACF0E941A074A
:100BB00057CF0E94260754CF0E94170751CF869522
:100BC000112311F08C2F8170882309F449CF4D2F08
:100BD000429546954770440F440F8D2F8F70042E19
:100BE00001C0880F0A94EAF72D2F2071D4FF07C0A7
:100BF0002FE030E001C0220F4A95EAF72095C69514
:100C0000C695C370822BC23049F058F4C13019F038
:100C10000E946F0725CF0E94690722CF0E947507A7
:100C20001FCF0E9432071CCFCF70112329F08C2FC9
:100C30000E9444078D2F3ACF8D2F0E9486048C2F5F
:100C40000E9450070DCFD23F51F160F4D03FB9F070
:100C5000D13F81F0112309F449C0F110B6CE8C2F99
:100C60008F7121C0D33F11F1D43FA1F7809156027B
:100C700082FD26C08C2F8F71112311F314C0112314
:100C800049F084E08F1508F4EBCE8C2F8F710E9411
:100C90005D07E6CE95E09F1508F4E2CEF6CF8C2FE7
:100CA0008F711111CDCF0E944407DACE112329F0A4
:100CB0008C2F8F710E943B07D3CE0E943707D0CE76
:100CC000112349F0CF718C2F0E94440763E08C2FD1
:100CD0000E94E50BC5CE81E00E94030CE1E0EF1518
:100CE00008F0BECE82E00E94030CBACEF11005CF10
:100CF0008C2F8F71A5CF0F931F93CF93DF93EC01B0
:100D0000688179818D810E9437088C010E947B0760
:100D10000E941607B801CE010E948D04DF91CF9189
:100D20001F910F910895CF93DF93EC018C8188235D
:100D300099F0CE010E94F402811111C00E94480B6B
:100D4000882351F08D81882339F08091560282FFEB
:100D500003C082E00E94030CDF91CF910895CE0181
:100D60000E947B06CE010E94C502F6CF90E080E093
:100D70000E94121A90E080E00E94371A0E946F0BC6
:100D80000E94DE0B0E94DC150E94C01508950E948F
:100D9000BC1A0E94B60608950E945F0B0E94C70607
:100DA000089592959F70963091F058F4925F9F70DD
:100DB000923058F4803F19F030F4883E30F481E0EE
:100DC00008959A5FF4CF843FD1F380E00895883E80
:100DD000B0F3813FD1F7F3CFFC012481222339F016
:100DE000808191810E942C080E94D106089580E0A4
:100DF0000895A6E0B0E0EFEFF6E00C941D232696F0
:100E0000E2E00C943923A7E0B0E0E9E0F7E00C94CD
:100E10001D232796E2E00C94392308950E940D07C4
:100E200008950E940E078093C501089508950E94B9
:100E3000110708959091C501892B0E94110708950B
:100E40009091C50189230E94110708959091C501D1
:100E500089270E94110708950E940D0708950E9496
:100E60002C0708950E942F078093C401089580E005
:100E70000E943207089591E001C0990F8A95EAF720
:100E8000892F0E943207089521E030E001C0220F2F
:100E90008A95EAF78091C401822B0E943207089557
:100EA00021E030E001C0220F8A95EAF72095809179
:100EB000C40182230E943207089521E030E001C07E
:100EC000220F8A95EAF78091C40182270E94320797
:100ED00008959091C401892B0E9432070895909142
:100EE000C40189230E94320708959091C401892783
:100EF0000E94320708950895CF93DF93282FFA01B7
:100F0000862F8770A1E001C0AA0F8A95EAF7CB016E
:100F100033E0969587953A95E1F763E070E00E949B
:100F2000DB22E80FF91F50E040E0822F90E0619152
:100F3000EF0121979C01042E02C0369527950A9453
:100F4000E2F72170219526272A23262728834F5F41
:100F50005F4F4330510559F7DF91CF910895FB0161
:100F6000A82FA77023E0969587952A95E1F763E06F
:100F700070E00E94DB22E80FF91F50E040E080E0C3
:100F8000219130E00A2E02C0369527950A94E2F7A7
:100F900021703327042E01C0220F0A94EAF7822B16
:100FA0004F5F5F4F4330510559F70895282F362F73
:100FB000943080F48C3070F4892F90E06CE070E015
:100FC0000E94DB22BC01620F711D42EB51E0832FB6
:100FD0000E947C070895282F943078F48C3068F4B0
:100FE000892F90E06CE070E00E94DB2262EB71E000
:100FF000820F911D0E94AF07089580E00895CF925F
:10100000DF92FF920F931F93CF93DF936C010091B8
:10101000C4018091C501082BC3E0D0E010E0FC2E94
:10102000C8010C2E02C0959587950A94E2F780FDC1
:101030000CC02197A0F7F12C8F2DDF91CF911F913C
:101040000F91FF90DF90CF900895B6018C2F0E94F2
:10105000030F019771F3F0CFCF93DF93EC010E9460
:10106000FF07BE010E94030FDF91CF9108951F93E8
:10107000CF93DF93EB019091B101992339F0CB012C
:101080000E942C08DF91CF911F910895882369F069
:10109000CB010E94FF07182F682FCE010E94D607B0
:1010A000BE01812F0E94030FEDCFCB010E94EB0701
:1010B000182FF6CFE1E0F0E0DF0102C0AA0FBB1F5E
:1010C0006A95E2F7BD01DF0102C0AA0FBB1F4A9576
:1010D000E2F76A2B01C0EE0F2A95EAF7962F9823C4
:1010E000961302C08E2B0895E0958E230895242F29
:1010F000462F682F8091C4010E945A080E9432072F
:101100000895CF93DF93C091C6018091C7018C13DE
:1011100003C0DF91CF910895D0E0CE0167E070E089
:101120000E94DB22FC01E853FE4F20813181428185
:1011300053816481758186810E9403072196C7705F
:10114000E4CF2091000230910102409102025091BF
:1011500003026091040270910502809106020E94D0
:1011600003070895CF93DF9380910602807F09F0F3
:101170004FC080910502882309F44AC02091C6011E
:101180004091C701A0910102B0910002C0910202FA
:10119000D09103024217E1F130E0C90167E070E04D
:1011A0000E94DB2288539E4FFC018481882399F1A1
:1011B000C90167E070E00E94DB22FC01E853FE4FAA
:1011C00081818A1328C080818B1325C0858181117C
:1011D00022C0828193818C1B9D0B883C9105D8F4A1
:1011E000809106028F70806180930602C90167E0DA
:1011F00070E00E94DB22FC01E253FE4F90819F7061
:101200009061908380E092E00E9493060E948108A2
:10121000DF91CF9108952F5F3F4F2770BBCFA82F4D
:10122000B62F2091C6014091C701241302C080E06F
:10123000089530E0C90167E070E00E94DB22FC0104
:10124000E853FE4F8181B81306C08081A81303C004
:1012500085818111EDCF2F5F3F4F2770E6CFA4E14D
:10126000B0E0E5E3F9E00C9413238C0186E0F8018B
:10127000DE011F9601900D928A95E1F7D801149630
:101280008C9114971596EC9090E0A92E92E0B92ECF
:101290009091040291111FC08823D1F0EE20A9F093
:1012A000C8010E94EC06F82E882379F087E0F80147
:1012B000D50101900D928A95E1F7C5010E94CF03F7
:1012C0000E94B2080E94A10861C0C8010E94930652
:1012D000FF24F3945BC0F801C080D18082809380AA
:1012E000F09005022091020230910302A401421BFA
:1012F000530BFF2009F402C1483C510508F0B5C06A
:10130000882309F443C09091010280910602282F9E
:10131000207F09F06AC0D91217C090910002C9124B
:1013200013C0E1104FC08F708061809306020E944D
:10133000A10880E092E00E94930680910602D80105
:1013400016968C93F12C22C0E1103CC06D2D8C2D93
:101350000E940F096D2D8C2D0E940F09E82E81111E
:10136000F1CFCF86D88A8F8598890E942C08292FA3
:1013700022952F70243078F49F702230A8F09923A2
:10138000B9F0F8019681907F99F4FE2C8F2D649628
:10139000ECE00C942F232A5F2F70223068F0C801F4
:1013A0000E949306EF2CF1CF992311F0882369F363
:1013B000805E883050F3F3CF803F38F3815F833015
:1013C00070F7E3CF8091060281608093060280E08F
:1013D00092E00E94930687E0E0E0F2E0DF011D92D8
:1013E0008A95E9F70E94A108ADCFD91213C0909158
:1013F0000002C9120FC0E1100DC08683C8010E940F
:10140000930687E0F801A0E0B2E001900D928A9582
:10141000E1F758CFC8010E94EC06882309F455CFA4
:10142000EE2009F452CF80910602803288F020919C
:10143000000230910102398728879B868A86909125
:1014400004029C871D868E87CE0108960E94930613
:1014500087E0F801A0E0B2E001900D928A95E1F7F3
:101460000E94B2080E94A10833CF90910602292F52
:10147000207F79F4682D9A8A898AA6017A899E2D1F
:101480000E94F90680E092E00E94930687E0D50171
:10149000A6CF882309F47ACF809101028D1110C064
:1014A00080910002C8120CC0E1100AC09683C801E6
:1014B0000E94930687E0D5011D928A95E9F766CFD1
:1014C000C8010E94EC06882309F4FFCEEE2009F43F
:1014D000FCCE80910602803208F4BACF209100023F
:1014E000309101023A8329839C828B82909104027D
:1014F0009D831E828F83CE010196A8CF483C510563
:1015000028F5882309F4E4CEFE2CEE2009F4DDCE84
:10151000809101028D110CC080910002C81208C098
:1015200087E0A0E0B2E001900D928A95E1F72ECF1E
:10153000C8010E94EC0681118BCF80910602816068
:1015400080930602C8010E94930620CF682D9A8AD4
:10155000898AA6017A899E2D0E94F90687E0F50105
:1015600011928A95E9F7AECEAEE0B0E0EAEBFAE090
:101570000C941D23288739874A875B876C877D8772
:101580008E87CE0108960E942F098823A9F06C85CA
:10159000662341F0288539854A855B857D858E8562
:1015A0000E9403078091C6019091C70189133EC034
:1015B0002E96E2E00C94392387E0FE013896DE0196
:1015C000119601900D928A95E1F78C85882351F34D
:1015D0008091C70190E09C012F5F3F4F2770332718
:1015E0004091C6014217130699F067E070E00E942F
:1015F000DB22DC01A853BE4F97E0FE01319601903B
:101600000D929A95E1F72093C7010E948108CACFF5
:101610000E94CC061092C7011092C60187E0E0E05C
:10162000F2E0DF011D928A95E9F7BCCF90E067E018
:1016300070E00E94DB2288539E4F0E942F0988236E
:1016400009F4B6CF8091C60190E067E070E00E9497
:10165000DB22FC01E853FE4F20813181428153811E
:101660006481758186810E9403078091C60190E0A4
:101670000196877099278093C60194CF80910F02BD
:10168000869586958695089580910F0287700895B6
:1016900090910F02977081E009F480E008958091A5
:1016A0001B02089590911B02892B80931B020895C1
:1016B000809590911B02982390931B02089510929D
:1016C0001B02089590911A02892B80931A020895A3
:1016D000809590911A02982390931A02089510927F
:1016E0001A02089508950E94720B089590911002B5
:1016F000292F282331F080958923809310020E949E
:10170000730B089508950E94820B08959091110221
:10171000292F2823281729F0982B909311020E9433
:10172000830B089590911102292F282331F0809581
:101730008923809311020E94830B089580911102E6
:10174000882329F01092110280E00E94830B0895F3
:101750000F931F93CF93DF9300910001109101012C
:10176000C0911B0280911A02C82B8091110288231C
:1017700031F0C82B0E945C1A81110E949E0BF80167
:10178000C083C0910001D091010148E050E067E0C2
:1017900072E0CE010E945823892B59F088E0FE01A7
:1017A000A7E0B2E001900D928A95E1F7CE010E9488
:1017B000F919DF91CF911F910F9108950E94A80B05
:1017C000089508950E94E10B08959091560292FFAA
:1017D00011C0982F990F990F990F962B90930F0284
:1017E0000E94440780910F028695869586950E94F7
:1017F000E20B08950E944407089510920F0280E0C2
:101800000E94E20B089590910F02809589238093A6
:101810000F02282F277069F4891759F0909156020A
:1018200092FF07C08695869586950E9450070E9474
:10183000FD0B08959091560292FB222720F928175C
:1018400069F080FB92F99093560280915502909135
:1018500056020E94630C82E00E94030C089580915E
:10186000560282FB882780F991E089270E941A0C92
:10187000089581E00E941A0C089580E00E941A0CDD
:1018800008956FEF7FEF90E080E00E94AA23089513
:1018900090E080E00E947623863E9E4F19F40E94DD
:1018A0009A18089580E0089582E090E00E946E23E7
:1018B000089583E090E00E946E23089584E090E014
:1018C0000E9476230895BC0184E090E00E94AA2340
:1018D0000895AB01BC018FE090E00E949E23089523
:1018E000AB01BC0183E190E00E949E23089560E07B
:1018F00070E0CB010E94700C089560E070E0CB01B5
:101900000E94690C0E94770C0895A8E0B0E0EBE813
:10191000FCE00C941D2366EE7EEF90E080E00E94D8
:10192000AA2360E082E090E00E948C2381E0809313
:10193000C50161E083E090E00E948C2360E074E1E7
:1019400084E090E00E94AA2360E086E090E00E949C
:101950008C236FEF87E090E00E948C2340E050E002
:10196000BA0188E090E00E949E2360E084E290E06B
:101970000E948C2360E087E190E00E948C2360E06D
:101980008CE090E00E948C2360E08DE090E00E946B
:101990008C2319821A821B821C821D821E821F8246
:1019A000188648E050E068E170E0CE0101960E94A0
:1019B0007C2340E050E0BA0180E290E00E949E2348
:1019C00080E00E94B3180E94E2180E947D0C2896C5
:1019D000E2E00C9439230E94850C0895682F8EE074
:1019E00090E00E948C230895A6E0B0E0EAEFFCE0CE
:1019F0000C941B230E94941B8C0180911C029091DB
:101A00001D028017910781F019821A820E94941B8F
:101A1000682F49815A81792F80E090E00E949F03CE
:101A200010931D0200931C022696E4E00C943723C9
:101A30000E94A01B60932A0270932B0280932C02B9
:101A400090932D02609326027093270280932802C0
:101A5000909329020895089508950E942B0D0895EA
:101A600008950E94300D089589EF9FE00E9499111A
:101A70000E942C0D0E942D0D089581E008950E9472
:101A80003D0D08950E943D0D0895089508950E940A
:101A9000450D0E94460D08950E9418100E94730380
:101AA00008950E948B1B0E94F2180E94F1100E9460
:101AB0004C0D0E94310D0895A6E0B0E0E2E6FDE095
:101AC0000C9411230E943F0D81110AC00E94F40C56
:101AD0000E94FE150E9486032696EEE00C942D23AC
:101AE0000E9407112EE1822E22E0922E640110E066
:101AF000F601E190F1906F01812F0E943B101F5F72
:101B0000143009F44BC0E816F90691F380912E02C7
:101B100081FD0E9444100E94420D782E10E0662440
:101B20006394812F0E943B107C01F401A190B1903D
:101B30004F018A159B0561F1A826BF2400E0CC2443
:101B4000C394D12CC5018C219D21892BC1F0772014
:101B5000B1F009831A830E94941B9C838B836D824E
:101B600021E0C7018C219D21892B09F420E04981C6
:101B70005A816B817C818D81922F0E949F030F5F20
:101B8000CC0CDD1C0C30F1F6F4013297F182E082CE
:101B90001F5F143031F60E94180D9ACFE816F9062F
:101BA00009F0B4CF93CF1F93CF93DF930E94080F18
:101BB000EC01C11580E5D807F0F5C11580E4D80720
:101BC00008F09EC0C03ED10520F5CD3CD10508F0FF
:101BD00084C0C83AD10578F4C53AD10508F075C07B
:101BE000C130D10519F1209709F1C430D105F0F4C5
:101BF000D0E0C0E01BC0C33CD105D0F7C85AD0E04C
:101C0000CC0FDD1FCF5ADE4F0990D881C02DD46490
:101C10000DC0C11580E2D80708F0D7C0C11581E01A
:101C2000D80708F05CC0C83ED10510F7CE01DF919F
:101C3000CF911F910895C03682E5D80728F5C034AA
:101C400082E5D80708F06DC0C03282E5D80708F0F9
:101C500061C0C11582E5D80708F49DC02C2F2695D8
:101C6000269530E085E0220F331F8A95E1F78C2F0F
:101C70008370C1E0D0E002C0CC0FDD1F8A95E2F78F
:101C8000C22BD32BDD68D2CFC03A82E5D80760F4EF
:101C9000C03882E5D80708F45BC0CF71D0E0DC2FF4
:101CA000CC27C46FD06AC2CFC03C82E5D80708F405
:101CB00066C0C03E82E5D80708F09ACFDC2FCC275B
:101CC000CC27DF71C06FD06AB1CFC55AD0E0C957F9
:101CD000DE4FC881D0E0D064A9CFD065A7CF8D2FCB
:101CE0000E94AA0F182FCE0199270E94080FC12F1A
:101CF000D0E0DC2FCC27CC27DF71C82BD92B96CF97
:101D0000CE0199270E94080FCC27DF70C82BD92B52
:101D1000D06A8CCFCF71D0E0DC2FCC27C16FD06AD6
:101D200085CF2C2F26952695277030E0B5E0220F21
:101D3000331FBA95E1F78C2F8370C1E0D0E002C069
:101D4000CC0FDD1F8A95E2F7C22BD32BDC686ECF58
:101D50002C2F26952695277030E0A5E0220F331F03
:101D6000AA95E1F78C2F8370C1E0D0E002C0CC0FC0
:101D7000DD1F8A95E2F7C22BD32BDA6857CF8C2F61
:101D80008F710E94AA0FC82FD0E0DC2FCC27CC2760
:101D9000DF71D0624BCF8C2F8F710E94AA0F55E05C
:101DA000D695C7955A95E1F7CF70D0E0DC2FCC27B8
:101DB000282F30E084FF05C044E0220F331F4A95EE
:101DC000E1F7C22BD32BD06931CF8D2F8F710E94B9
:101DD000AA0F182FCE0199270E94080FC12FD0E01B
:101DE000DC2FCC27CC27DF71C82BD92BD2CF462FA5
:101DF000743030F46C3020F4672F0E945D12089527
:101E000090E080E008950E94F70E0E94D30D08959F
:101E100082389105B9F1B0F48133910509F47DC0A0
:101E200048F48932910509F46DC08A32910509F4AC
:101E30007BC008958533910509F45FC0893391050E
:101E400009F10895833E9105D9F138F4803E91055A
:101E500029F1823E910579F10895863E9105D9F1E7
:101E6000873E910509F43EC0843E910541F52091DD
:101E7000560221FF24C08091550284FD19C087EECF
:101E800090E0089520915502237009F05AC02091E6
:101E9000560223FF14C089E290E008952091550274
:101EA00020FD38C03091560230FF09C024FF43C0E6
:101EB00090E080E008952091550222FDF7CF08952B
:101EC0002091550222FD3AC03091560230FD39C0B2
:101ED00024FFF5CFEDCF2091550223FFF0CF24FD55
:101EE000E7CFCDCF2091550223FD2EC03091560271
:101EF00031FFEECF84EE90E008952091550225FF4A
:101F0000DECFC9CF2091550225FD21C02091560278
:101F100023FFD5CF89E390E0D2CF2091550226FF51
:101F2000CECF8AE290E008952091550226FFC7CFD8
:101F300081E390E0089583EE90E0089582EE90E0D2
:101F4000089580EE90E0089586EE90E0089585E390
:101F500090E008959091550292FF10C041E0282F23
:101F60002471243009F040E031E0282F2871283016
:101F700009F030E0431711F02CE0822793FF10C0E6
:101F800041E0282F2471243109F040E031E0282F6E
:101F90002871283109F030E0431711F02CE0822736
:101FA0003091560230FF10C051E0282F21712130AE
:101FB00009F050E041E0282F2871283009F040E076
:101FC000541711F029E0822731FF10C041E0282F7B
:101FD0002171213109F040E031E0282F28712831AA
:101FE00009F030E0431711F029E0822794FD877E45
:101FF000089580E008950E94410C08950E94071101
:102000002FEF86E791E0215080409040E1F700C03B
:1020100000000E94071180E00E943B1080FF04C076
:102020000E94FB0F0E94DF1B08950E94FE0F08957F
:102030000E94480C811102C00E94EB0C0E94540CBB
:1020400080932E020E945E0C90935602809355025C
:102050000E9415100E94590C0E9417078091C4011C
:102060000E942F07089508950E943310089508953F
:102070000E9437100895E82FF0E0EE0FFF1FE15A9D
:10208000FD4F808191810895089580EA8A95F1F746
:10209000089500C008950E9445100895F894E82F0F
:1020A000E295EF70F0E031A1282F2F7081E090E0F1
:1020B00001C0880F2A95EAF7982F9095932391A352
:1020C00092A1892B82A378940895CF93DF9382E91C
:1020D0000E944E1085E90E944E1084E90E944E1025
:1020E00083E90E944E10CAE8D1E089918F3F11F038
:1020F0000E944E1081E0C639D807B9F7DF91CF9121
:102100000895AF92BF92DF92EF92FF920F931F93C9
:10211000CF93DF938C01D62EC62FD0E0CE018A5606
:102120009E4F7C01FC0120812F3F09F44DC0F894A3
:10213000E22FE295EF70F0E031A12F7081E090E0A6
:1021400001C0880F2A95EAF7932F982B91A392A1AB
:102150008095892382A378940E944910EAE8F1E0EF
:1021600046E951E021E030E0B12CA12C61916F3FB4
:10217000A9F1A62FA295AF70B0E090968C9190E057
:102180006F7002C0959587956A95E2F780FD26C02D
:10219000C901A82AB92A220F331F4E175F0731F74A
:1021A000F70180818F3F11F00E944E1061E0A11471
:1021B000B10409F460E08D2D0E944B10CC0FDD1F9F
:1021C000C00FD11FB982A882DF91CF911F910F91CB
:1021D000FF90EF90DF90BF90AF90089590E080E087
:1021E000D8CF0E94651088E0EFE5F2E0DF01982F7C
:1021F0001D929A95E9F7E7E5F2E0DF011D928A95D5
:10220000E9F784E00E9442110E9434100895A8E08A
:10221000B0E0EDE0F1E10C941A238E010F5F1F4F47
:1022200088E0F80111928A95E9F7F12C6F2DC80129
:102230000E948110F394F4E0FF12F8CF48E050E0E0
:10224000B80187E592E00E94582321E0009709F445
:1022500020E0892B41F088E0F801A7E5B2E0019089
:102260000D928A95E1F744E06FE572E087E592E030
:102270000E944311182F0E943810812F2896E5E004
:102280000C9436230895B0E0A0E0E9E4F1E10C9469
:1022900017236C017B01042FC22F222379F081E0E8
:1022A000809331020E94941B9093300280932F02FE
:1022B00080E0CDB7DEB7E8E00C943323D091310253
:1022C000DD23B1F380912F02909130020E94AC1B6C
:1022D000059770F310E0000F111FA801B601C701A8
:1022E0000E945823892B31F0A801B601C7010E9432
:1022F0006523CD2F109231028C2FDBCF0E946B1DF6
:102300000E94510D0E94781D08950E947D1D0E941B
:102310005C0D0E94971D08950E94331B0E94511D61
:102320000E94340D0E947E110E9485110E94470D6B
:10233000FBCF9093AB018093AA01089584E00895A8
:10234000E82F862F90E068E170E00E94DB22242FC6
:1023500030E0220F331F280F391F8E2F90E060E6E8
:1023600070E00E94DB22820F931F899608950F93DD
:102370001F93CF93DF938430C8F46430B8F44C30AB
:10238000A8F40E94A0118C010E946E23C82FD0E0F7
:10239000DC2FCC27C80101960E946E239E01282BBA
:1023A000C901DF91CF911F910F91089590E080E0D6
:1023B000F8CF0F931F93CF93DF93122F032F843007
:1023C00078F4643068F44C3058F40E94A011EC01A9
:1023D000602F0E948C23612FCE0101960E948C23D6
:1023E000DF91CF911F910F9108951F93CF93DF93AA
:1023F000D0E0C0E011C0412F6C2F8D2F0E944D0204
:102400009C01412F6C2F8D2F0E94D9111F5F1C3012
:1024100091F7CF5FC43011F010E0EDCFDF5FD43023
:1024200041F7DF91CF911F910895EF92FF920F93A3
:102430001F93CF93DF93EC018A017C01E60EF71E18
:10244000CE018996CE15DF0529F4CDB7DEB7E6E0DB
:102450000C943523C03821E0D20740F40E946E234B
:10246000F80180830F5F1F4F2196EACFF801108299
:10247000F9CFB0E0A0E0EFE3F2E10C9417237C0188
:102480006A018C01060F171FEC01CE018996C01757
:10249000D10729F4CDB7DEB7E8E00C943323C03878
:1024A00021E0D20740F4FE01EE19FF09EC0DFD1DFD
:1024B00060810E948C232196E8CF843038F4643008
:1024C00028F44C3018F40E94B711089590E080E091
:1024D000089580E1089587E592E00895EF92FF92D4
:1024E0000F931F93CF93DF93EC018A017C01E60EDB
:1024F000F71ECE0187559E4FCE15DF0529F4CDB7C7
:10250000DEB7E6E00C943523C73522E0D20740F46D
:102510000E946E23F80180830F5F1F4F2196E9CF41
:10252000F8011082F9CFB0E0A0E0E9E9F2E10C9403
:1025300017237C016A018C01060F171FEC01CE01E5
:1025400087559E4FC017D10729F4CDB7DEB7E8E015
:102550000C943323C73522E0D20740F4FE01EE1974
:10256000FF09EC0DFD1D60810E948C232196E7CFB1
:10257000CF93DF93C9EAD1E060E0CE010E948C23C3
:102580002196C11584E0D807B9F7DF91CF9108955E
:10259000A8E0B0E0EEECF2E10C941523F82E8FE009
:1025A0008F1508F46EC08FEF93E00E946E238111A7
:1025B00068C009EA11E0F11035C0FE0131966F01E3
:1025C00088E011928A95E9F77801FFEFEF1AFF0A88
:1025D000C8010E946E2389831A82882309F451C09E
:1025E0008130D1F4580182E0A80EB11CC7010E94CD
:1025F0006E238A83882309F444C09FEF980F933099
:10260000F0F4780193E0E90EF11CC5010E946E23FD
:102610008B838823B1F11C8260E0C6010E944717BA
:102620008701D2CF011594E0190759F1C8010E9422
:102630006E23811101C0FA940F5F1F4FBCCF75014B
:10264000843051F702E010E07501EFEFEE1AFE0A58
:10265000C5010E946E23F601E00FF11F80838823DD
:1026600081F08C3741F4E2E0F0E0EC0FFD1FE00F69
:10267000F11F1082D1CF0F5F1F4F57010730110597
:1026800019F72896EAE00C943123CF93DF93EB01FE
:1026900086319C4711F50E944F0B9D81992399F03B
:1026A0008A7A91E009F490E090933202811109C096
:1026B00089E20E94AC1A0E94DE0B80E0DF91CF918C
:1026C000089585E3F6CF80913202811104C089E23A
:1026D0000E94B41AF0CF85E3FBCF81E0EFCFCF9318
:1026E000DF93EC01FB018581882309F4D2C09E01B0
:1026F00030572332310508F0B2C00E945E0C90932F
:10270000560280935502FE01E150F047E232F10596
:1027100020F4E253FC4D0C9400238091550281601B
:102720008093550293C08091560288608093560230
:102730008DC0809155028260F3CF809155028460F4
:10274000EFCF809155028860EBCF80915602816077
:10275000EDCF809156028260E9CF80915502806171
:10276000DFCF809155028062DBCF8091550280647B
:10277000D7CF0E94CC06809155028068D1CF80913E
:1027800055028C60CDCF809156028360CFCF80916F
:1027900055028E7FC5CF80915602877FC7CF80912B
:1027A00055028D7FBDCF809155028B7FB9CF80912F
:1027B0005502877FB5CF809156028E7FB7CF80912B
:1027C00056028D7FB3CF809155028F7EA9CF809125
:1027D00055028F7DA5CF809155028F7BA1CF0E949E
:1027E000CC06809155028F779BCF80915502837FD5
:1027F00097CF809156028C7F99CF8091550282FBB2
:10280000992790F921E0922790FB82F990FB83F9B8
:1028100087CF80915602982F909591708E7F892B4B
:1028200090FB81F983CF90915502892F8F7B96FF82
:10283000806476CF0E94CC0690915502892F97FB39
:1028400087F980586DCF81E00E94EE0C809155028F
:10285000909156020E94630C0E94CC0680E0DF91AA
:10286000CF91089580E0F0CF90915502892F8F7E0F
:1028700094FF806155CF90915502892F8E7F90FFF4
:1028800081604ECF90915602892F877F93FF886099
:102890004DCF81E0E4CF082E000C990B65EB70E082
:1028A0000E94DB2297FF04C080589109892F089568
:1028B00080589F4FFBCF8091390280FF0DC06091FF
:1028C000070170E0660F771F60387105A8F5611584
:1028D0007105A1F1862F089581FF08C0609107015D
:1028E00070E0660F771F660F771FEECF60910701CC
:1028F00070E082FD0BC0809138028823D1F02091D6
:1029000006016091070170E0821730F043E0660F26
:10291000771F4A95E1F7D8CF90E00E94DB2233E0A1
:10292000880F991F3A95E1F7622F70E00E94EC2220
:10293000CBCF68E070E0CECF8FE7089581E00895B7
:102940008091390280FF0CC06091030170E07595A1
:102950006795759567956115710559F1862F0895ED
:1029600081FF06C06091030170E075956795F3CF14
:102970006091030170E082FD0CC060913702662314
:10298000A9F0209102018091030190E0621730F0DC
:10299000BC0160387105F8F28FE7089570E00E947D
:1029A000DB22622F70E00E94EC22F3CF61E070E046
:1029B000D5CF81E0089590913C0220913D02922B69
:1029C00020913F02922B20913E02922B31F098E011
:1029D0009093380291E0909337028D3C31F40E943D
:1029E0005B14819580933D0208958E3C19F40E94FA
:1029F0005B14F8CF8F3C31F40E945B148195809377
:102A00003C020895803D19F40E945B14F8CF893D83
:102A100029F40E94A01480933E0208958A3D21F477
:102A20000E94A0148195F7CF8B3D31F40E94A01431
:102A3000819580933F0208958C3D19F40E94A01463
:102A4000F8CF9FE2980F983070F4815D990B21E0E8
:102A500030E001C0220F8A95EAF780913B02822B79
:102A600080933B0208958D3D31F48091390281605D
:102A70008093390208958E3D21F48091390282605D
:102A8000F7CF8F3DB9F7809139028460F1CF409143
:102A90003C028D3C59F480913D0287FF0DC010929D
:102AA0003D0241110BC01092380208C08E3C81F4E7
:102AB00080913D0218169CF3442381F080913E02E0
:102AC00090913F02892B09F05AC010923702089565
:102AD0008F3C49F447FFF0CF10923C0280913D02B9
:102AE0008111ECCFE0CF803D19F41416ACF3E4CFA4
:102AF00090913E02893D29F41916F4F610923E0297
:102B0000DBCF8A3D19F497FFD7CFF8CF90913F02E2
:102B10008B3D29F497FFD0CF10923F02CDCF8C3D53
:102B200019F41916CCF3C8CF9FE2980F983090F49F
:102B3000815D990B21E030E0B90102C0660F771F7B
:102B40008A95E2F7CB01809590913B02892380938F
:102B50003B02B2CF8D3D31F4809139028E7F80935C
:102B60003902AACF8E3D21F4809139028D7FF7CFB3
:102B70008F3D09F0A1CF809139028B7FF0CF08956E
:102B80000E94941B9C0190913C0280913D02982BE5
:102B900021F0309336022093350290913E028091CD
:102BA0003F02982B21F030933402209333028AE3C2
:102BB00092E00E94041A089586E0EAE3F2E0DF0161
:102BC0001D928A95E9F710923802109237021092FE
:102BD00039020895FC01828181110EC08381811127
:102BE0000BC08481811108C091E08581811101C0F1
:102BF00090E0892F8170089581E0FCCFA6E0B0E0DD
:102C0000E4E0F6E10C941C2386E0EAE3F2E0DE0166
:102C1000119601900D928A95E1F710923C02109264
:102C20003D0210923E0210923F028B819C81892BC3
:102C300089F080913502909136020E94AC1BFC0114
:102C4000209138022223C9F1809108018E171F06B6
:102C500008F441C08D819E81892B91F080913302CF
:102C6000909134020E94AC1BFC0120913702222378
:102C700009F469C0809104018E171F0608F472C020
:102C8000BE016F5F7F4F8AE392E00E94C71A8111F5
:102C900005C08AE392E00E94EA1581110E94C015E6
:102CA00086E0FE013196AAE3B2E001900D928A958A
:102CB000E1F72696E3E00C9438238091090190E037
:102CC0006AE070E00E94DB228E179F0718F62F5FE4
:102CD0002093380202C02F3FD1F71B81112351F0FE
:102CE0000E945B146FEF11160CF461E00E94D22277
:102CF00080933C021C81112351F00E945B146FEF02
:102D000011160CF461E00E94D22280933D02809162
:102D10003C02882309F49ECF10913D02112309F44F
:102D200099CF0E944B14882351F080933C02812F4D
:102D30000E944B14882329F080933D028BCF81E0C1
:102D4000F4CF81E0F9CF8091050190E06AE070E076
:102D50000E94DB228E179F0708F092CF2F5F2093EF
:102D6000370202C02F3FD1F71D81112351F00E947D
:102D7000A0146FEF11160CF461E00E94D222809330
:102D80003E021E81112351F00E94A0146FEF111614
:102D90000CF461E00E94D22280933F0280913E02B7
:102DA000882309F46DCF10913F02112309F468CFF5
:102DB0000E944B14882351F080933E02812F0E9481
:102DC0004B14882329F080933F025ACF81E0F4CF3F
:102DD00081E0F9CFB0E0A0E0E0EFF6E10C94182339
:102DE000E82FF0E0EC50FE4FD490282F2695269542
:102DF000269530E0F901EC56FD4F0491877010E004
:102E0000082E02C0159507950A94E2F70170112764
:102E1000F901EC57FD4FE490F12C082E02C0F59417
:102E2000E7940A94E2F791E0E922FF24F901EC58D3
:102E3000FD4FC491D0E002C0D595C7958A95E2F7C1
:102E4000C170DD270115110519F081EE0E94E20322
:102E5000E114F10419F086EE0E94E2038D2D0E9428
:102E60007604E114F10419F086EE0E942B0401159A
:102E7000110519F081EE0E942B04CD2B19F08CE284
:102E80000E947604CDB7DEB7E7E00C943423EF92CE
:102E9000FF921F93CF93DF93EC01162F8881882335
:102EA00009F451C0813009F04BC08981813099F417
:102EB0007E0122E0E20EF11C8A810E947604E70185
:102EC0002196812F815050F3EFE9FFE03197F1F720
:102ED00000C00000F7CF823041F47E0182E0E80EAE
:102EE000F11C8A810E94E203EACF833041F47E0123
:102EF000E2E0EE0EF11C8A810E942B04E0CF8430C8
:102F000011F02196DDCF2A81229690E080E0FE012B
:102F100031962053330B2A30310548F0019780F267
:102F2000EFE9FFE03197F1F700C00000F7CF6AE06A
:102F300070E00E94DB22820F931F2981EF01E7CF0F
:102F40000E94EA16BDCFDF91CF911F91FF90EF90C5
:102F500008950F931F93CF93DF93C42FD22FFC01BB
:102F600085818823C9F0409342020E94941B90936C
:102F700041028093400280E28C0F883040F4C77099
:102F800081E001C0880FCA95EAF70E947F04DF91B3
:102F9000CF911F910F91089510914202141332C0E6
:102FA00080914002909141020E94AC1B883C9105A7
:102FB00048F5C0E2CD0F1D17B9F080E2810F8830CF
:102FC00040F4177081E001C0880F1A95EAF70E945B
:102FD0008604C83048F481E09D2F977001C0880FA7
:102FE0009A95EAF70E947F04802F0E947604C830E9
:102FF00070F6D77081E001C0880FDA95EAF70E9479
:103000008604C5CF80E28C0F883008F6C77081E057
:1030100001C0880FCA95EAF7F2CF0F93DB01885100
:103020009C4787309105A0F5FC01E051FC4D0C94C4
:10303000002306E221EE41EE6AE17CE7CD010E9429
:10304000A91780E00F91089507E225EE45EE6BE1A8
:103050007CE7F4CF06E221EE40EE68E17CE7EECFBC
:1030600007E225EE44EE69E17CE7E8CF06E221EED7
:1030700042EE6CE17CE7E2CF07E225EE46EE6DE141
:103080007CE7DCCF08E221E045EE6EE17CE7D6CFBD
:1030900015968C91882319F010924202D3CF81E0CB
:1030A000D1CF1F93CF93DF9387372CE7920759F047
:1030B000C1E088379C47E1F4FB01C581CC2371F165
:1030C0000E94941806C0FB01C581CC23B1F00E9478
:1030D00091180E9444070E949718D82F0E949418B4
:1030E000C82F0E9491184D2F6C2F0E947708C0E0C6
:1030F0008C2FDF91CF911F9108950E9491180E940B
:1031000050070E949718182F0E949418D82F0E94D9
:103110009118412F6D2F0E947708EACF0E949418D2
:10312000EECF80910C01089580910B01089580915C
:103130000A01089585E290E00E946E23843289F4AA
:1031400086E290E00E946E23813059F487E290E09D
:103150000E946E2391E0883109F090E0892F817000
:10316000089580E0FCCFCF93C82F6FEF811164E208
:1031700085E290E00E948C236FEFC11161E086E24E
:1031800090E00E948C236FEFC11168E187E290E02C
:103190000E948C23CF910895089588E290E00E94C8
:1031A0006E23682F70E090E080E008950895CF933B
:1031B000C62F0E94D6186C2F88E290E00E948C23C4
:1031C000CF91089580E00E94B31860E070E0CB01D9
:1031D0000E94D7180E94F5110E94B81281E00E9447
:1031E000B31808950E94CC180E94CD180E94D618DA
:1031F0000E949A18811102C00E94E2180895089551
:103200009C01FB018581882351F0A9015757403863
:10321000510530F4822F0E94C81280E0089581E0A9
:1032200008952FEFFC01208308950E94111908953D
:1032300080E00895B0E0A0E0E0E2F9E10C9417230B
:10324000EC01C62E0E941819811110C0E881E150CE
:10325000E331B8F4F0E0E950FC4D0C9400231982FE
:103260008CE08A836C2DCE010E94581CCDB7DEB74E
:10327000E8E00C94332389818230C1F028F4813056
:1032800061F08FEF8883EECF833099F08430C9F7F7
:103290001A821B821C821D82E5CF0E94A01B0E9405
:1032A00006236A837B838C839D83DCCF0E94CD18A9
:1032B000F6CF8A81082F10E07E019EE0D92ED80E2D
:1032C0000430110578F6802F0E943B10F70193839C
:1032D00084830F5F1F4FF2E0EF0EF11CD012F0CF8E
:1032E000C1CF8981823031F0853059F68A810E94C0
:1032F000FF18B8CF6A817B818C819D810E94062353
:103300000E94D718AFCF4B816A8189810E94B71183
:103310009827892798279D838C83A4CF2C813D8172
:103320003227232732274B816A8189810E94D91154
:1033300099CF0E94F51196CF6C2DCE010E941519E0
:1033400091CF0E94691289838DCF0E946B129827BA
:10335000892798279A83898385CF6B8170E089813B
:103360009A81AE014C5F5F4F9827892798270E946A
:103370006E1278CF6B8170E089819A81AE014C5FCB
:103380005F4F9827892798270E9493126BCF0E943E
:10339000B81268CF0E949E11D6CF6B8170E08981F0
:1033A0009A81AE014C5F5F4F9827892798270E942A
:1033B000151258CF6B8170E089819A81AE014C5F04
:1033C0005F4F9827892798270E9439124BCF9093F7
:1033D0004802809347020895E0914702F091480225
:1033E000309729F00190F081E02D0995089580E053
:1033F0000895E0914702F0914802309721F0028051
:10340000F381E02D09950895E0914702F09148027B
:10341000309739F022E0DC012C930680F781E02D13
:1034200009950895A3E0B0E0E8E1FAE10C941D23CA
:10343000209145023091460228173907A1F0909358
:10344000460280934502E0914702F091480230978E
:1034500051F023E029839B838A830084F185E02D4A
:10346000CE01019609952396E2E00C943923A3E05E
:10347000B0E0EDE3FAE10C941D232091430230917A
:10348000440228173907A1F0909344028093430225
:10349000E0914702F0914802309751F024E02983EF
:1034A0009B838A830084F185E02DCE0101960995E6
:1034B0002396E2E00C9439234091000150910101E0
:1034C0009A012E5F3F4F485F5F4F80E0241735071A
:1034D00009F40895F90191919F019923B9F38F5F40
:1034E000F5CF882371F02091000130910101F9019D
:1034F0003296285F3F4F9191981729F0E217F30712
:10350000D1F780E0089581E008959C01FC01329696
:103510009FEF80E04191461751F09F3F19F4411110
:1035200001C0982F8F5F8630A9F79F3F09F4089557
:10353000290F311D97FD3A95F90162830895FC0129
:10354000329608962191261303C0DF0111971C9231
:10355000E817F907B9F70895682F80910001909155
:1035600001010E94851A0895682F809100019091B1
:1035700001010E949F1A0895E0910001F09101015C
:10358000329686E0DF011D928A95E9F70895DC0105
:10359000FB0111969C9111978181981322C012967C
:1035A0008C911297882319F0928189131AC013966F
:1035B0008C911397882319F09381891312C0159663
:1035C0008C911597882319F0958189130AC0149658
:1035D0009C91992321F081E02481291303C080E08C
:1035E00001C081E08170089508950E94F41A089541
:1035F000811106C081E0809349020E94F51A089566
:1036000082E0F9CF83E0809349020E94F51A089581
:103610000E94F81A089581E0809349020E94F51AE9
:1036200008950E940B1B0895089508950E94151B8C
:103630000895089508950E94141B0895CF930E9441
:10364000191B0E9407110E941A1BC0E08C2F0E94B8
:103650003B10892B31F4CF5FC430C1F780E0CF91AC
:10366000089581E0FCCF08951F921FB61F92112488
:103670008F939F93AF93BF9380914A02811113C0A0
:103680008091670290916802A0916902B0916A02EC
:103690004196A11DB11D8093670290936802A0938B
:1036A0006902B0936A02BF91AF919F918F911F9071
:1036B0001FBE1F90189580916F02843031F10E94D7
:1036C000560310924A0288E190E020E40FB6F89485
:1036D000A895809360000FBE2093600083B7817F20
:1036E000846083BF83B7816083BF7894889583B7F4
:1036F0008E7F83BF0FB6F894A89580916000886193
:1037000080936000109260000FBE08950E94CC0666
:103710000E945B03089582E084BD93E095BD9AEF1B
:1037200097BD80936E0008952FB7F894809167023B
:1037300090916802A0916902B0916A022FBF08952A
:103740002FB7F894609167027091680280916902C6
:1037500090916A022FBF08959C014FB7F894809111
:10376000670290916802A0916902B0916A024FBF0E
:10377000821B930B089578941F921FB61F921124F9
:103780008F939F93AF93BF9380916702909168024C
:10379000A0916902B0916A020196A11DB11D8093AA
:1037A000670290936802A0936902B0936A02BF9186
:1037B000AF919F918F911F901FBE1F90189581E030
:1037C0008093E00080E28093D8001092C9008FE1DE
:1037D0009EE40197F1F700C0000087E090EBDC0168
:1037E0008093780290937902A0937A02B0937B023F
:1037F00088E19CE00FB6F894A895809360000FBE16
:1038000090936000FFCF88E19CE00FB6F894A895F4
:10381000809360000FBE90936000FFCF80915302B1
:10382000089508959B01BA0190916F029430E9F4D4
:103830008F708093E9009FEF8091E800915085FDA3
:1038400006C085ED8A95F1F700009111F5CF8091C2
:10385000E80085FF0AC050E040E0C9010E943B1E1D
:103860008091E8008E778093E800089543E050E06F
:10387000BC0184E00E94121C089546E050E0BC01A7
:1038800084E00E94121C0895CF93DF93EC0148E07E
:1038900050E0BC0181E00E94121C88E0FE01ABE414
:1038A000B2E001900D928A95E1F7DF91CF910895F2
:1038B000603231F440E250E0BC0182E00E94121C10
:1038C00008950E940B1B089560916B0281E06111C5
:1038D00001C080E00E94021B089590916F0281E078
:1038E000943009F080E060916B020E94081B0895FB
:1038F00042E061EC81E00E94921F42E261EC84E0D0
:103900000E94921F42E261EC82E00E94921F42E21A
:1039100060EC83E00E94921F90916F0281E09430EE
:1039200009F080E060916B020E94F81A089580917E
:103930007102833009F461C030F48130D1F18230FA
:1039400009F49EC008958A3009F48AC08B3009F4C6
:103950006FC0893009F050C080917002813209F047
:103960004BC08091740290917502009719F00297F4
:1039700009F042C08091E800877F8093E800809141
:10398000E80082FF35C08091F200823031F48091EE
:10399000F100813011F0863021F48091F1008093A4
:1039A00053028091E8008B778093E8000E94C61F45
:1039B00023C080917002813AF9F48091E800877FFA
:1039C0008093E8008091740290917502892B61F4D4
:1039D00068E08BE492E070E00E94D91E8091E800DC
:1039E0008B778093E800089560E090E080E0F3CF6B
:1039F00080916F028111C3CF089580917002813A46
:103A0000D9F78091740290917502892BA9F7809162
:103A1000E800877F8093E8008091E80080FFFCCF7A
:103A2000809117018093F1008091E8008E77BCCFE0
:103A300080917002813201F7809174029091750239
:103A4000892BD1F68091E800877F8093E8000E945F
:103A5000C61F80917202809317010E94CC060895C0
:103A600080917002813241F68091E800877F8093D7
:103A7000E8000E94C61F809173028093540208954B
:103A800080917002813A09F0B7CF8091E800877F7A
:103A90008093E8008091E80080FFFCCF8091540281
:103AA000C1CF84B7877F84BF0FB6F894A895809163
:103AB0006000886180936000109260000FBE80E813
:103AC00090E00FB6F89480936100909361000FBE70
:103AD0000E94111B08950E9416200E946920E2EEA8
:103AE000F0E080818460808378940E94B7220895FA
:103AF0008DE091E00E94E719089580916F02853072
:103B000031F480916F02853019F00E94861B089570
:103B10000E945B1B80916D02882399F30E941E1BFB
:103B2000882379F30E94251E0E94CC06EACFA0E2EA
:103B3000B0E0EDE9FDE10C941D2380916F0284302B
:103B400009F583E08093E9008091E80082FF1AC0C4
:103B50008091E80090E085FF09C050E040E060E21D
:103B600070E0CE0101960E948A1E91E08091E800EB
:103B70008B778093E800992329F060E2CE010196CB
:103B80000E941A19A096E2E00C9439239A01409100
:103B90007602509177020E94CE1D0895492F552735
:103BA0004330510521F168F44130510509F443C017
:103BB0004230510509F444C090E080E050E040E01C
:103BC00026C04132510551F142325105A9F7633007
:103BD000710590F7FB01EE0FFF1FE356FE4F40818A
:103BE000518166567E4FFB01808190E010C099277D
:103BF0008130910581F0009729F00297E9F6E4EA17
:103C0000F2E002C0E4EDF2E0849190E0AF01F9014E
:103C1000518340830895EAEBF2E0F6CF63307105FB
:103C200058F6660F771FFB01ED55FE4F408151811D
:103C300089E090E0ECCF82E190E043E353E0E7CF0E
:103C40008BE590E048ED52E0E2CF84E089BD86E06C
:103C500089BD09B400FEFDCF8091D8008F7D80938F
:103C6000D8008091E00082608093E0008091E000C5
:103C700081FDFCCF0895AF92BF92CF92DF92FF9269
:103C80000F931F93CF93DF936C01EB018A010E9486
:103C9000E51FF82E811123C00115110539F0F80137
:103CA00080819181C81BD90BC80ED91EB12CA12CC3
:103CB0002097A9F08091E80085FD22C08091E8005E
:103CC0008E778093E80001151105A1F0F80180813D
:103CD0009181A80EB91EB182A08285E0F82E8F2DA9
:103CE000DF91CF911F910F91FF90DF90CF90BF9008
:103CF000AF9008950E94E51F8823D1F2F82EEFCFF0
:103D0000F60181916F018093F1002197FFEFAF1AC7
:103D1000BF0ACECFAF92BF92CF92DF92FF920F93A6
:103D20001F93CF93DF936C01EB018A010E94E51F83
:103D3000F82E811123C00115110539F0F801808199
:103D40009181C81BD90BC80ED91EB12CA12C20976C
:103D5000A9F08091E80085FD22C08091E8008B7772
:103D60008093E80001151105A1F0F801808191818F
:103D7000A80EB91EB182A08285E0F82E8F2DDF91AA
:103D8000CF911F910F91FF90DF90CF90BF90AF9098
:103D900008950E94E51F8823D1F2F82EEFCF80917D
:103DA000F100F60181936F012197FFEFAF1ABF0A6F
:103DB000CECFFC018091760290917702861797070B
:103DC000A0F06115710529F49091E8009E77909319
:103DD000E80090E06115710551F4911108C08091DF
:103DE000E80082FF32C080E00895BC01F2CF8091EC
:103DF0006F028823B1F18530B1F18091E80083FD35
:103E00002EC08091E80082FDEACF8091E80080FF1B
:103E1000E1CF2091F20030E06115710519F02830F2
:103E2000310558F091E02830310509F090E02091FB
:103E3000E8002E772093E800CDCF81918093F100A8
:103E4000615071092F5F3F4FE7CF80916F02882348
:103E500041F0853041F08091E80083FFC0CF81E0E0
:103E6000089582E0089583E00895FC018091760230
:103E70009091770286179707A0F06115710529F4D4
:103E80008091E8008E778093E80090E061157105DD
:103E900051F4911108C08091E80082FF33C080E0A6
:103EA0000895BC01F2CF80916F028823B9F185306B
:103EB000B9F18091E80083FD2FC08091E80082FD78
:103EC000EACF8091E80080FFE1CF2091F20030E05E
:103ED0006115710519F02830310558F091E028304E
:103EE000310509F090E08091E8008E778093E8003A
:103EF000CDCF84918093F1003196615071092F5F8D
:103F00003F4FE6CF80916F02882341F0853041F02A
:103F10008091E80083FFBFCF81E0089582E008959B
:103F200083E00895982F953028F08F708093E900F2
:103F300081E008959093E900242F762F50E09817A0
:103F400031F07091EC002091ED005091F00021FDD6
:103F500002C09F5FE8CF3091EB003E7F3093EB00D3
:103F60003091ED003D7F3093ED003091EB003160FA
:103F70003093EB007093EC002093ED005093F00031
:103F80002091EE0027FDE5CF80E00895809170023A
:103F900087FF13C08091E80082FF06C08091E8008F
:103FA0008B778093E80004C080916F028111F2CF7B
:103FB000089580916F028823D9F38091E80080FFF3
:103FC000F8CF8091E8008E77ECCF2091E40030911B
:103FD000E50095E6A9012091EC00822F817020FF79
:103FE00006C08091E80080FF06C080E0089520911F
:103FF000E80022FD1AC080916F02882389F0853085
:1040000089F08091EB0085FD0FC02091E400309194
:10401000E50042175307F9F29150E1F684E0089564
:1040200082E0089583E0089581E008950E9474205D
:104030000E947720E0EEF0E0808181608083E8EDEF
:10404000F0E080818F77808319BCE3E6F0E0808127
:104050008160808310926E0208950E9474200E94F5
:1040600077208091D8008F778093D8008091D800F6
:1040700080688093D8008091D8008F7D8093D8008D
:1040800084E089BD86E089BD09B400FEFDCF1092B1
:104090006F0210926B0210926D0210926C0242E05D
:1040A00060E080E00E94921F8091E1008E7F80930B
:1040B000E1008091E20081608093E2008091E20063
:1040C00088608093E2008091E0008E7F8093E00022
:1040D0000895E3E6F0E080818E7F808381E0809325
:1040E0006E020E942D2008951092E2000895109211
:1040F000E10008951F920F920FB60F9211242F9393
:104100003F934F935F936F937F938F939F93AF935F
:10411000BF93EF93FF938091E10082FF0BC08091EA
:10412000E20082FF07C08091E1008B7F8093E10075
:104130000E94B6228091E10080FF19C08091E200C8
:1041400080FF15C08091E2008E7F8093E200809115
:10415000E20080618093E2008091D80080628093C9
:10416000D80019BC85E080936F020E94641C809186
:10417000E10084FF2BC08091E20084FF27C084E02F
:1041800089BD86E089BD89B5982F917080FFFBCFEE
:104190008091D8008F7D8093D8008091E1008F7E40
:1041A0008093E1008091E2008F7E8093E200809115
:1041B000E20081608093E20080916B02882309F421
:1041C00043C084E080936F020E946D1C8091E100E7
:1041D00083FF29C08091E20083FF25C08091E10028
:1041E000877F8093E10082E080936F0210926B02E0
:1041F0008091E1008E7F8093E1008091E2008E7FCC
:104200008093E2008091E20080618093E20042E0CE
:1042100060E080E00E94921F8091F00088608093AF
:10422000F0000E94611CFF91EF91BF91AF919F91AF
:104230008F917F916F915F914F913F912F910F904F
:104240000FBE0F901F9018958091E30087FD93E0BB
:1042500090936F02B9CF1F920F920FB60F92112455
:104260002F933F934F935F936F937F938F939F937E
:10427000AF93BF93CF93DF93EF93FF93D091E90078
:10428000DF708091EC00C82FC17080FDC0E81092F3
:10429000E9008091F000877F8093F00078940E947D
:1042A0006F211092E9008091F00088608093F00007
:1042B000CD2BCF70C093E900FF91EF91DF91CF91AB
:1042C000BF91AF919F918F917F916F915F914F912E
:1042D0003F912F910F900FBE0F901F901895AAE25B
:1042E000B0E0E5E7F1E20C941C2380E792E0209136
:1042F000F100FC012193CF01F2E088379F07B9F765
:104300000E94971C8091E80083FF1EC1809170027B
:10431000909171029A3008F017C1E92FF0E0E65F42
:10432000FB4D0C940023803899F0823809F00CC1C1
:10433000809174028F70853008F006C18093E90087
:104340008091EB0085FB882780F91092E90006C078
:1043500080916C0290916D02911182609091E800C1
:10436000977F9093E8008093F1001092F100809184
:10437000E8008E77E5C0882309F4D3C0823009F0C5
:10438000E3C0809172028111D6C0809174028F7057
:104390002FEF280F243008F0D7C08093E900209138
:1043A000EB0020FFC8C0933031F48091EB008062B5
:1043B0008093EB00C0C09091EB0090619093EB0074
:1043C00021E030E001C0220F8A95EAF72093EA004D
:1043D0001092EA008091EB008860EACF8111B4C0AE
:1043E000109172021F778091E3008078812B809377
:1043F000E3008091E800877F8093E8000E94C61F59
:104400008091E80080FFFCCF8091E300806880937A
:10441000E30082E0111183E080936F0295C0805821
:10442000823008F091C080917202909173028C3DAD
:1044300023E09207A1F583E08A838AE289834FB75C
:10444000F894DE01139620E03EE051E2E32FF0E025
:1044500050935700E49120FF03C0E295EF703F5F57
:10446000EF708E2F90E0EA30C0F0C7968D939D9349
:104470002F5F243159F74FBF8091E800877F8093E9
:10448000E8006AE270E0CE0101960E94D91E809198
:10449000E8008B778093E80057C0C096E7CF609123
:1044A000740270917502AE014F5F5F4F0E94C61D8E
:1044B000BC01892B09F448C09091E800977F909344
:1044C000E80089819A810E94351FE1CF8038E1F5AB
:1044D0008091E800877F8093E80080916B02809351
:1044E000F10045CF811130C090917202923060F599
:1044F0008091E800877F8093E80090936B020E9490
:10450000C61F80916B02882311F084E005C0809162
:10451000E30087FDFACF81E080936F020E94781C50
:1045200013C080917202813079F481E0933009F0F8
:1045300080E080936D021092E9008091E800877F0F
:104540008093E8000E94C61F8091E80083FF0AC0A4
:104550008091E800877F8093E8008091EB00806283
:104560008093EB00AA96E3E00C9438230895CF9350
:1045700080916F028823A1F0C091E900CF709091E3
:10458000EC00892F817090FD80E8C82B1092E90023
:104590008091E80083FD0E946F21CF70C093E900F5
:1045A000CF910895002480FD060E660F11F08695C8
:1045B000D1F7802D08950024552704C0080E591FF7
:1045C000880F991F009729F076956795B8F37105C4
:1045D000B9F7802D952F089597FB072E16F40094B8
:1045E00007D077FD09D00E94442307FC05D03EF494
:1045F000909581959F4F0895709561957F4F08958F
:10460000EE0FFF1F0590F491E02D0994692796277E
:10461000692778278727782708952F923F924F920E
:104620005F926F927F928F929F92AF92BF92CF9242
:10463000DF92EF92FF920F931F93CF93DF93CDB74B
:10464000DEB7CA1BDB0B0FB6F894DEBF0FBECDBFC3
:1046500009942A88398848885F846E847D848C8494
:104660009B84AA84B984C884DF80EE80FD800C819D
:104670001B81AA81B981CE0FD11D0FB6F894DEBF80
:104680000FBECDBFED010895AA1BBB1B51E107C0B2
:10469000AA1FBB1FA617B70710F0A61BB70B881FD2
:1046A000991F5A95A9F780959095BC01CD01089561
:1046B000FB01DC0104C08D910190801921F441506F
:1046C0005040C8F7881B990B0895FB01DC0102C01C
:1046D00001900D9241505040D8F70895F999FECFBE
:1046E00092BD81BDF89A992780B50895A8E1B0E000
:1046F00042E050E00C94B223DC01A40FB51F4150FE
:10470000504048F0CB01840F951F2E910E948D23BD
:1047100041505040D0F70895262FF999FECF92BD11
:1047200081BDF89A019700B4021639F01FBA20BD76
:104730000FB6F894FA9AF99A0FBE08950396272FA8
:104740000E948D230E948C23252F0E948D23242FCD
:104750000C948D230196272F0E948D230C948C237B
:10476000DC01CB01FC01F999FECF06C0F2BDE1BD31
:10477000F89A319600B40D9241505040B8F7089520
:10478000F894FFCFD004D004010501058C05A805DD
:1047900030053005AD05140623062306C7133B1468
:1047A000CF1399139D13D313A113D713E313AD1391
:1047B0003414B113E713B513EB131314B913EF1338
:1047C0001A14BF13F513FD13A513DB13A913DF137D
:1047D000C313F9130914231432149313CB13421483
:1047E0002A1830181918241836183C1842182F198E
:1047F0003B19711983198E1999199C199C199C19C7
:1048000041194119A119A519AD19BA19C719CA1920
:10481000CD19DA199321BB21A422BB21A422EE21B8
:084820000F22A422662272227D
:104828001202280850011E0A14010302010E1C443A
:104838001C111C3D1C361C01E200E900EA00B50011
:10484800B600B700CD008301CC008A019201940123
:104858002102230224022502260227022A02B3008B
:10486800B4006F0070009F01CB019F02A0028182FB
:1048780083E200E900EA00B500B600B700CD008386
:1048880001CC008A0192019401210223022402250D
:1048980002260227022A02B300B4006F0070009FAC
:1048A80001CB019F02A002818283666737363534C7
:1048B8003332313064969295949344227BE20345D7
:0A48C800036703EA02030323030061
:00000001FF
