:100000000C949A010C94D2010C94D2010C94D2015C
:100010000C94D2010C94D2010C94D2010C94D20114
:100020000C94D2010C94D2010C94D2010C94721B4A
:100030000C94231C0C94BD160C94D2010C94D20188
:100040000C94D2010C94D2010C94D2010C9444175C
:100050000C94D2010C94D2010C94D2010C94D201D4
:100060000C94D2010C94D2010C94D2010C94D201C4
:100070000C94D201290014001A0008001500170082
:100080001C0018000C00120013002A002B000400B2
:100090001600070009000A000B000D000E000F00FB
:1000A00033002800E1001D001B00060019000500B8
:1000B0001100100036003700E50000000000E000ED
:1000C000E200000028412C412C41E700E70000003D
:1000D0000000000035001E001F002000210022004B
:1000E000230024002500260027004C0001005000BA
:1000F000510052004F004A004D002F0030002D00EB
:100100002E003100E10001000100010001000100AA
:100110004E004B0034003800010000000000E200F7
:10012000E20000000100010001000100017C00006C
:1001300000000000010001000100010001000100B9
:1001400001000100010001000100010001000100A7
:100150000100010001000100010001000100010097
:100160000100010001000100010001000100010087
:100170000100010001000100010000000000010079
:100180000100000001000100010001000100000069
:100190000000000001000100010001000100010059
:1001A0000100010001000100010001000100010047
:1001B0000100010001000100010001000100010037
:1001C0000100010001000100010001000100010027
:1001D0000100010001000100010000000000010019
:1001E0000100000001000100010001000100000009
:1001F0000000000014034D0065006E0068006900F7
:1002000072002000760032000000180366007200C1
:1002100075006900740079006B006500650062007C
:10022000730000000403090409023B00020100A05E
:10023000FA09040000010301010009211101000174
:10024000224400070581030800010904010001039D
:10025000000000092111010001227B000705820333
:1002600020000112010002000000086B66494D00E9
:10027000010102000105010902A10185020901A194
:100280000005091901290815002501950875018146
:10029000020501093009311581257F950275088114
:1002A0000609381581257F950175088106050C0A18
:1002B00038021581257F950175088106C0C00501AA
:1002C0000980A101850319012AB700150126B7008D
:1002D000950175108100C0050C0901A10185041963
:1002E000012AA002150126A002950175108100C007
:1002F00005010906A101050719E029E715002501F7
:10030000950875018102950175088101050719009D
:1003100029FF150026FF00950675088100050819BC
:1003200001290515002501950575019102950175B5
:10033000039101C011241FBECFEFD4E0DEBFCDBFBB
:1003400004B603FE18C080916E0290916F02A091D6
:100350007002B09171028730904BA740B04B59F4B6
:1003600010926E0210926F0210927002109271023F
:10037000E0E0F8E3099511E0A0E0B1E0E4EEFDE390
:1003800002C005900D92A839B107D9F722E0A8E97B
:10039000B1E001C01D92AE36B207E1F70E94111123
:1003A0000C94B11E0C940000282F8430E0F46430CB
:1003B000D0F44C30C0F4862F90E06CE070E00E94E6
:1003C000D31DFC01E40FF11D822F90E060E370E08B
:1003D0000E94D31DE80FF91FEE0FFF1FEC58FF4FCF
:1003E00085919491089581E090E008950E94D40150
:1003F000089581E008950E94F901089581E008952B
:100400000E94F90108950E940002089508950E9433
:1004100006020895A6E0B0E0E0E1F2E00C940D1EC3
:1004200049835A839E8330919F0189819A8131113A
:100430001AC03E81332399F0222389F00E94A80735
:10044000182F682F89819A810E947F0769817A819C
:10045000812F0E94790E2696E3E00C94291E0E94BB
:100460009407182FF3CF0E94A80769817A81F1CFF2
:10047000FC01262F408151816281738184819581A5
:100480000E940A020895CF93DF93EC0161E00E947D
:100490003802BE010E94FB01DF91CF910895CF93F6
:1004A000DF93EC0160E00E943802BE010E94070267
:1004B000DF91CF91089581E008950E945B02089535
:1004C000CF93C82F0E9454068C2F0E945D022FEFFD
:1004D00084E39CE0215080409040E1F700C00000A0
:1004E000CF91089581E00E9460020E9468170895EC
:1004F00080E00E9460020E948C1708950F931F9362
:10050000CF93DF938C0161E00E943802EC01B801C7
:100510000E940302811106C080E0DF91CF911F91FC
:100520000F910895B801CE010E942C158823A1F3E4
:10053000B801CE010E944D11882371F3B801CE019C
:100540000E942311882341F3F8018581882361F0FB
:10055000C330FCE7DF07E9F058F4C115ECE7DE072C
:10056000A9F0C130DC47B9F0C8010E94FE01D5CF27
:10057000CB358CE7D807A9F0CC35ECE7DE0771F076
:10058000CA35DC4789F70E94C00BEECF0E94720289
:10059000C3CF0E94C80B0E947802BECF0E94B60B48
:1005A000E3CF0E94C40BE0CF0E949F160E94FB0283
:1005B00008950E94FF020E94A4160895089581E004
:1005C00008950895CF93DF93D82F0E94DF02C82F9C
:1005D000882319F08D2F0E94E1028C2FDF91CF919B
:1005E00008950895CF93C82F0E94DE028C2F0E9499
:1005F000E202CF91089580E00E94F20208950E94E5
:1006000075150E94F2020895CF930E947515C82FA8
:1006100080919A018C1779F0C0939A010E94291752
:1006200060939B0170939C0180939D0190939E0128
:100630008C2F0E94F202CF910895ADE0B0E0E3E28A
:10064000F3E00C940E1E488759876A877B878C8756
:100650009D8791110E94F60A1F8286E0FE0138965E
:10066000DE01119601900D928A95E1F78D8181113D
:100670000DC029813A814B815C816D817E818F81A2
:100680000E943B0A2D96E2E00C942A1ECE010196B0
:100690000E9443028111EDCFF5CFFC01248121306E
:1006A00021F4808191810E94DA070895662329F060
:1006B0000E94B9120E949E1308950E942513FACF3A
:1006C000CF93C82F882399F08CEF8C0F813A88F450
:1006D0008C2F0E94FA15882329F08C2F0E943D163A
:1006E0000E94650B8C2F0E9435160E94650BCF91DE
:1006F000089580E28C0F883048F4C77081E001C013
:10070000880FCA95EAF70E94D90AEFCFEBE5EC0F04
:10071000E33040F4F0E0E55BFE4F808190E00E9422
:100720009B15E5CFE8E5EC0FEB3150F4F0E0EE0F70
:10073000FF1FEB5EFE4F808191810E94C015D7CFD5
:1007400083E38C0F833198F661E08C2F0E9456036F
:10075000CECF882381F19CEF980F913A28F40E9424
:100760003D160E94650B089590E2980F983050F462
:10077000877091E001C0990F8A95EAF7892F0E944E
:10078000DF0AEFCF9BE5980F933028F490E080E0EC
:100790000E949B15089598E5980F9B3128F490E0EE
:1007A00080E00E94C015089593E3980F933118F4E8
:1007B00060E00E94560308951F93CF93DF93182F94
:1007C000EB010E946003209739F4812F0E94A90356
:1007D000DF91CF911F9108958FE99FE00197F1F785
:1007E00000C000002197EFCF70E060E0893311F482
:1007F00060E570E00E94DC030895882321F00E94E8
:10080000D90A0E94650B0895882321F00E94DF0A0F
:100810000E94650B0895B0E0A0E0E1E1F4E00C94E3
:10082000071E6C01D62FC72FFC011581F680F294AC
:100830009FE0F9220E94CF0AE82E8823F9F0E12EEA
:100840001123E1F08C2F807F803461F080E28D0FE6
:10085000883010F18C2F807E803221F4D230E0F08D
:10086000FF20D1F080914C0282FF16C082E00E94EE
:100870008A0B0E94CF0A91E0E82EE926BC2EB294A2
:100880008FE0B822FBE0FB1508F468C0EB2DF0E028
:10089000ED54F14E0C94F81DE12CF0CF0C2F0F709D
:1008A000C07F11F00295007F112399F0002359F0C9
:1008B00080E28D0F883010F0D11107C0802F0E9488
:1008C000D90A0E94650B8D2F41C0802F0E94E90A32
:1008D000F8CF8D2F0E94A903002309F43FC080E2C6
:1008E0008D0F883010F0D11104C0802F0E94DF0AD4
:1008F00003C0802F0E94EF0A0E94650B2FC00C2FAF
:100900000F70C07FC03211F00295007FDD2381F0AF
:10091000D13009F45FC0112309F46BC0FF2009F442
:1009200042C0F601868180FFCECF8F7086833BC0A8
:1009300080914C0282FD33C0112359F0002329F02D
:10094000802F0E94D90A0E94650B80E00E946003FC
:1009500005C080E00E94A9030111C7CFEB2DE8502C
:10096000FF0B349720F40E9475150E94F202EE20CE
:1009700089F00E94CB0A80FD0DC0F60115820E940D
:10098000C50A0E94DD06C6010E941B060E94C50A18
:100990000E94ED06CDB7DEB7E9E00C94231E1123CB
:1009A00069F0F11004C0802F0E94FD03D7CF21E031
:1009B000F212D4CF802F0E940D0BD0CFF110CECFEA
:1009C000802F0E940404802F0E94190B802F0E9408
:1009D000FD0AC4CF112329F035E03F1508F4BECF3E
:1009E000E2CF84E08F1508F4B9CF802F0E94040471
:1009F000B5CFFF20D1F3D93349F4FFEF27EE33E031
:100A0000F15020403040E1F700C000008D2F0E94DF
:100A1000A903A4CF8C2F86958695837069F08130C9
:100A200009F09CCF8D2F9C2F9370111102C080E094
:100A300090E00E94C01592CF8D2F9C2F93701111C2
:100A400002C080E090E00E949B1588CF612F8D2F1F
:100A50000E94560383CF8C2F8370A1F511117ECF96
:100A60004D2F429546954770440F440F2D2F2F7000
:100A700030E0042E02C0220F331F0A94E2F790E008
:100A800080E0D4FF09C08FE090E002C0880F991F7A
:100A90004A95E2F780959095C695C695C370822BCE
:100AA000932BC23049F058F4C13019F00E94AD06C2
:100AB00055CF0E94A40652CF0E94B6064FCF0E9487
:100AC000A1064CCF8695112311F08C2F81708823BD
:100AD00009F444CF4D2F429546954770440F440F7B
:100AE0002D2F2F7030E0042E02C0220F331F0A94E6
:100AF000E2F790E080E0D4FF09C08FE090E002C010
:100B0000880F991F4A95E2F780959095C695C695EE
:100B1000C370822B932BC23049F058F4C13019F0C6
:100B20000E9418071BCF0E940F0718CF0E942107B1
:100B300015CF0E94C50612CFCF70112329F08C2F3C
:100B40000E94DD068D2F30CF8D2F0E9404048C2F44
:100B50000E94ED0603CFD23F51F160F4D03FB9F0CF
:100B6000D13F81F0112309F449C0F110ACCE8C2F94
:100B70008F7121C0D33F11F1D43FA1F780914C0276
:100B800082FD26C08C2F8F71112311F314C0112305
:100B900049F084E08F1508F4E1CE8C2F8F710E940C
:100BA000FF06DCCE95E09F1508F4D8CEF6CF8C2F4B
:100BB0008F711111CDCF0E94DD06D0CE112329F007
:100BC0008C2F8F710E94D106C9CE0E94CC06C6CE52
:100BD000112349F0CF718C2F0E94DD0663E08C2F2A
:100BE0000E946C0BBBCE81E00E948A0BE1E0EF1506
:100BF00008F0B4CE82E00E948A0BB0CEF110FBCE9A
:100C00008C2F8F71A5CF0F931F93CF93DF93EC01A0
:100C1000688179818D810E94E5078C010E942A07F5
:100C20000E94A006B801CE010E940B04DF91CF9173
:100C30001F910F910895CF93DF93EC018C8188234E
:100C400099F0CE010E947E02811111C00E94CF0A4C
:100C5000882351F08D81882339F080914C0282FFE6
:100C600003C082E00E948A0BDF91CF910895CE01EC
:100C70000E940306CE010E944F02F6CF90E080E072
:100C80000E949B1590E080E00E94C0150E94F60A29
:100C90000E94650B0E94BA130E949E1308950E9441
:100CA00045160E943E0608950E94E60A0E944F06DD
:100CB000089592959F70963091F058F4925F9F70CE
:100CC000923058F4803F19F030F4883E30F481E0DF
:100CD00008959A5FF4CF843FD1F380E00895883E71
:100CE000B0F3813FD1F7F3CFFC012481222339F007
:100CF000808191810E94DA070E945906089580E060
:100D00000895A6E0B0E0E7E8F6E00C940E1E269603
:100D1000E2E00C942A1EA7E0B0E0E1E9F6E00C94D2
:100D20000E1E2796E2E00C942A1E08950E94950656
:100D300008950E9496069093BB018093BA0108958E
:100D400008950E94990608952091BA013091BB013F
:100D5000822B932B0E94990608952091BA0130911D
:100D6000BB01822393230E94990608952091BA0122
:100D70003091BB01822793270E94990608950E9413
:100D8000950608950E94BF0608950E94C20690939A
:100D9000B9018093B801089590E080E00E94C506F3
:100DA000089521E030E0A90102C0440F551F8A9543
:100DB000E2F7CA010E94C506089521E030E002C0B2
:100DC000220F331F8A95E2F78091B8019091B90103
:100DD000822B932B0E94C506089521E030E002C0CB
:100DE000220F331F8A95E2F7209530958091B80144
:100DF0009091B901822393230E94C506089521E0B2
:100E000030E002C0220F331F8A95E2F78091B801CB
:100E10009091B901822793270E94C50608952091D9
:100E2000B8013091B901822B932B0E94C506089519
:100E30002091B8013091B901822393230E94C50605
:100E400008952091B8013091B901822793270E941B
:100E5000C50608950895262F277091E001C0990FC7
:100E60002A95EAF723E0769567952A95E1F7660FCC
:100E7000771F660F771FFA01E60FF71F50E040E07B
:100E8000682F70E08191DF0111979B01042E02C051
:100E9000369527950A94E2F7217021952827292372
:100EA00028272C934F5F5F4F4430510559F7089521
:100EB000A82FA77023E0969587952A95E1F7880FCC
:100EC000991F880F991FFB01E80FF91F50E040E0C0
:100ED00080E0219130E00A2E02C0369527950A94D1
:100EE000E2F721703327042E01C0220F0A94EAF79B
:100EF000822B4F5F5F4F4430510559F70895282FDB
:100F0000362F943080F48C3070F4892F90E06CE0B0
:100F100070E00E94D31DBC01620F711D40EA51E0D8
:100F2000832F0E942B070895282F943078F48C305B
:100F300068F4892F90E06CE070E00E94D31D60EAB5
:100F400071E0820F911D0E945807089580E0089576
:100F5000B0E0A0E0EEEAF7E00C94071E7C010091FF
:100F6000B8011091B9018091BA019091BB01082B91
:100F7000192BCFE0D0E0CC24C394D12CBC2EC601D9
:100F80000C2E02C0880F991F0A94E2F78023912348
:100F9000892B49F4219790F7B12C8B2DCDB7DEB773
:100FA000E9E00C94231EB7018C2F0E94850E019757
:100FB00089F3F3CFCF93DF93EC010E94A807BE0122
:100FC0000E94850EDF91CF9108951F93CF93DF93F9
:100FD000EB0190919F01992339F0CB010E94DA0730
:100FE000DF91CF911F910895882369F0CB010E9472
:100FF000A807182F682FCE010E947F07BE01812FFE
:101000000E94850EEDCFCB010E949407182FF6CFDA
:10101000CF93DF93C091BC018091BD018C1303C0BD
:10102000DF91CF910895D0E0CE0167E070E00E949B
:10103000D31DFC01E254FE4F208131814281538156
:101040006481758186810E948B062196C770E4CFEA
:101050002091F6013091F7014091F8015091F9018A
:101060006091FA017091FB018091FC010E948B0656
:101070000895CF93DF938091FC01807F09F04FC0EA
:101080008091FB01882309F44AC02091BC01409162
:10109000BD01A091F701B091F601C091F801D09186
:1010A000F9014217E1F130E0C90167E070E00E9408
:1010B000D31D82549E4FFC018481882399F1C9017C
:1010C00067E070E00E94D31DFC01E254FE4F818175
:1010D0008A1328C080818B1325C08581811122C08D
:1010E000828193818C1B9D0B883C9105D8F4809163
:1010F000FC018F7080618093FC01C90167E070E0A2
:101100000E94D31DFC01EC53FE4F90819F709061B3
:10111000908386EF91E00E941B060E940808DF91F1
:10112000CF9108952F5F3F4F2770BBCFA82FB62FC9
:101130002091BC014091BD01241302C080E00895BC
:1011400030E0C90167E070E00E94D31DFC01E25469
:10115000FE4F8181B81306C08081A81303C085812A
:101160008111EDCF2F5F3F4F2770E6CFA4E1B0E0B4
:10117000ECEBF8E00C94041E8C0186E0F801DE0133
:101180001F9601900D928A95E1F7D80114968C91E3
:1011900014971596EC9096EFA92E91E0B92E9091A8
:1011A000FA0191111FC08823D1F0EE20A9F0C801E7
:1011B0000E947406F82E882379F087E0F801D501A3
:1011C00001900D928A95E1F7C5010E944D030E949E
:1011D00039080E94280861C0C8010E941B06FF242C
:1011E000F3945BC0F801C080D18082809380F0903E
:1011F000FB012091F8013091F901A401421B530B2E
:10120000FF2009F402C1483C510508F0B5C088230D
:1012100009F443C09091F7018091FC01282F207FB1
:1012200009F06AC0D91217C09091F601C91213C013
:10123000E1104FC08F7080618093FC010E942808EC
:1012400086EF91E00E941B068091FC01D801169662
:101250008C93F12C22C0E1103CC06D2D8C2D0E948E
:1012600096086D2D8C2D0E949608E82E8111F1CFE5
:10127000CF86D88A8F8598890E94DA07292F2295F0
:101280002F70243078F49F702230A8F09923B9F0A1
:10129000F8019681907F99F4FE2C8F2D6496ECE0F6
:1012A0000C94201E2A5F2F70223068F0C8010E9423
:1012B0001B06EF2CF1CF992311F0882369F3805E90
:1012C000883050F3F3CF803F38F3815F833070F77D
:1012D000E3CF8091FC0181608093FC0186EF91E077
:1012E0000E941B0687E0E6EFF1E0DF011D928A9580
:1012F000E9F70E942808ADCFD91213C09091F601EA
:10130000C9120FC0E1100DC08683C8010E941B06E0
:1013100087E0F801A6EFB1E001900D928A95E1F720
:1013200058CFC8010E947406882309F455CFEE20D7
:1013300009F452CF8091FC01803288F02091F601AF
:101340003091F701398728879B868A869091FA0128
:101350009C871D868E87CE0108960E941B0687E01B
:10136000F801A6EFB1E001900D928A95E1F70E9495
:1013700039080E94280833CF9091FC01292F207F43
:1013800079F4682D9A8A898AA6017A899E2D0E940D
:10139000810686EF91E00E941B0687E0D501A6CF6B
:1013A000882309F47ACF8091F7018D1110C08091C4
:1013B000F601C8120CC0E1100AC09683C8010E9451
:1013C0001B0687E0D5011D928A95E9F766CFC80113
:1013D0000E947406882309F4FFCEEE2009F4FCCEA7
:1013E0008091FC01803208F4BACF2091F60130914F
:1013F000F7013A8329839C828B829091FA019D8325
:101400001E828F83CE010196A8CF483C510528F556
:10141000882309F4E4CEFE2CEE2009F4DDCE809181
:10142000F7018D110CC08091F601C81208C087E049
:10143000A6EFB1E001900D928A95E1F72ECFC80199
:101440000E94740681118BCF8091FC018160809392
:10145000FC01C8010E941B0620CF682D9A8A898A48
:10146000A6017A899E2D0E94810687E0F5011192DE
:101470008A95E9F7AECEAEE0B0E0E1E4FAE00C9494
:101480000E1E288739874A875B876C877D878E8702
:10149000CE0108960E94B6088823A9F06C856623C1
:1014A00041F0288539854A855B857D858E850E943A
:1014B0008B068091BC019091BD0189133EC02E9690
:1014C000E2E00C942A1E87E0FE013896DE011196B8
:1014D00001900D928A95E1F78C85882351F38091D4
:1014E000BD0190E09C012F5F3F4F27703327409153
:1014F000BC014217130699F067E070E00E94D31D0B
:10150000DC01A254BE4F97E0FE01319601900D928E
:101510009A95E1F72093BD010E940808CACF0E9466
:1015200054061092BD011092BC0187E0E6EFF1E095
:10153000DF011D928A95E9F7BCCF90E067E070E08B
:101540000E94D31D82549E4F0E94B608882309F43E
:10155000B6CF8091BC0190E067E070E00E94D31D9F
:10156000FC01E254FE4F208131814281538164812C
:10157000758186810E948B068091BC0190E0019666
:10158000877099278093BC0194CF8091050286953E
:1015900086958695089580910502877008959091AB
:1015A0000502977081E009F480E0089580911102AE
:1015B000089590911102892B8093110208958095CE
:1015C00090911102982390931102089510921102A4
:1015D000089590911002892B8093100208958095B0
:1015E0009091100298239093100208951092100287
:1015F000089508950E94F90A089590910602292FEE
:10160000282331F080958923809306020E94FA0AEC
:10161000089508950E94090B089590910702292FBB
:101620002823281729F0982B909307020E940A0B71
:10163000089590910702292F282331F0809589235E
:10164000809307020E940A0B089580910702882365
:1016500029F01092070280E00E940A0B08950F9370
:101660001F93CF93DF930091000110910101C0916E
:10167000110280911002C82B80910702882331F05B
:10168000C82B0E94E51581110E94250BF801C0832B
:10169000C0910001D091010148E050E06DEF71E090
:1016A000CE010E94491E892B59F088E0FE01ADEF62
:1016B000B1E001900D928A95E1F7CE010E9482156A
:1016C000DF91CF911F910F9108950E942F0B0895E4
:1016D00008950E94680B089590914C0292FF11C0EA
:1016E000982F990F990F990F962B909305020E94AE
:1016F000DD06809105028695869586950E94690B88
:1017000008950E94DD0608951092050280E00E946F
:10171000690B0895909105028095892380930502B5
:10172000282F277069F4891759F090914C0292FF85
:1017300007C08695869586950E94ED060E94840BCB
:10174000089590914C0292FB222720F9281769F006
:1017500080FB92F990934C0280914B0290914C0245
:101760000E94E90B82E00E948A0B089580914C024E
:1017700082FB882780F991E089270E94A10B0895B8
:1017800081E00E94A10B089580E00E94A10B0895C2
:101790006FEF7FEF90E080E00E949B1E089590E045
:1017A00080E00E94671E21E0863E9E4F09F020E007
:1017B000822F089582E090E00E945F1E089583E0EA
:1017C00090E00E945F1E089584E090E00E94671EF2
:1017D0000895BC0184E090E00E949B1E0895AB0137
:1017E000BC018FE090E00E948F1E0895AB01BC0108
:1017F00083E190E00E948F1E089560E070E0CB01CD
:101800000E94F60B089560E070E0CB010E94EF0BA0
:101810000E94FD0B0895A8E0B0E0E1E1FCE00C942B
:101820000E1E66EE7EEF90E080E00E949B1E60E060
:1018300082E090E00E947D1E81E090E09093BB01E9
:101840008093BA0161E083E090E00E947D1E60E039
:1018500074E184E090E00E949B1E60E086E090E0EE
:101860000E947D1E6FEF87E090E00E947D1E40E0A9
:1018700050E0BA0188E090E00E948F1E60E084E2B0
:1018800090E00E947D1E60E087E190E00E947D1E56
:1018900060E08CE090E00E947D1E60E08DE090E0D2
:1018A0000E947D1E19821A821B821C821D821E824A
:1018B0001F82188648E050E068E170E0CE01019692
:1018C0000E946D1E40E050E0BA0180E290E00E946C
:1018D0008F1E0E94030C2896E2E00C942A1E0E94A0
:1018E0000B0C0895682F8EE090E00E947D1E0895F5
:1018F000A6E0B0E0EEE7FCE00C940C1E0E941D1781
:101900008C0180911202909113028017910781F04F
:1019100019821A820E941D17682F49815A81792FD6
:1019200080E090E00E941D031093130200931202C6
:101930002696E4E00C94281E0E942917609320024A
:1019400070932102809322029093230260931C02E1
:1019500070931D0280931E0290931F0208950895B4
:1019600008950E94AF0C089508950E94B40C089544
:101970008BE79FE00E941E110E94B00C0E94B10CE8
:10198000089581E008950E94C10C08950E94C10C41
:101990000895089508950E94C90C0E94CA0C0895E4
:1019A0000E949A0F0E94F10208950E9414170E944B
:1019B00076100E94D00C0E94B50C0895A6E0B0E00D
:1019C000E4EEFCE00C94021E0E94C30C81110AC0DC
:1019D0000E94780C0E94DC130E9404032696EEE01D
:1019E0000C941E1E0E948C1024E1822E22E0922E66
:1019F000640110E0F601E190F1906F01812F0E94E7
:101A0000C00F1F5F143009F44BC0E816F90691F3BC
:101A10008091240281FD0E94C90F0E94C60C782E7D
:101A200010E066246394812F0E94C00F7C01F401B2
:101A3000A190B1904F018A159B0561F1A826BF24A2
:101A400000E0CC24C394D12CC5018C219D21892B8D
:101A5000C1F07720B1F009831A830E941D179C837F
:101A60008B836D8221E0C7018C219D21892B09F494
:101A700020E049815A816B817C818D81922F0E9467
:101A80001D030F5FCC0CDD1C0C30F1F6F401329716
:101A9000F182E0821F5F143031F60E949C0C9ACFD5
:101AA000E816F90609F0B4CF93CF1F93CF93DF93D5
:101AB0000E948A0EEC01C11580E5D807F0F5C1152A
:101AC00080E4D80708F09EC0C03ED10520F5CD3C8B
:101AD000D10508F084C0C83AD10578F4C53AD105DB
:101AE00008F075C0C130D10519F1209709F1C43053
:101AF000D105F0F4D0E0C0E01BC0C33CD105D0F765
:101B0000C85AD0E0CC0FDD1FC25BDE4F0990D881F0
:101B1000C02DD4640DC0C11580E2D80708F0D7C02D
:101B2000C11581E0D80708F05CC0C83ED10510F7A8
:101B3000CE01DF91CF911F910895C03682E5D8077D
:101B400028F5C03482E5D80708F06DC0C03282E5C0
:101B5000D80708F061C0C11582E5D80708F49DC018
:101B60002C2F2695269530E085E0220F331F8A958D
:101B7000E1F78C2F8370C1E0D0E002C0CC0FDD1FF5
:101B80008A95E2F7C22BD32BDD68D2CFC03A82E52B
:101B9000D80760F4C03882E5D80708F45BC0CF717D
:101BA000D0E0DC2FCC27C46FD06AC2CFC03C82E526
:101BB000D80708F466C0C03E82E5D80708F09ACF7F
:101BC000DC2FCC27CC27DF71C06FD06AB1CFC55ACC
:101BD000D0E0CC57DE4FC881D0E0D064A9CFD0652B
:101BE000A7CF8D2F0E942C0F182FCE0199270E946E
:101BF0008A0EC12FD0E0DC2FCC27CC27DF71C82B79
:101C0000D92B96CFCE0199270E948A0ECC27DF7060
:101C1000C82BD92BD06A8CCFCF71D0E0DC2FCC274A
:101C2000C16FD06A85CF2C2F26952695277030E07E
:101C3000B5E0220F331FBA95E1F78C2F8370C1E016
:101C4000D0E002C0CC0FDD1F8A95E2F7C22BD32B68
:101C5000DC686ECF2C2F26952695277030E0A5E006
:101C6000220F331FAA95E1F78C2F8370C1E0D0E0DB
:101C700002C0CC0FDD1F8A95E2F7C22BD32BDA68A6
:101C800057CF8C2F8F710E942C0FC82FD0E0DC2FE4
:101C9000CC27CC27DF71D0624BCF8C2F8F710E9465
:101CA0002C0F55E0D695C7955A95E1F7CF70D0E047
:101CB000DC2FCC27282F30E084FF05C044E0220F22
:101CC000331F4A95E1F7C22BD32BD06931CF8D2F2B
:101CD0008F710E942C0F182FCE0199270E948A0E17
:101CE000C12FD0E0DC2FCC27CC27DF71C82BD92B1C
:101CF000D2CF462F743030F46C3020F4672F0E941E
:101D0000F601089590E080E008950E94790E0E9407
:101D1000550D089582389105B9F1B0F481339105DC
:101D200009F47DC048F48932910509F46DC08A3206
:101D3000910509F47BC008958533910509F45FC0CE
:101D40008933910509F10895833E9105D9F138F45D
:101D5000803E910529F1823E910579F10895863EF4
:101D60009105D9F1873E910509F43EC0843E910565
:101D700041F520914C0221FF24C080914B0284FD4B
:101D800019C087EE90E0089520914B02237009F06E
:101D90005AC020914C0223FF14C089E290E00895BC
:101DA00020914B0220FD38C030914C0230FF09C019
:101DB00024FF43C090E080E0089520914B0222FD73
:101DC000F7CF089520914B0222FD3AC030914C028A
:101DD00030FD39C024FFF5CFEDCF20914B0223FF1A
:101DE000F0CF24FDE7CFCDCF20914B0223FD2EC0B5
:101DF00030914C0231FFEECF84EE90E008952091B7
:101E00004B0225FFDECFC9CF20914B0225FD21C01B
:101E100020914C0223FFD5CF89E390E0D2CF2091CF
:101E20004B0226FFCECF8AE290E0089520914B022C
:101E300026FFC7CF81E390E0089583EE90E00895F8
:101E400082EE90E0089580EE90E0089586EE90E0B6
:101E5000089585E390E0089590914B0292FF10C0A1
:101E600041E0282F2471243009F040E031E0282F90
:101E70002871283009F030E0431711F02CE0822758
:101E800093FF10C041E0282F2471243109F040E075
:101E900031E0282F2871283109F030E0431711F084
:101EA0002CE0822730914C0230FF10C051E0282FE7
:101EB0002171213009F050E041E0282F28712830AD
:101EC00009F040E0541711F029E0822731FF10C0DB
:101ED00041E0282F2171213109F040E031E0282F25
:101EE0002871283109F030E0431711F029E08227EA
:101EF00094FD877E089580E008950E94C80B0895A0
:101F00000E948C102FEF86E791E021508040904096
:101F1000E1F700C000000E948C1080E00E94C00F1A
:101F200080FF04C00E947D0F0E94681708950E94E0
:101F3000800F08950E94CF0B811102C00E946F0C88
:101F40000E94DA0B809324020E94E40B90934C02CF
:101F500080934B020E94970F0E94DF0B90E00E943B
:101F6000A1068091B8019091B9010E94C20608951E
:101F700008950E94B80F089508950E94BC0F089517
:101F8000E82FF0E0EE0FFF1FEB5AFD4F80819181AB
:101F90000895089580EA8A95F1F7089500C008959C
:101FA0000E94CA0F0895F894E82FE295EF70F0E0D0
:101FB00031A1282F2F7081E090E001C0880F2A9571
:101FC000EAF7982F9095932391A392A1892B82A34E
:101FD00078940895CF93DF9382E90E94D30F85E927
:101FE0000E94D30F84E90E94D30F83E90E94D30F8C
:101FF000C7E8D1E089918F3F11F00E94D30F81E0B3
:10200000C339D807B9F7DF91CF910895AF92BF9246
:10201000DF92EF92FF920F931F93CF93DF938C0188
:10202000D62EC62FD0E0CE018D569E4F7C01FC01EE
:1020300020812F3F09F44DC0F894E22FE295EF7014
:10204000F0E031A12F7081E090E001C0880F2A9567
:10205000EAF7932F982B91A392A18095892382A3CD
:1020600078940E94CE0FE7E8F1E043E951E021E0E7
:1020700030E0B12CA12C61916F3FA9F1A62FA29560
:10208000AF70B0E090968C9190E06F7002C0959523
:1020900087956A95E2F780FD26C0C901A82AB92A6A
:1020A000220F331F4E175F0731F7F70180818F3FF3
:1020B00011F00E94D30F61E0A114B10409F460E0B3
:1020C0008D2D0E94D00FCC0FDD1FC00FD11FB98204
:1020D000A882DF91CF911F910F91FF90EF90DF9039
:1020E000BF90AF90089590E080E0D8CF0E94EA0FB3
:1020F00088E0E5E5F2E0DF01982F1D929A95E9F777
:10210000EDE4F2E0DF011D928A95E9F784E00E9498
:10211000C7100E94B90F0895A8E0B0E0E2E9F0E12D
:102120000C940B1E8E010F5F1F4F88E0F801119277
:102130008A95E9F7F12C6F2DC8010E940610F394DF
:10214000F4E0FF12F8CF48E050E0B8018DE492E0EF
:102150000E94491E21E0009709F420E0892B41F0FC
:1021600088E0F801ADE4B2E001900D928A95E1F7C4
:1021700044E065E572E08DE492E00E94C810182FFB
:102180000E94BD0F812F2896E5E00C94271E08952C
:10219000B0E0A0E0EEECF0E10C94081E6C017B01D5
:1021A000042FC22F222379F081E0809327020E941E
:1021B0001D17909326028093250280E0CDB7DEB7ED
:1021C000E8E00C94241ED0912702DD23B1F3809126
:1021D0002502909126020E943517059770F310E0B2
:1021E000000F111FA801B601C7010E94491E892BCB
:1021F00031F0A801B601C7010E94561ECD2F1092E2
:1022000027028C2FDBCF0E94DF180E94D50C0E9482
:10221000EC1808950E94F1180E94DE0C0E940B1920
:1022200008950E94BC160E94C5180E94B80C0E9416
:1022300003110E940A110E94CB0CFBCF90939901CD
:10224000809398010895CF93DF93EB0186319C47EB
:1022500011F50E94D60A9D81992399F08A7A91E01E
:1022600009F490E090932802811109C089E20E944C
:1022700035160E94650B80E0DF91CF91089585E3CC
:10228000F6CF80912802811104C089E20E943D1698
:10229000F0CF85E3FBCF81E0EFCFCF93DF93EC016D
:1022A000FB018581882309F4D2C09E013057233277
:1022B000310508F0B2C00E94E40B90934C02809369
:1022C0004B02FE01E150F047E232F10520F4E15407
:1022D000F14E0C94F81D80914B02816080934B026B
:1022E00093C080914C02886080934C028DC0809195
:1022F0004B028260F3CF80914B028460EFCF8091DC
:102300004B028860EBCF80914C028160EDCF8091D1
:102310004C028260E9CF80914B028061DFCF8091D7
:102320004B028062DBCF80914B028064D7CF0E944A
:10233000540680914B028068D1CF80914B028C6013
:10234000CDCF80914C028360CFCF80914B028E7FA6
:10235000C5CF80914C02877FC7CF80914B028D7F84
:10236000BDCF80914B028B7FB9CF80914B02877F8D
:10237000B5CF80914C028E7FB7CF80914C028D7F7C
:10238000B3CF80914B028F7EA9CF80914B028F7D7E
:10239000A5CF80914B028F7BA1CF0E9454068091E4
:1023A0004B028F779BCF80914B02837F97CF809199
:1023B0004C028C7F99CF80914B0282FB992790F938
:1023C00021E0922790FB82F990FB83F987CF8091DF
:1023D0004C02982F909591708E7F892B90FB81F9FC
:1023E00083CF90914B02892F8F7B96FF806476CFAD
:1023F0000E94540690914B02892F97FB87F98058D1
:102400006DCF81E00E94720C80914B0290914C0242
:102410000E94E90B0E94540680E0DF91CF9108955D
:1024200080E0F0CF90914B02892F8F7E94FF8061E6
:1024300055CF90914B02892F8E7F90FF81604ECFB8
:1024400090914C02892F877F93FF88604DCF81E068
:10245000E4CF082E000C990B65EB70E00E94D31DB1
:1024600097FF04C080589109892F089580589F4F85
:10247000FBCF80912F0280FF0DC06091070170E0BB
:10248000660F771F60387105A8F561157105A1F118
:10249000862F089581FF08C06091070170E0660FE4
:1024A000771F660F771FEECF6091070170E082FD06
:1024B0000BC080912E028823D1F0209106016091FB
:1024C000070170E0821730F043E0660F771F4A95EE
:1024D000E1F7D8CF90E00E94D31D33E0880F991F19
:1024E0003A95E1F7622F70E00E94E41DCBCF68E0DF
:1024F00070E0CECF8FE7089581E0089580912F029C
:1025000080FF0CC06091030170E07595679575952B
:1025100067956115710559F1862F089581FF06C0F1
:102520006091030170E075956795F3CF60910301A9
:1025300070E082FD0CC060912D026623A9F020910D
:1025400002018091030190E0621730F0BC01603815
:102550007105F8F28FE7089570E00E94D31D622F95
:1025600070E00E94E41DF3CF61E070E0D5CF81E020
:1025700008959091320220913302922B20913502DE
:10258000922B20913402922B31F098E090932E02FE
:1025900091E090932D028D3C31F40E943912819587
:1025A0008093330208958E3C19F40E943912F8CFBB
:1025B0008F3C31F40E943912819580933202089544
:1025C000803D19F40E943912F8CF893D29F40E9408
:1025D0007E128093340208958A3D21F40E947E1277
:1025E0008195F7CF8B3D31F40E947E1281958093C7
:1025F000350208958C3D19F40E947E12F8CF9FE2B7
:10260000980F983070F4815D990B21E030E001C0A3
:10261000220F8A95EAF780913102822B8093310252
:1026200008958D3D31F480912F02816080932F02B7
:1026300008958E3D21F480912F028260F7CF8F3D67
:10264000B9F780912F028460F1CF409132028D3C26
:1026500059F48091330287FF0DC01092330241116B
:102660000BC010922E0208C08E3C81F48091330280
:1026700018169CF3442381F0809134029091350226
:10268000892B09F05AC010922D0208958F3C49F40D
:1026900047FFF0CF10923202809133028111ECCFCC
:1026A000E0CF803D19F41416ACF3E4CF90913402DE
:1026B000893D29F41916F4F610923402DBCF8A3DD5
:1026C00019F497FFD7CFF8CF909135028B3D29F4BD
:1026D00097FFD0CF10923502CDCF8C3D19F419164B
:1026E000CCF3C8CF9FE2980F983090F4815D990B9E
:1026F00021E030E0B90102C0660F771F8A95E2F74A
:10270000CB01809590913102892380933102B2CF21
:102710008D3D31F480912F028E7F80932F02AACFBE
:102720008E3D21F480912F028D7FF7CF8F3D09F0F0
:10273000A1CF80912F028B7FF0CF08950E941D17AB
:102740009C019091320280913302982B21F03093BA
:102750002C0220932B029091340280913502982B09
:1027600021F030932A022093290280E392E00E9414
:102770008D15089586E0E0E3F2E0DF011D928A9571
:10278000E9F710922E0210922D0210922F02089556
:10279000FC01828181110EC0838181110BC0848173
:1027A000811108C091E08581811101C090E0892FDD
:1027B0008170089581E0FCCFA6E0B0E0E2EEF3E1A5
:1027C0000C940D1E86E0E0E3F2E0DE01119601902C
:1027D0000D928A95E1F71092320210923302109214
:1027E0003402109235028B819C81892B89F0809173
:1027F0002B0290912C020E943517FC0120912E0291
:102800002223C9F1809108018E171F0608F441C0E8
:102810008D819E81892B91F08091290290912A02CD
:102820000E943517FC0120912D02222309F469C072
:10283000809104018E171F0608F472C0BE016F5FFD
:102840007F4F80E392E00E945016811105C080E323
:1028500092E00E94C81381110E949E1386E0FE013F
:102860003196A0E3B2E001900D928A95E1F72696A9
:10287000E3E00C94291E8091090190E06AE070E089
:102880000E94D31D8E179F0718F62F5F20932E02EC
:1028900002C02F3FD1F71B81112351F00E94391242
:1028A0006FEF11160CF461E00E94CA1D8093320292
:1028B0001C81112351F00E9439126FEF11160CF494
:1028C00061E00E94CA1D8093330280913202882306
:1028D00009F49ECF10913302112309F499CF0E947D
:1028E0002912882351F080933202812F0E942912ED
:1028F000882329F0809333028BCF81E0F4CF81E0ED
:10290000F9CF8091050190E06AE070E00E94D31D4C
:102910008E179F0708F092CF2F5F20932D0202C0E1
:102920002F3FD1F71D81112351F00E947E126FEFCE
:1029300011160CF461E00E94CA1D809334021E81BE
:10294000112351F00E947E126FEF11160CF461E01A
:102950000E94CA1D8093350280913402882309F4B5
:102960006DCF10913502112309F468CF0E9429120E
:10297000882351F080933402812F0E9429128823EA
:1029800029F0809335025ACF81E0F4CF81E0F9CF6E
:102990000F931F93CF93DF93C42FD22FFC01858118
:1029A0008823C9F0409338020E941D179093370284
:1029B0008093360280E28C0F883040F4C77081E04B
:1029C00001C0880FCA95EAF70E94FD03DF91CF91FD
:1029D0001F910F91089510913802141332C0809105
:1029E0003602909137020E943517883C910548F5D0
:1029F000C0E2CD0F1D17B9F080E2810F883040F49E
:102A0000177081E001C0880F1A95EAF70E9404044C
:102A1000C83048F481E09D2F977001C0880F9A95C7
:102A2000EAF70E94FD03802F0E94F403C83070F67D
:102A3000D77081E001C0880FDA95EAF70E9404049C
:102A4000C5CF80E28C0F883008F6C77081E001C0E6
:102A5000880FCA95EAF7F2CF0F93DB0188519C47A4
:102A600087309105A0F5FC01EF51F14E0C94F81D53
:102A700006E221EE41EE6AE17CE7CD010E94C81436
:102A800080E00F91089507E225EE45EE6BE17CE7CB
:102A9000F4CF06E221EE40EE68E17CE7EECF07E2FC
:102AA00025EE44EE69E17CE7E8CF06E221EE42EE56
:102AB0006CE17CE7E2CF07E225EE46EE6DE17CE7D4
:102AC000DCCF08E221E045EE6EE17CE7D6CF15963B
:102AD0008C91882319F010923802D3CF81E0D1CFA6
:102AE00090933E0280933D020895E0913D02F09163
:102AF0003E02309729F00190F081E02D099508956C
:102B000080E00895E0913D02F0913E02309721F07F
:102B10000280F381E02D09950895E0913D02F09146
:102B20003E02309739F022E0DC012C930680F781D9
:102B3000E02D09950895A3E0B0E0E1EAF5E10C94F9
:102B40000E1E20913B0230913C0228173907A1F05C
:102B500090933C0280933B02E0913D02F0913E0253
:102B6000309751F023E029839B838A830084F18589
:102B7000E02DCE01019609952396E2E00C942A1EE1
:102B8000A3E0B0E0E6ECF5E10C940E1E20913902D2
:102B900030913A0228173907A1F090933A028093B6
:102BA0003902E0913D02F0913E02309751F024E06D
:102BB00029839B838A830084F185E02DCE010196D1
:102BC00009952396E2E00C942A1E40910001509151
:102BD00001019A012E5F3F4F485F5F4F80E024174D
:102BE000350709F40895F90191919F019923B9F3EB
:102BF0008F5FF5CF882371F02091000130910101A2
:102C0000F9013296285F3F4F9191981729F0E2170A
:102C1000F307D1F780E0089581E008959C01FC015D
:102C200032969FEF80E04191461751F09F3F19F493
:102C3000411101C0982F8F5F8630A9F79F3F09F49B
:102C40000895290F311D97FD3A95F9016283089582
:102C5000FC01329608962191261303C0DF011197DB
:102C60001C92E817F907B9F70895682F80910001C1
:102C7000909101010E940E160895682F8091000125
:102C8000909101010E9428160895E0910001F091B1
:102C90000101329686E0DF011D928A95E9F70895D9
:102CA000DC01FB0111969C9111978181981322C040
:102CB00012968C911297882319F0928189131AC069
:102CC00013968C911397882319F09381891312C05E
:102CD00015968C911597882319F0958189130AC050
:102CE00014969C91992321F081E02481291303C03B
:102CF00080E001C081E08170089508950E947D16F2
:102D00000895811106C081E080933F020E947E16E3
:102D1000089582E0F9CF83E080933F020E947E16FF
:102D200008950E948116089581E080933F020E94D9
:102D30007E1608950E9494160895089508950E949D
:102D40009E160895089508950E949D160895CF93A4
:102D50000E94A2160E948C100E94A316C0E08C2F25
:102D60000E94C00F892B31F4CF5FC430C1F780E0DF
:102D7000CF91089581E0FCCF08951F921FB61F9256
:102D800011248F939F93AF93BF9380914002811141
:102D900013C080915D0290915E02A0915F02B0919C
:102DA00060024196A11DB11D80935D0290935E0269
:102DB000A0935F02B0936002BF91AF919F918F91FA
:102DC0001F901FBE1F90189580916502843031F1CD
:102DD0000E94D4021092400288E190E020E40FB6F5
:102DE000F894A895809360000FBE2093600083B78D
:102DF000817F846083BF83B7816083BF7894889527
:102E000083B78E7F83BF0FB6F894A895809160003A
:102E1000886180936000109260000FBE08950E9448
:102E200054060E94D902089582E084BD93E095BDC6
:102E30009AEF97BD80936E0008952FB7F894809114
:102E40005D0290915E02A0915F02B09160022FBF7F
:102E500008952FB7F89460915D0270915E028091A1
:102E60005F02909160022FBF08959C014FB7F894C4
:102E700080915D0290915E02A0915F02B09160022C
:102E80004FBF821B930B089578941F921FB61F9219
:102E900011248F939F93AF93BF9380915D02909184
:102EA0005E02A0915F02B09160020196A11DB11D6A
:102EB00080935D0290935E02A0935F02B0936002E4
:102EC000BF91AF919F918F911F901FBE1F9018953A
:102ED00081E08093E00080E28093D8001092C900E6
:102EE0008FE19EE40197F1F700C0000087E090EBCE
:102EF000DC0180936E0290936F02A0937002B093F6
:102F0000710288E19CE00FB6F894A8958093600068
:102F10000FBE90936000FFCF88E19CE00FB6F8945D
:102F2000A895809360000FBE90936000FFCF8091C2
:102F30004902089508959B01BA0190916502943069
:102F4000E9F48F708093E9009FEF8091E800915041
:102F500085FD06C085ED8A95F1F700009111F5CF4A
:102F60008091E80085FF0AC050E040E0C9010E945E
:102F700082198091E8008E778093E800089543E0FD
:102F800050E0BC0182E00E949B17089546E050E0AB
:102F9000BC0182E00E949B170895CF93DF93EC0160
:102FA00048E050E0BC0181E00E949B1788E0FE01F0
:102FB000A1E4B2E001900D928A95E1F7DF91CF9103
:102FC00008950E94941608956091610281E0611154
:102FD00001C080E00E948B1608959091650281E007
:102FE000943009F080E0609161020E94911608958A
:102FF00042E061EC81E00E948A1A42E261EC82E0E8
:103000000E948A1A9091650281E0943009F080E074
:10301000609161020E948116089580916702833059
:1030200009F45FC030F48130C1F1823009F49CC0F2
:1030300008958A3009F488C08B3009F46DC0893056
:1030400009F04EC080916602813209F049C080913A
:103050006A0290916B02029708F042C08091E800EA
:10306000877F8093E8008091E80082FF35C08091DF
:10307000F200823031F48091F100813011F086301D
:1030800021F48091F100809349028091E8008B77D0
:103090008093E8000E94BE1A23C080916602813AA4
:1030A000F9F48091E800877F8093E80080916A02BC
:1030B00090916B02892B61F468E081E492E070E00A
:1030C0000E94D1198091E8008B778093E8000895E1
:1030D00060E090E080E0F3CF809165028111C3CF82
:1030E000089580916602813AD9F780916A029091A1
:1030F0006B02892BA9F78091E800877F8093E80015
:103100008091E80080FFFCCF809114018093F10052
:103110008091E8008E77BCCF80916602813201F702
:1031200080916A0290916B02892BD1F68091E80020
:10313000877F8093E8000E94BE1A80916802809386
:1031400014010E945406089580916602813241F66E
:103150008091E800877F8093E8000E94BE1A8091EA
:10316000690280934A02089580916602813A09F0CB
:10317000B7CF8091E800877F8093E8008091E800D6
:1031800080FFFCCF80914A02C1CF84B7877F84BF84
:103190000FB6F894A89580916000886180936000D4
:1031A000109260000FBE80E890E00FB6F894809314
:1031B0006100909361000FBE0E949A1608950E94CC
:1031C0000E1B0E94611BE2EEF0E080818460808330
:1031D00078940E94AF1D08958AE091E00E947015D6
:1031E000089580916502853031F4809165028530C3
:1031F00019F00E940F1708950E94E416809163024F
:10320000882399F30E94A716882379F30E946C19EA
:103210000E945406EACF08959A0140916C025091A1
:103220006D020E9414190895492F55274330510506
:1032300019F168F44130510509F444C04230510598
:1032400009F445C090E080E050E040E025C0413204
:10325000510549F142325105A9F784E490E040EF6D
:1032600052E061157105C1F08BE790E045E752E04F
:103270006130710589F0E6CF99278130910581F0A1
:10328000009729F00297F1F6E4EFF1E002C0E4E2E2
:10329000F2E0849190E0AF01F901518340830895F9
:1032A000EAE0F2E0F6CF89E090E04AE352E061150F
:1032B000710591F389E090E043E552E061307105DA
:1032C00059F3C0CF82E190E043E652E0E5CF8BE3D3
:1032D00090E048E252E0E0CF84E089BD86E089BD1D
:1032E00009B400FEFDCF8091D8008F7D8093D80077
:1032F0008091E00082608093E0008091E00081FD99
:10330000FCCF0895AF92BF92CF92DF92FF920F93BE
:103310001F93CF93DF936C01EB018A010E94DD1AAA
:10332000F82E811123C00115110539F0F8018081B3
:103330009181C81BD90BC80ED91EB12CA12C209786
:10334000A9F08091E80085FD22C08091E8008E7789
:103350008093E80001151105A1F0F80180819181A9
:10336000A80EB91EB182A08285E0F82E8F2DDF91C4
:10337000CF911F910F91FF90DF90CF90BF90AF90B2
:1033800008950E94DD1A8823D1F2F82EEFCFF601BE
:1033900081916F018093F1002197FFEFAF1ABF0A6F
:1033A000CECFFC0180916C0290916D028617970739
:1033B000A0F06115710529F49091E8009E77909333
:1033C000E80090E06115710551F4911108C08091F9
:1033D000E80082FF32C080E00895BC01F2CF809106
:1033E00065028823B1F18530B1F18091E80083FD59
:1033F0002EC08091E80082FDEACF8091E80080FF36
:10340000E1CF2091F20030E06115710519F028300C
:10341000310558F091E02830310509F090E0209115
:10342000E8002E772093E800CDCF81918093F100C2
:10343000615071092F5F3F4FE7CF8091650288236C
:1034400041F0853041F08091E80083FFC0CF81E0FA
:10345000089582E0089583E00895FC0180916C0254
:1034600090916D0286179707A0F06115710529F4F8
:103470008091E8008E778093E80090E061157105F7
:1034800051F4911108C08091E80082FF33C080E0C0
:103490000895BC01F2CF809165028823B9F185308F
:1034A000B9F18091E80083FD2FC08091E80082FD92
:1034B000EACF8091E80080FFE1CF2091F20030E078
:1034C0006115710519F02830310558F091E0283068
:1034D000310509F090E08091E8008E778093E80054
:1034E000CDCF84918093F1003196615071092F5FA7
:1034F0003F4FE6CF80916502882341F0853041F04F
:103500008091E80083FFBFCF81E0089582E00895B5
:1035100083E00895982F953028F08F708093E9000C
:1035200081E008959093E900242F762F50E09817BA
:1035300031F07091EC002091ED005091F00021FDF0
:1035400002C09F5FE8CF3091EB003E7F3093EB00ED
:103550003091ED003D7F3093ED003091EB00316014
:103560003093EB007093EC002093ED005093F0004B
:103570002091EE0027FDE5CF80E00895809166025E
:1035800087FF13C08091E80082FF06C08091E800A9
:103590008B778093E80004C0809165028111F2CF9F
:1035A0000895809165028823D9F38091E80080FF17
:1035B000F8CF8091E8008E77ECCF2091E400309135
:1035C000E50095E6A9012091EC00822F817020FF93
:1035D00006C08091E80080FF06C080E00895209139
:1035E000E80022FD1AC080916502882389F08530A9
:1035F00089F08091EB0085FD0FC02091E4003091AF
:10360000E50042175307F9F29150E1F684E008957E
:1036100082E0089583E0089581E008950E946C1B84
:103620000E946F1BE0EEF0E0808181608083E8ED16
:10363000F0E080818F77808319BCE3E6F0E0808141
:10364000816080831092640208950E946C1B0E9426
:103650006F1B8091D8008F778093D8008091D8001D
:1036600080688093D8008091D8008F7D8093D800A7
:1036700084E089BD86E089BD09B400FEFDCF1092CB
:10368000650210926102109263021092620242E09F
:1036900060E080E00E948A1A8091E1008E7F809332
:1036A000E1008091E20081608093E2008091E2007D
:1036B00088608093E2008091E0008E7F8093E0003C
:1036C0000895E3E6F0E080818E7F808381E080933F
:1036D00064020E94251B08951092E2000895109242
:1036E000E10008951F920F920FB60F9211242F93AD
:1036F0003F934F935F936F937F938F939F93AF937A
:10370000BF93EF93FF938091E10082FF0BC0809104
:10371000E20082FF07C08091E1008B7F8093E1008F
:103720000E94AE1D8091E10080FF19C08091E200EF
:1037300080FF15C08091E2008E7F8093E20080912F
:10374000E20080618093E2008091D80080628093E3
:10375000D80019BC85E0809365020E94E41780912F
:10376000E10084FF2BC08091E20084FF27C084E049
:1037700089BD86E089BD89B5982F917080FFFBCF08
:103780008091D8008F7D8093D8008091E1008F7E5A
:103790008093E1008091E2008F7E8093E20080912F
:1037A000E20081608093E20080916102882309F445
:1037B00043C084E0809365020E94ED178091E10090
:1037C00083FF29C08091E20083FF25C08091E10042
:1037D000877F8093E10082E080936502109261020E
:1037E0008091E1008E7F8093E1008091E2008E7FE6
:1037F0008093E2008091E20080618093E20042E0E9
:1038000060E080E00E948A1A8091F00088608093D6
:10381000F0000E94E117FF91EF91BF91AF919F914E
:103820008F917F916F915F914F913F912F910F9069
:103830000FBE0F901F9018958091E30087FD93E0D5
:1038400090936502B9CF1F920F920FB60F92112479
:103850002F933F934F935F936F937F938F939F9398
:10386000AF93BF93CF93DF93EF93FF93D091E90092
:10387000DF708091EC00C82FC17080FDC0E810920D
:10388000E9008091F000877F8093F00078940E9497
:10389000671C1092E9008091F00088608093F0002E
:1038A000CD2BCF70C093E900FF91EF91DF91CF91C5
:1038B000BF91AF919F918F917F916F915F914F9148
:1038C0003F912F910F900FBE0F901F901895AAE275
:1038D000B0E0EDE6FCE10C940D1E86E692E020914E
:1038E000F100FC012193CF01F2E08E369F07B9F77A
:1038F0000E940D188091E80083FF1EC1809166022E
:10390000909167029A3008F017C1E92FF0E0E85172
:10391000F14E0C94F81D803899F0823809F00CC1F2
:1039200080916A028F70853008F006C18093E900AB
:103930008091EB0085FB882780F91092E90006C092
:103940008091620290916302911182609091E800EF
:10395000977F9093E8008093F1001092F10080919E
:10396000E8008E77E5C0882309F4D3C0823009F0DF
:10397000E3C0809168028111D6C080916A028F7085
:103980002FEF280F243008F0D7C08093E900209152
:10399000EB0020FFC8C0933031F48091EB008062CF
:1039A0008093EB00C0C09091EB0090619093EB008E
:1039B00021E030E001C0220F8A95EAF72093EA0067
:1039C0001092EA008091EB008860EACF8111B4C0C8
:1039D000109168021F778091E3008078812B80939B
:1039E000E3008091E800877F8093E8000E94BE1A80
:1039F0008091E80080FFFCCF8091E3008068809395
:103A0000E30082E0111183E08093650295C0805845
:103A1000823008F091C080916802909169028C3DDB
:103A200023E09207A1F583E08A838AE289834FB776
:103A3000F894DE01139620E03EE051E2E32FF0E03F
:103A400050935700E49120FF03C0E295EF703F5F71
:103A5000EF708E2F90E0EA30C0F0C7968D939D9363
:103A60002F5F243159F74FBF8091E800877F809303
:103A7000E8006AE270E0CE0101960E94D1198091BF
:103A8000E8008B778093E80057C0C096E7CF60913D
:103A90006A0270916B02AE014F5F5F4F0E940C197A
:103AA000BC01892B09F448C09091E800977F90935E
:103AB000E80089819A810E942D1AE1CF8038E1F5D2
:103AC0008091E800877F8093E80080916102809375
:103AD000F10045CF811130C090916802923060F5BD
:103AE0008091E800877F8093E800909361020E94B4
:103AF000BE1A80916102882311F084E005C0809194
:103B0000E30087FDFACF81E0809365020E94F817F9
:103B100013C080916802813079F481E0933009F01C
:103B200080E0809363021092E9008091E800877F33
:103B30008093E8000E94BE1A8091E80083FF0AC0CB
:103B40008091E800877F8093E8008091EB0080629D
:103B50008093EB00AA96E3E00C94291E0895CF937E
:103B6000809165028823A1F0C091E900CF70909107
:103B7000EC00892F817090FD80E8C82B1092E9003D
:103B80008091E80083FD0E94671CCF70C093E9001C
:103B9000CF910895002480FD060E660F11F08695E2
:103BA000D1F7802D08950024552704C0080E591F11
:103BB000880F991F009729F076956795B8F37105DE
:103BC000B9F7802D952F089597FB072E16F40094D2
:103BD00007D077FD09D00E94351E07FC05D03EF4C2
:103BE000909581959F4F0895709561957F4F0895A9
:103BF000EE0FFF1F0590F491E02D09942F923F9254
:103C00004F925F926F927F928F929F92AF92BF92EC
:103C1000CF92DF92EF92FF920F931F93CF93DF9398
:103C2000CDB7DEB7CA1BDB0B0FB6F894DEBF0FBEF5
:103C3000CDBF09942A88398848885F846E847D8442
:103C40008C849B84AA84B984C884DF80EE80FD8044
:103C50000C811B81AA81B981CE0FD11D0FB6F894BA
:103C6000DEBF0FBECDBFED010895AA1BBB1B51E106
:103C700007C0AA1FBB1FA617B70710F0A61BB70BDC
:103C8000881F991F5A95A9F780959095BC01CD0181
:103C90000895FB01DC0104C08D910190801921F48D
:103CA00041505040C8F7881B990B0895FB01DC0177
:103CB00002C001900D9241505040D8F70895F999F3
:103CC000FECF92BD81BDF89A992780B50895A8E1ED
:103CD000B0E042E050E00C94A31EDC01A40FB51F3D
:103CE0004150504048F0CB01840F951F2E910E9407
:103CF0007E1E41505040D0F70895262FF999FECFEF
:103D000092BD81BDF89A019700B4021639F01FBA2E
:103D100020BD0FB6F894FA9AF99A0FBE089503964B
:103D2000272F0E947E1E0E947D1E252F0E947E1E30
:103D3000242F0C947E1E0196272F0E947E1E0C9429
:103D40007D1EDC01CB01FC01F999FECF06C0F2BD5E
:103D5000E1BDF89A319600B40D9241505040B8F749
:103D60000895F894FFCF4E044E047F047F040A05A3
:103D70002605AE04AE042B059C05AB05AB05A511CD
:103D80001912AD1177117B11B1117F11B511C1114C
:103D90008B1112128F11C5119311C911F1119711C5
:103DA000CD11F8119D11D311DB118311B9118711B8
:103DB000BD11A111D711E711011210127111A91132
:103DC000201249154F153815431555155B1561150A
:103DD0008B1CB31C9C1DB31C9C1DE61C071D9C1D4D
:043DE0005E1D6A1DDD
:103DE4000802280850011E0A14019717CD179A17C4
:103DF400C617BF1701E200E900EA00B500B600B734
:103E040000CD008301CC008A019201940121022398
:103E14000224022502260227022A02B300B4006FFC
:103E24000070009F01CB019F02A002818283E20007
:103E3400E900EA00B500B600B700CD008301CC006C
:103E44008A019201940121022302240225022602FE
:103E540027022A02B300B4006F0070009F01CB0157
:103E64009F02A0028182836667373635343332314C
:083E74003064969295949300CE
:00000001FF
